:100000000C9462000C948A000C948A000C948A0070
:100010000C948A000C948A000C9493100C948A001F
:100020000C948A000C948A000C948A000C948A0028
:100030000C948A000C948A000C948A000C948A0018
:100040000C94F3030C948A000C9463040C943D0408
:100050000C948A000C948A000C948A000C948A00F8
:100060000C948A000C948A000000000023002600F3
:10007000290000000000240027002A0000000000E2
:10008000250028002B0004040404040404040202D4
:100090000202020203030303030301020408102007
:1000A0004080010204081020010204081020000012
:1000B0000008000201000003040700000000000027
:1000C00000007E1111241FBECFEFD8E0DEBFCDBFF0
:1000D00011E0A0E0B1E0E4E1F6E202C005900D928B
:1000E000A034B107D9F722E0A0E4B1E001C01D922D
:1000F000A037B207E1F710E0C2E6D0E004C02197D4
:10010000FE010E94CD11C136D107C9F70E94961099
:100110000C9408130C940000AF92BF92CF92DF9220
:10012000EF92FF920F931F93CF93DF936C017B01AC
:100130008B01040F151FEB015E01AE18BF08C0173D
:10014000D10759F06991D601ED91FC910190F081B0
:10015000E02DC6010995892B79F7C501DF91CF9173
:100160001F910F91FF90EF90DF90CF90BF90AF90D5
:100170000895FC01538D448D252F30E0842F90E0AD
:10018000821B930B541710F0CF9608950197089592
:10019000FC01918D828D981761F0A28DAE0FBF2F5B
:1001A000B11D5D968C91928D9F5F9F73928F90E0B1
:1001B00008958FEF9FEF0895FC01918D828D981720
:1001C00031F0828DE80FF11D858D90E008958FEF5D
:1001D0009FEF0895FC01918D228D892F90E0805C26
:1001E0009F4F821B91098F73992708958BE491E0AB
:1001F0000E94EA0021E0892B09F420E0822F089573
:100200000E94F60081110C940000089580E090E0B7
:10021000892B11F00C9400010895FC01A48DA80F06
:10022000B92FB11DA35ABF4F2C91848D90E0019638
:100230008F739927848FA689B7892C93A089B18958
:100240008C91837080648C93938D848D981306C0F9
:100250000288F389E02D80818F7D80830895EF925D
:10026000FF920F931F93CF93DF93EC0181E0888F70
:100270009B8D8C8D98131AC0E889F989808185FF40
:1002800015C09FB7F894EE89FF896083E889F989E2
:1002900080818370806480839FBF81E090E0DF91E4
:1002A000CF911F910F91FF90EF900895F62E0B8D37
:1002B00010E00F5F1F4F0F731127E02E8C8D8E11F2
:1002C0000CC00FB607FCFACFE889F989808185FF59
:1002D000F5CFCE010E940D01F1CFEB8DEC0FFD2F7C
:1002E000F11DE35AFF4FF0829FB7F8940B8FEA8914
:1002F000FB8980818062CFCFCF93DF93EC01888D23
:100300008823B9F0AA89BB89E889F9898C9185FD90
:1003100003C0808186FD0DC00FB607FCF7CF8C911E
:1003200085FFF2CF808185FFEDCFCE010E940D01C8
:10033000E9CFDF91CF910895833081F028F48130A7
:1003400099F08230A9F008958730A9F08830C9F07B
:100350008430B1F4809180008F7D03C08091800053
:100360008F7780938000089584B58F7784BD08953A
:1003700084B58F7DFBCF8091B0008F778093B000E4
:1003800008958091B0008F7DF9CF1F93CF93DF93B5
:10039000282F30E0F901E255FF4F8491F901E6562C
:1003A000FF4FD491F901EA57FF4FC491CC23A9F034
:1003B000162F81110E949C01EC2FF0E0EE0FFF1F21
:1003C000E458FF4FA591B4918FB7F894EC911111B7
:1003D00008C0D095DE23DC938FBFDF91CF911F91B2
:1003E0000895DE2BF8CFCF93DF9390E0FC01E65623
:1003F000FF4F24918A579F4FFC0184918823D1F0AD
:1004000090E0880F991FFC01EE58FF4FA591B49121
:10041000FC01E458FF4FC591D49161110EC09FB704
:10042000F8948C91E22FE0958E238C932881E2231F
:10043000E8839FBFDF91CF9108958FB7F894EC9137
:10044000E22BEC938FBFF6CFE0911202F0911302F2
:100450008081811107C08FEF9FEF909301028093FD
:1004600000020895E0911202F09113020580F681D6
:10047000E02D0680F781E02D82819381EECFCF932E
:10048000DF9300D0CDB7DEB761E08DE00E94F301CD
:100490001A82198261E08DE00E94C5011A821982D8
:1004A00089819A818033954734F489819A810196B4
:1004B0009A838983F5CF60E08DE00E94C5011A829E
:1004C000198289819A818033954724F789819A819D
:1004D00001969A838983F5CF61E083E00E94F3015E
:1004E00080914401909145010E94F609813099F470
:1004F000809142019091430161E0019709F060E031
:1005000083E00E94C50170E060E080914401909119
:1005100045010E9496080E948808E2CF00E010E0A2
:100520008091480181110CC080914702823010F007
:100530000E94B2060115110599F30E940001F0CF47
:100540000FB6F8940F92E0912202F0912302C68137
:10055000D781CE0102960E94E3048091430281502C
:1005600080934302809148018150809348010F900D
:100570000FBE8F89988D0E944F0DCE010E944F0DA6
:10058000CFCF0F931F93CF93DF93E0915B01F09157
:100590005C0182E08083E0915701F0915801108264
:1005A000E0915901F0915A018FEC80831092630120
:1005B000E0915F01F091600186E08083E0915D0150
:1005C000F0915E01808180618083E0915D01F09116
:1005D0005E01808188608083E0915D01F0915E0121
:1005E000808180688083E0915D01F0915E0180816F
:1005F0008F7D808361E083E00E94F301809144015C
:1006000090914501892B21F58FE190E00E940F0F19
:10061000EC01009791F09983888381E08B8F1C8E89
:10062000CE010E9482061D821C82198218821E82BF
:1006300070E060E0CE010E949608D0934501C0931F
:100640004401209729F070E060E0CE010E949608F6
:1006500010E000E021E040E850E068E171E08AE469
:1006600093E00E942D0F21E040E850E068E171E046
:100670008CE692E00E942D0F21E040E850E064E219
:1006800071E08FE392E00E942D0FDF91CF911F91D7
:100690000F910895CF93DF93CDB7DEB7A1970FB633
:1006A000F894DEBF0FBECDBF60E082E00E94F30190
:1006B00090EBE92E90E0F92E2CE9C22E20E0D22E0C
:1006C00038E8232E30E0332E4AE0442E512C612CA2
:1006D000712C80914401909145010E94F60981306E
:1006E00009F065C08090420190904301092C000CF4
:1006F000AA08BB08B7FE5EC06DE28BE491E00E94E1
:100700002F0122273327A901281939094A095B0932
:1007100019A28E010F5D1F4FCA01B901A3019201F9
:100720000E94AB11605DF80162938F0121153105C4
:100730004105510589F70115110561F0019000206F
:10074000E9F73197AF01401B510BB8018BE491E001
:100750000E948C0042E050E06FE271E08BE491E097
:100760000E948C00F7018491F6011491F10104912B
:100770000023B1F181110E949C01E02FF0E0EE0F07
:10078000FF1FE859FF4FA591B4918C91182391E078
:1007900080E009F490E0909342018093430170E07F
:1007A00060E080914401909145010E9496080E946A
:1007B00088088FCFA501940119A28E010F5D1F4FEC
:1007C000CA01B901A30192010E94AB11605DF80159
:1007D00062938F01211531054105510589F7ABCF92
:1007E00090E080E0D8CF1F920F920FB60F921124A5
:1007F0002F933F938F939F93AF93BF938091090261
:1008000090910A02A0910B02B0910C023091080263
:1008100023E0230F2D3758F50196A11DB11D20931C
:1008200008028093090290930A02A0930B02B093EE
:100830000C028091040290910502A0910602B091F1
:1008400007020196A11DB11D809304029093050239
:10085000A0930602B0930702BF91AF919F918F9131
:100860003F912F910F900FBE0F901F90189526E883
:10087000230F0296A11DB11DD2CF1F920F920FB66A
:100880000F9211242F933F934F935F936F937F9316
:100890008F939F93AF93BF93EF93FF938BE491E07C
:1008A0000E940D01FF91EF91BF91AF919F918F91A8
:1008B0007F916F915F914F913F912F910F900FBE5C
:1008C0000F901F9018951F920F920FB60F92112440
:1008D0002F938F939F93EF93FF93E0915B01F091A0
:1008E0005C018081E0916101F091620182FD1BC099
:1008F0009081809164018F5F8F73209165018217D1
:1009000041F0E0916401F0E0E55BFE4F958F80934C
:100910006401FF91EF919F918F912F910F900FBEE6
:100920000F901F9018958081F4CFFC01DB010FB66A
:10093000F8940F9240914402509145022D913C91C0
:1009400011972F3F3207E1F0818192816091460239
:100950007081761719F048175907C0F4481B590BD6
:100960004217530788F4241B350B2D933C93809139
:100970004602808380914402909145029283818354
:1009800080E00F900FBE08951D921C9281E0F9CF78
:100990000FB6F8940F9280914402909145020F9007
:1009A0000FBE089580910D028F5F80930D02089510
:1009B0000FB6F8940F92FC01928D0F900FBE81E05C
:1009C000911180E00895CF93DF93FC01A085B1855C
:1009D0008281938124813581EC013D832C83C48104
:1009E000D5819B838A8311968D919C9112978E1746
:1009F0009F0721F41296DC93CE93119711861086EF
:100A00008C9181508C938C91DF91CF910895CF93ED
:100A1000DF939C01FB01DC011196CD91DC91D38326
:100A2000C2838C819D81958384838C819D81DC012F
:100A300013967C936E9312977D836C833187208706
:100A4000F90180818F5F8083DF91CF9108950F93AB
:100A50001F93CF93DF93DC011596ED91FC91C68136
:100A6000D7818E01045F1F4FC8010E94E30480916B
:100A70000D02811125C00A501109C8010E94E3042A
:100A80008E8990916B02981710F480936B02B9E0F5
:100A90008B9FC0011124B801895B9D4F0E940705FF
:100AA000E0914001F09141019E898689891760F4A7
:100AB00081E080934701DF91CF911F910F910895BD
:100AC000B80186E292E0EACF80E0F5CFEF92FF92A4
:100AD0000F931F93CF93DF93EC010FB6F8940F920F
:100AE0001E8D7C0181E1E80EF11C01E01116D4F0AD
:100AF0008FEF8E8F0F900FBE0FB6F8940F921D8D53
:100B00007E0188E0E80EF11C01E01116B4F08FEFD1
:100B10008D8F0F900FBEDF91CF911F910F91FF909E
:100B2000EF9008958989882319F3C7010E9427054A
:100B30008111009347011150D9CF8885882339F35B
:100B4000C7010E9427058111009347011150DDCF95
:100B50000F931F93CF93DF938C01FB0180819181D1
:100B6000D80113968F3F9807F1F4E801AF81B8855B
:100B700012968D919C91139793838283EC01FD8350
:100B8000EC83B583A4831396FC93EE93129711879D
:100B90000087F80180818F5F8083DF91CF911F9163
:100BA0000F910895D90112962D913C911397E90167
:100BB0004881598184179507A8F7DACFFC01738320
:100BC0006283918780874617570790F0421B530B2B
:100BD0008485958548175907C8F4BF016E5F7F4F1C
:100BE0008091E8019091E9010E94A80580E00895B4
:100BF0004217530718F46217730740F4BF016E5F82
:100C00007F4F8091EA019091EB01EECF81E0089552
:100C1000FF920F931F93CF93DF93EC01F62E009179
:100C20004402109145028091400190914101029649
:100C30000E94E304CF3FDC0789F4FF2079F0609144
:100C40004001709141016E5F7F4F84E192E0DF913E
:100C5000CF911F910F91FF900C940705C00FD11FEA
:100C6000E0914001F0914101D383C2836091400142
:100C700070914101C017D10768F4809110029091E2
:100C800011026E5F7F4FDF91CF911F910F91FF9007
:100C90000C94A80580911202909113026E5F7F4F11
:100CA0000E94A8058091000290910102C817D907FF
:100CB00020F4D0930102C0930002DF91CF911F91E5
:100CC0000F91FF900895CF93DF93EB016091400166
:100CD00070914101645F7F4F0E94A80561E0CE01E1
:100CE000DF91CF910C940806FC01039692838183D7
:100CF0002FEF3FEF34832383968385839087878309
:100D000010820895CF93DF93EC010FB6F8940F9201
:100D1000888199812B8D4C8DBC01249F600D711DA4
:100D200011247D836C831A8E9B838A832150330B1D
:100D3000429FB001439F700D1124860F971F9F8320
:100D40008E838FEF8D8F8E8FCE0108960E94740652
:100D5000CE0141960E9474060F900FBE81E0DF9194
:100D6000CF9108950F920FB6F8940F921F9211240D
:100D70002F923F924F925F926F927F928F929F92AB
:100D8000AF92BF92CF92DF92EF92FF920F931F9399
:100D90002F933F934F935F936F937F938F939F9383
:100DA000AF93BF93CF93DF93EF93FF93A091400155
:100DB000B09141010DB60D920EB60D9280910D02CB
:100DC000882321F081E0809347015FC010924701A2
:100DD000A0914001B0914101E0914001F0914101A9
:100DE0002D913C918789908D82179307A8F080916F
:100DF0004001909141018091400190914101259ADB
:100E00002D9A2FEF87EA91E6215080409040E1F73C
:100E100000C000001D9AF5CF20916B0289E001C04F
:100E20002150422F50E0849FF001859FF00D112446
:100E3000E95BFD4F9081992399F3A181B2811296CC
:100E40000D90BC91A02DB283A183289FC0011124D5
:100E5000865B9D4FA817B90729F412968D919C9136
:100E60009283818389E0849FF001859FF00D112496
:100E7000E95BFD4F0180F281E02D8681978190939F
:100E800041018093400120936B02A0914001B091F9
:100E90004101CD91CDBFDD91DEBFFF91EF91DF919B
:100EA000CF91BF91AF919F918F917F916F915F9102
:100EB0004F913F912F911F910F91FF90EF90DF90F5
:100EC000CF90BF90AF909F908F907F906F905F90EA
:100ED0004F903F902F901F900F900FBE0F9008954E
:100EE0008F929F92AF92BF92CF92DF92EF92FF923A
:100EF0000F931F93CF93DF930FB6F8940F928091C7
:100F00000D02815080930D0280910D02882381F0A3
:100F100080E00F900FBEDF91CF911F910F91FF9056
:100F2000EF90DF90CF90BF90AF909F908F900895FB
:100F300080914302882361F3D0E0C0E029E0F22EE3
:100F4000EE24E39429C0E0912B02F0912C02C6819B
:100F5000D781CE010C960E94E3048E010E5F1F4FD5
:100F6000C8010E94E3048E8990916B02981710F4D7
:100F700080936B028F9DC0011124B801895B9D4F46
:100F80000E940705E0914001F09141019E89868908
:100F9000981710F0E0924701809126028111D3CF7B
:100FA000CD2B11F00E942402E0904601EE2009F4BE
:100FB00051C089E0982E88248394CC24CA94DC2CD8
:100FC00080910D0281119DC0C0914402D0914502D3
:100FD0002196D0934502C09344022097B9F48091A2
:100FE000120290911302209110023091110230935D
:100FF00013022093120290931102809310028091A9
:1010000046028F5F809346020E9424028091000274
:1010100090910102F12CC817D90708F066C0E09141
:101020004001F0914101E6899E9EF0011124E95BA7
:10103000FD4F8081823010F0FF24F39480914701AE
:10104000811101C0F11080924701EA94E110B8CFFC
:101050001092460180914701882309F459CF0E94DC
:10106000B20681E056CFE0911202F09113020580A2
:10107000F681E02D06811781D80112968D919C9101
:10108000C817D90728F49093010280930002C7CFB4
:101090005801B2E0AB0EB11CC5010E94E304F80197
:1010A00084899589892B21F0C8010C960E94E3045C
:1010B000D80156968C9190916B02981710F48093FA
:1010C0006B02899DC0011124B501895B9D4F0E946F
:1010D0000705E0914001F0914101D80156969C919D
:1010E0008689981710F0FF24F394E0911202F09192
:1010F000130280818111B7CFD0920102C092000209
:101100008ECF809146018F5F80934601F12C96CF60
:101110000E94D20460E081E090E00E9408060E94F4
:101120007007811102C00E94B2060895AF92BF926B
:10113000DF92EF92FF920F931F93CF93DF9300D034
:1011400000D01F92CDB7DEB78C017B011D821C82BF
:1011500080E0580128E0A20EB11C0FB6F8940F925F
:10116000F801228D938D291708F077C0D28C448D19
:10117000411159C080819181892B11F080E009C013
:10118000E480F580E114F10419F580E0F80115829E
:101190001482D394F801D28E9189992321F0C80149
:1011A00041960E94270581110E94B2060F900FBE42
:1011B00081E00F900F900F900F900F90DF91CF91E3
:1011C0001F910F91FF90EF90DF90BF90AF90089527
:1011D000F70182A1815082A3268991A12917A9F242
:1011E0008111D3CF5701F2E0AF0EB11CC5010E94AF
:1011F000E304F70181A1868B24E030E0281B31094C
:101200003587248790916B02981710F480936B02B6
:10121000F9E08F9FC0011124B501895B9D4F0E94A9
:10122000070581E0B3CF50E0B701828193810E942E
:10123000F812F801848D22813381820F932F911D42
:1012400093838283248135818217930708F496CF94
:10125000808191819383828391CF2C813D81232B47
:1012600021F40F900FBE80E0A4CF811109C08091BE
:101270004602898380914402909145029B838A8330
:101280000F900FBE0E94D2040FB6F8940F92F8018F
:10129000858D8F3F09F4158EF801868D8F3F09F4F7
:1012A000168E0F900FBEBE016C5F7F4FCE01019670
:1012B0000E949504811120C00FB6F8940F92F80196
:1012C000928D838D0F900FBE981310C06C817D811D
:1012D000C5010E946306C8010E9466050E9470074E
:1012E000811102C00E94B20681E037CFC8010E947E
:1012F00066050E947007F8CFC8010E9466050E942B
:101300007007B1CFCF93DF9300D000D01F92CDB73D
:10131000DEB79C0180910E0290910F020097B9F008
:1013200019827B836A833D832C8320914202BE0114
:101330006F5F7F4F211120910D020E9496080F9040
:101340000F900F900F900F90DF91CF91089580E054
:10135000F6CFEF92FF920F931F93CF93DF93E0911D
:10136000EA01F091EB018081811113C08091E801C5
:101370009091E9019093EB018093EA01F093E901E8
:10138000E093E801DF91CF911F910F91FF90EF90D3
:1013900008950580F681E02D00811181C681D781F5
:1013A0007E0182E0E80EF11CC7010E94E304E88997
:1013B000F989CE0109958A8982FFD1CF8C859D85D7
:1013C000800F911F0817190760F49B838A83D987C0
:1013D000C887B7018091EA019091EB010E94A805AE
:1013E000BECFB801CE010E948209B9CF7F928F9201
:1013F0009F92AF92BF92CF92DF92EF92FF920F93A4
:101400001F93CF93DF9300D000D01F92CDB7DEB7EC
:101410008C0185E090E09D838C83F12C90E0580155
:1014200021E1A20EB11C89E0782E24E0822E912CBD
:101430000FB6F8940F92D8015A968C915A97882338
:1014400009F440C081505A968C935A978D919C9183
:10145000892BA1F48091400190914101892B39F0B1
:10146000E0914001F091410182A18F5F82A38091C0
:10147000400190914101F80195838483D801189629
:101480008C91882339F0C80108960E9427058111A4
:101490000E94B2060F900FBEFF24F3948F2D0F9081
:1014A0000F900F900F900F90DF91CF911F910F91A0
:1014B000FF90EF90DF90CF90BF90AF909F908F9074
:1014C0007F9008952C813D81232B21F40F900FBE36
:1014D000F12CE4CF911109C080914602898380915B
:1014E0004402909145029B838A830F900FBE0E9415
:1014F000D2040FB6F8940F92F801858D8F3F09F44E
:10150000158ED8015E968C915E978F3F11F45E9692
:101510001C920F900FBEBE016C5F7F4FCE010196F3
:101520000E94950481118AC0C8010E94D8048823B2
:1015300009F47EC0F80180819181892B09F052C0A5
:101540000FB6F8940F92C480D580C114D10409F469
:101550006DC0F6018689E0914001F09141019689C4
:10156000891708F057C0D6011C962D913C911D9704
:1015700037FD0CC0E0914001F09141019689940142
:10158000291B31091D963C932E931C97879DC00102
:101590001124895B9D4FF601228533852817390771
:1015A00089F57601F2E0EF0EF11CC7010E94E30419
:1015B000E0914001F09141018689D60156968C93C5
:1015C00090916B02981710F480936B02879DC00175
:1015D0001124B701895B9D4F0E940705FF24F394F6
:1015E0000F900FBE6C817D81C5010E946306C8010A
:1015F0000E9466050E947007811102C00E94B20617
:1016000091E016CFE0914001F09141018689F60109
:10161000868BE4CFE0914001F0914101FF24F394E7
:10162000D60191969C9186899817D0F2F12CD8CF4B
:10163000C8010E9466050E947007E2CFC8010E949F
:1016400066050E947007C8010E94D8048823C1F271
:10165000FF2009F423CF0FB6F8940F92F801818987
:10166000882309F458C00688F789E02D908184E02A
:10167000891BD80114960D911C910115110509F4CF
:1016800025CFF80191A1981708F4982FD801569604
:101690008C915697981709F419CF92962C9192979E
:1016A000213009F013CF56969C9356971C962D9196
:1016B0003C911D9737FD08C024E030E0291B31091B
:1016C0001D963C932E931C97B9E08B9FC00111246B
:1016D000895B9D4FF801228533852817390709F06A
:1016E000F5CE7801F2E0EF0EF11CC7010E94E30491
:1016F000D80156968C9190916B02981710F48093B4
:101700006B02B9E08B9FC0011124B701895B9D4F2B
:101710000E940705DBCE80E0ACCF0F920FB6F894A5
:101720000F921F9211242F923F924F925F926F92CD
:101730007F928F929F92AF92BF92CF92DF92EF9261
:10174000FF920F931F932F933F934F935F936F934A
:101750007F938F939F93AF93BF93CF93DF93EF9339
:10176000FF93A0914001B09141010DB60D920EB6CC
:101770000D9213BE80910D028111F2C0809144023E
:101780009091450201969093450280934402009700
:1017900099F520911202309113024091100250915C
:1017A00011025093130240931202309311022093BE
:1017B0001002209146022F5F20934602E091120210
:1017C000F09113022081211107C02FEF3FEF3093DA
:1017D00001022093000210C0E0911202F091130266
:1017E0000580F681E02D0680F781E02D228133818E
:1017F00030930102209300022091000230910102F7
:101800008217930710F420E09BC020E019E0E091DC
:101810001202F09113023081311107C08FEF9FEF58
:1018200090930102809300028BC0E0911202F0912C
:1018300013020580F681E02D0680F781E02D4281BC
:1018400053818417950728F45093010240930002B6
:1018500077C0AF014E5F5F4FA285B385648175810C
:10186000E680F780EB01FD82EC82C681D7817B8325
:101870006A8311966D917C9112974617570721F450
:101880001296DC93CE931197138612863C913150B9
:101890003C933C91A489B5891097F9F066857785CA
:1018A000E088F188EB01FD82EC82C089D1897B83DD
:1018B0006A831196ED90FC901297BF01645F7F4F91
:1018C000E616F70621F41296DC93CE931197158A4B
:1018D000148A3C9131503C933C91A68930916B0223
:1018E0003A1710F4A0936B021A9FD0011124BD0186
:1018F000695B7D4F7B01DB011196CD91DC91D58336
:10190000C4836C817D81778366836C817D81DB01FB
:1019100013965C934E9312975D834C83F386E28615
:10192000E70138813F5F3883A0914001B0914101C8
:10193000468956963C91431708F469CF21E067CF5A
:10194000E0914001F0914101E689D9E0ED9FF0017D
:101950001124E95BFD4F8081823040F021E006C018
:10196000809146018F5F8093460120E0809147017E
:10197000811103C0222309F467C080910D028823DE
:1019800021F081E0809347015FC010924701A09150
:101990004001B0914101E0914001F09141012D9150
:1019A0003C918789908D82179307A8F08091400120
:1019B000909141018091400190914101259A2D9A89
:1019C0002FEF67EA71E6215060407040E1F700C0F8
:1019D00000001D9AF5CF20916B0289E001C02150D3
:1019E000422F50E0849FF001859FF00D1124E95BA8
:1019F000FD4F9081992399F3A181B28112960D90A8
:101A0000BC91A02DB283A183289FC0011124865BC5
:101A10009D4FA817B90729F412968D919C91928336
:101A2000818389E0849FF001859FF00D1124E95B9B
:101A3000FD4F0180F281E02D8681978190934101D5
:101A40008093400120936B02A0914001B09141012D
:101A5000CD91CDBFDD91DEBFFF91EF91DF91CF91B1
:101A6000BF91AF919F918F917F916F915F914F91B6
:101A70003F912F911F910F91FF90EF90DF90CF90AA
:101A8000BF90AF909F908F907F906F905F904F909E
:101A90003F902F901F900F900FBE0F900895CF93FF
:101AA000DF93009751F0EC010E94D204CE010E9416
:101AB0006F12DF91CF910C947007DF91CF91089551
:101AC000CF93DF93CDB7DEB72A970FB6F894DEBF7A
:101AD0000FBECDBFE091EA01F091EB01F08010E084
:101AE00000E0FF2029F00580F681E02D00811181C2
:101AF0000E94D2040E94C8046C0180914901909117
:101B00004A01C816D90608F07CC00E94A909D092E3
:101B10004A01C09249010E94700700910E02109183
:101B20000F021A86198680E06801B1E1CB0ED11C44
:101B30000FB6F8940F92F801F28CFF2009F418C147
:101B4000448D4423C1F050E086819781840F951F16
:101B500097838683248135818217930720F08081C3
:101B6000918197838683D80116966D917C91CE01E1
:101B700001960E94F812FA94F801F28E808588236B
:101B800039F0C80108960E94270581110E94B2060B
:101B90000F900FBED980D7FCC0CF0C811D81D8011A
:101BA0001A968D919C91892B21F0C80102960E9472
:101BB000E3040E94C8047C018091490190914A018C
:101BC000E816F90610F40E94A909F0924A01E09281
:101BD0004901B9E0BD1508F4A0CFED2DDD0CFF0BD8
:101BE000E950F24FD80152968C910C94CD117B0E96
:101BF0007B0E7B0EB30E9E0EAD0E7B0E7B0EB30ED8
:101C00009E0ED0924A01C0924901FF2099F1C01660
:101C1000D106C0F10E947007E091EA01F091EB015A
:101C20000580F681E02DE680F780C70102960E94CC
:101C3000E304D70152968C91529782FF17C01C96ED
:101C40006D917C91600F711F9801A601C7010E94E0
:101C5000DE05882321F0B801C7010E948209D7015F
:101C60005096ED91FC91C701099557CF8E7FF701F2
:101C7000828BF5CFE091E801F091E9018081BB24EE
:101C8000B3948111B12CE0900E02F0900F020FB6C8
:101C9000F8940F92F701858D8F3F09F4158ED701C7
:101CA0005E968C915E978F3F11F45E961C920F901A
:101CB0000FBEF701828D811114C0609140017091B7
:101CC0004101645F7F4FC70141960E940705C8012B
:101CD0008C199D09BB2011F08FEF9FEF6B2D0E9497
:101CE0000806C7010E9466050E947007811115CF82
:101CF0000E94B20612CF8160F801828BCA80DB801D
:101D0000648575856C0D7D1D9601A701C8010E9433
:101D1000DE05882309F401CFD8015096ED91FC919E
:101D2000C8010995F801828982FFF7CE648575851F
:101D30006C0D7D1DC8010E948209EFCE8160F80103
:101D4000828B6A817B81758764876E0D7F1D970109
:101D5000A701C8010E94DE05E0CE81FD04C0C801D4
:101D60000E944F0DDACE8E7FD80152968C93D5CE3D
:101D700029853A85232B19F40F900FBEABCE811124
:101D800009C0809146028E83809144029091450261
:101D900098878F830F900FBE0E94D2040FB6F894DD
:101DA0000F92D8015D968C915D978F3F11F45D96EF
:101DB0001C92F801868D8F3F09F4168E0F900FBE8E
:101DC000BE01675F7F4FCE0106960E949504811188
:101DD0001BC0C8010E94D804882381F069857A85D8
:101DE000C6010E946306C8010E9466050E94700732
:101DF000811102C00E94B20681E09ACEC8010E9401
:101E000066050E947007F8CFC8010E9466050E940F
:101E10007007C8010E94D804882371F35BCECF936A
:101E2000DF93EC010E94D204CE010E94D311EC0199
:101E30000E947007209769F4259A2D9A2FEF80E76A
:101E400092E0215080409040E1F700C000001D9AD0
:101E5000F5CFCE01DF91CF9108957F928F929F921F
:101E6000AF92BF92CF92DF92EF92FF920F931F93A8
:101E7000CF93DF93982EA92E762E872E7A01B22E3D
:101E8000CA010E940F0F6C01892B09F42BC188E253
:101E900090E00E940F0FEC01892B09F420C1D88E2D
:101EA000CF8AA70165EA70E0C6010E94011321E014
:101EB000E21AF108EF89F88DEE0DFF1D672D782DE0
:101EC000CE0149969B01285F3F4FDB014D91BD013B
:101ED000DC014D93CD01AB0141505109DA014C9128
:101EE000442319F06217730781F718A2BE8AB9A2BA
:101EF0001AA21B861A861D8A1C8AD987C88784E085
:101F000090E08B1991099D878C87DB8BCA8B1BA274
:101F10001CA21DA21EA21FA291E19083DF011197B6
:101F200082E28C93119723E32C9311979C92119743
:101F3000AC9211971C92119720E82C9311971C9248
:101F4000119722E02C93119723E02C93119724E012
:101F50002C93119725E02C93119726E02C93119741
:101F600027E02C93119728E02C93119729E02C93CC
:101F7000119720E12C9311979C93119792E19C93D8
:101F8000119793E19C93119794E19C93119795E19C
:101F90009C93119796E19C93119797E19C931197CD
:101FA00098E19C93119799E19C93119790E29C93EF
:101FB000119791E29C9311978C93119783E28C93E4
:101FC00011971C9211971C92119786E28C9311978E
:101FD00087E28C93119788E28C93119789E28C9316
:101FE000119780E38C93119781E38C93B697F983D3
:101FF000E8830115110519F0F801D183C0830FB6EC
:10200000F8940F92809143028F5F809343028091F6
:10201000400190914101892B09F073C0D093410197
:10202000C093400180914302813081F587E492E0C2
:102030000E94740680E592E00E94740689E592E0B1
:102040000E94740682E692E00E94740688E392E0A1
:102050000E9474068FE292E00E94740686E292E08B
:102060000E9474068DE192E00E94740684E192E081
:102070000E94740688E392E0909313028093120208
:102080008FE292E0909311028093100280914102BE
:102090008F5F809341028E8990916B02981710F4A4
:1020A00080936B02F9E08F9FC0011124BE016E5F27
:1020B0007F4F895B9D4F0E9407050F900FBE809157
:1020C0004202882351F0E0914001F091410196894C
:1020D0008E89981710F40E94B20681E004C0C601F0
:1020E0000E944F0D8FEFDF91CF911F910F91FF90C5
:1020F000EF90DF90CF90BF90AF909F908F907F90A8
:102100000895809142028111C1CFE0914001F09188
:1021100041019E898689981708F4B8CFD093410170
:10212000C0934001B3CF0E948D0B1895789484B56D
:10213000826084BD84B5816084BD85B5826085BDC3
:1021400085B5816085BD80916E00816080936E0051
:102150001092810080918100826080938100809143
:1021600081008160809381008091800081608093F4
:1021700080008091B10084608093B1008091B000B4
:1021800081608093B00080917A00846080937A00AF
:1021900080917A00826080937A0080917A008160D9
:1021A00080937A0080917A00806880937A00109200
:1021B000C1000E94C10202E012E020E040EC50E0C9
:1021C00062E371E08EE892E00E942D0F813009F009
:1021D0008CC00FB6F8940F9280910E0290910F026E
:1021E000892B49F585EF91E00E9474068CEE91E011
:1021F0000E94740685EF91E09093EB018093EA01D1
:102200008CEE91E09093E9018093E80181E590E004
:102210000E940F0FEC01009751F04F96998388832D
:102220008AE08B8F85E08C8FCE010E948206D0934E
:102230000F02C0930E020F900FBE80910E0290917C
:102240000F02892B09F451C00EEF11E023E045E5A0
:1022500050E067E371E080E69DE00E942D0F813041
:1022600009F043C0F8942FEF3FEF30930102209321
:102270000002809342021092450210924402A895F7
:1022800088E190EC0FB6F894A895809360000FBE9B
:1022900090936000A0914001B0914101CD91CDBFDC
:1022A000DD91DEBFFF91EF91DF91CF91BF91AF91B3
:1022B0009F918F917F916F915F914F913F912F915E
:1022C0001F910F91FF90EF90DF90CF90BF90AF9054
:1022D0009F908F907F906F905F904F903F902F9046
:1022E0001F900F900FBE0F9008950E94C102C0E092
:1022F000D0E02097F1F30E940001FBCFEBE4F1E086
:102300001382128288EE93E0A0E0B0E0848395838C
:10231000A683B7838AE091E09183808385EC90E087
:102320009587848784EC90E09787868780EC90E09F
:10233000918B808B81EC90E0938B828B82EC90E090
:10234000958B848B86EC90E0978B868B118E128E0A
:10235000138E148E0895A1E21A2EAA1BBB1BFD0139
:102360000DC0AA1FBB1FEE1FFF1FA217B307E40774
:10237000F50720F0A21BB30BE40BF50B661F771FCC
:10238000881F991F1A9469F76095709580959095AC
:102390009B01AC01BD01CF010895EE0FFF1F059019
:1023A000F491E02D09940F931F93CF93DF93823024
:1023B000910510F482E090E0E0916E02F0916F02DE
:1023C00030E020E0B0E0A0E0309799F4211531052D
:1023D00009F44AC0281B390B24303105D8F58A810D
:1023E0009B816115710589F1FB0193838283FE0155
:1023F00011C0408151810281138148175907E0F0D3
:102400004817590799F4109761F012960C93129798
:1024100013961C933296CF01DF91CF911F910F91AC
:10242000089500936E0210936F02F4CF21153105C9
:1024300051F04217530738F0A901DB019A01BD01A1
:10244000DF01F801C1CFEF01F9CF90936F028093C4
:102450006E02CDCFFE01E20FF31F819391932250C4
:10246000310939832883D7CF20916C0230916D02D6
:10247000232B41F4209102013091030130936D022E
:1024800020936C022091000130910101211531054A
:1024900041F42DB73EB74091040150910501241B32
:1024A000350BE0916C02F0916D02E217F307A0F496
:1024B0002E1B3F0B2817390778F0AC014E5F5F4F9A
:1024C0002417350748F04E0F5F1F50936D0240935D
:1024D0006C02819391939FCFF0E0E0E09CCFCF938B
:1024E000DF930097E9F0FC01329713821282A091EA
:1024F0006E02B0916F02ED0130E020E01097A1F480
:1025000020813181820F931F20916C0230916D02E6
:102510002817390709F061C0F0936D02E0936C024F
:10252000DF91CF910895EA01CE17DF07E8F54A81E0
:102530005B819E0141155105B1F7E901FB83EA83F7
:1025400049915991C40FD51FEC17FD0761F48081A3
:1025500091810296840F951FE90199838883828176
:1025600093819B838A83F0E0E0E012968D919C91A9
:1025700013970097B9F52D913C911197CD010296D3
:10258000820F931F20916C0230916D02281739073A
:1025900039F6309751F510926F0210926E02B09397
:1025A0006D02A0936C02BCCFD383C2834081518162
:1025B000840F951FC817D90761F44E5F5F4F88815C
:1025C0009981480F591F518340838A819B8193834E
:1025D00082832115310509F0B0CFF0936F02E093AB
:1025E0006E029ECFFD01DC01C0CF13821282D7CFD5
:1025F000FB01DC0102C001900D9241505040D8F720
:102600000895DC0101C06D9341505040E0F70895FA
:04261000F894FFCF6C
:10261400000070028000000000002F018C00B9004F
:102624007C01EA00C800DC004469676974616C528B
:1026340065616400416E616C6F6752656164000D91
:102644000A0049444C4500546D72205376630000DF
:00000001FF
