:100000000C945D000C9485000C9485000C94850084
:100010000C9485000C9485000C9485000C9485004C
:100020000C9485000C9485000C9485000C9485003C
:100030000C9485000C9485000C9485000C9485002C
:100040000C9459060C9485000C9427060C94010618
:100050000C9485000C9485000C9485000C9485000C
:100060000C94A3060C948500000000080002010017
:100070000003040700000000000000000000000072
:10008000250028002B0000000000240027002A0083
:10009000040404040404040402020202020203032E
:1000A0000303030301020408102040800102040836
:1000B0001020010204081020C20711241FBECFEF38
:1000C000D8E0DEBFCDBF22E0AEE4B1E001C01D92BA
:1000D000A93EB207E1F711E0A0E0B1E0E6E4FBE100
:1000E00002C005900D92AE34B107D9F710E0CDE50E
:1000F000D0E004C02197FE010E94A90BCC35D107A6
:10010000C9F70E9418080C94A10D0C94000090E00F
:10011000FC01EC55FF4F249180579F4FFC018491C7
:10012000882399F090E0880F991FFC01EA57FF4F50
:10013000A591B491FC01E458FF4F859194918FB73C
:10014000F894EC91E22BEC938FBF089508950895F5
:10015000AF92BF92CF92DF92EF92FF920F931F93D5
:10016000CF93DF936C017B018B01040F151FEB0113
:100170005E01AE18BF08C017D10759F06991D601CA
:10018000ED91FC910190F081E02DC6010995892B3C
:1001900079F7C501DF91CF911F910F91FF90EF90FB
:1001A000DF90CF90BF90AF900895FC0144815581BE
:1001B000608171818DEC92E00C94A800FC01538D5C
:1001C000448D252F30E0842F90E0821B930B541731
:1001D00010F0CF96089501970895FC01918D828DBE
:1001E000981761F0A28DAE0FBF2FB11D5D968C9157
:1001F000928D9F5F9F73928F90E008958FEF9FEF96
:100200000895FC01918D828D981731F0828DE80F51
:10021000F11D858D90E008958FEF9FEF0895FC010B
:10022000918D228D892F90E0805C9F4F821B9109D8
:100230008F739927089584E292E00E940F0121E0D4
:10024000892B09F420E0822F089580E090E0892B2B
:1002500029F00E941B0181110C9400000895FC01FB
:10026000A48DA80FB92FB11DA35ABF4F2C91848D17
:1002700090E001968F739927848FA689B7892C9374
:10028000A089B1898C91837080648C93938D848DC7
:10029000981306C00288F389E02D80818F7D8083CA
:1002A0000895EF92FF920F931F93CF93DF93EC018A
:1002B00081E0888F9B8D8C8D98131AC0E889F9890D
:1002C000808185FF15C09FB7F894EE89FF89608310
:1002D000E889F98980818370806480839FBF81E091
:1002E00090E0DF91CF911F910F91FF90EF900895D3
:1002F000F62E0B8D10E00F5F1F4F0F731127E02EAE
:100300008C8D8E110CC00FB607FCFACFE889F989E5
:10031000808185FFF5CFCE010E942F01F1CFEB8DBB
:10032000EC0FFD2FF11DE35AFF4FF0829FB7F894B9
:100330000B8FEA89FB8980818062CFCFCF93DF93D7
:10034000EC01888D8823B9F0AA89BB89E889F989ED
:100350008C9185FD03C0808186FD0DC00FB607FC22
:10036000F7CF8C9185FFF2CF808185FFEDCFCE0155
:100370000E942F01E9CFDF91CF91089590E0FC0119
:10038000E859FF4F2491FC01EC55FF4F3491FC01DB
:10039000E057FF4FE491EE23C9F0222339F02330D8
:1003A00001F1A8F4213019F1223029F1F0E0EE0F2B
:1003B000FF1FE458FF4FA591B4918FB7F894EC91CB
:1003C000611126C030953E233C938FBF089527309E
:1003D000A9F02830C9F0243049F7809180008F7D42
:1003E00003C0809180008F7780938000DFCF84B539
:1003F0008F7784BDDBCF84B58F7DFBCF8091B0003C
:100400008F778093B000D2CF8091B0008F7DF9CFED
:100410003E2BDACF3FB7F8948091970190919801E5
:10042000A0919901B0919A0126B5A89B05C02F3FD4
:1004300019F00196A11DB11D3FBFBA2FA92F982F0A
:100440008827BC01CD01620F711D811D911D42E005
:10045000660F771F881F991F4A95D1F70895089551
:1004600020916F01260F3327331F21323105ECF421
:100470002091FA01FC0190E080E0243069F082E0F4
:100480000895A0916F012191AC01415B5E4FA40FD3
:10049000B52FB11D2C930196861798F380916F01AB
:1004A000680F60936F0180E0089581E008951092D5
:1004B000FA0181E08093F9011092D40161E082E1B8
:1004C0000E94BE0161E083E10E94BE01E9EBF0E021
:1004D00080818E7F808380818D7F808388E480937C
:1004E000B80085E48093BC000895CF93DF9391E03A
:1004F00090934E018823B9F0C091B800D091BA0012
:100500008091BC008A7B8093BC0060E082E10E9405
:10051000BE0160E083E10E94BE010E945702D093B9
:10052000BA00C093B800DF91CF910895CF92DF92C7
:10053000EF92FF920F931F93CF93DF93D0912302FB
:1005400081E0D13208F09CC0C09122020E940A02D0
:100550006B017C018091FA0181116CC082E0809373
:10056000FA0181E08093F9018FEF8093F8011092F6
:10057000F701D093F601A2E0B2E0E6EDF1E080E011
:10058000D8138DC01092D5018091D501CC0FC82B06
:10059000C093D5018091D401813009F084C01092BC
:1005A000D4010E940A026B017C018091D5018093E5
:1005B000BB008091FC019091FD01A091FE01B091E2
:1005C000FF01892B8A2B8B2BA1F00E940A0200913C
:1005D000FC011091FD012091FE013091FF016C1989
:1005E0007D098E099F09061717072807390708F4A0
:1005F00042C08091BC0083FDD8CF85EC8093BC00C5
:100600000E940A026B017C018091FA01823009F498
:100610004CC08091F8018F3F09F469C08091F801C6
:10062000803209F466C08091F801803309F463C018
:1006300084E026C08091FC019091FD01A091FE0113
:10064000B091FF01892B8A2B8B2B09F483CF0E9459
:100650000A020091FC011091FD012091FE013091F0
:10066000FF016C197D098E099F09061717072807D6
:10067000390708F06FCF8091FB010E94750285E079
:10068000109201021092230210920002DF91CF918A
:100690001F910F91FF90EF90DF90CF9008959D9163
:1006A00091938F5F6DCF85EEA9CF8091FC019091E2
:1006B000FD01A091FE01B091FF01892B8A2B8B2BAC
:1006C00009F4A2CF0E940A020091FC011091FD01E1
:1006D0002091FE013091FF016C197D098E099F095F
:1006E000061717072807390708F08ECFC4CF80E018
:1006F000C7CF82E0C5CF83E0C3CF0895E091A001CA
:1007000080919F01E81730F4F0E0EF55FE4F8081B3
:1007100090E008958FEF9FEF08959091A001809150
:100720009F012FEF3FEF981748F4E92FF0E0EF55C6
:10073000FE4F208130E09F5F9093A001C901089592
:1007400080919F019091A001891B990B0895CF92F0
:10075000DF92EF92FF920F931F93CF93DF937C0171
:10076000CB018A0120910002222389F0EB016B0169
:10077000C40ED51ECC15DD0569F06991D701ED9148
:10078000FC910190F081E02DC7010995F3CF642F12
:100790000E943002C801DF91CF911F910F91FF900D
:1007A000EF90DF90CF900895CF93DF931F92CDB756
:1007B000DEB76983209100022223F9F02091230201
:1007C000203258F021E030E0FC013383228390E0B6
:1007D00080E00F90DF91CF91089580910102E82F82
:1007E000F0E0EE5FFD4F998190838F5F809301026F
:1007F0008093230281E090E0ECCF61E0CE0101968E
:100800000E943002F7CF90E080E00895FC01019053
:100810000020E9F73197AF01481B590BBC018DEC63
:1008200092E00C94A800FC0180819181009711F066
:100830000C944B0C0895CF92DF92EF92FF920F939E
:100840001F93CF93DF93CDB7DEB761970FB6F894C0
:10085000DEBF0FBECDBF8C01CB01F801118210822B
:1008600013821282158214824AE09E012F5F3F4F4D
:100870006901B9010E94480BF60101900020E9F7D7
:1008800031977F01EC18FD08F80180819181009774
:1008900029F0228133812E153F0590F4B7016F5F57
:1008A0007F4F0E94D40CF801009799F091838083C8
:1008B000F382E28224813581232B11F4FC01108222
:1008C000F801F582E482B601808191810E949A0D3F
:1008D0000DC080819181009711F00E944B0CF801AE
:1008E00011821082158214821382128261960FB6D1
:1008F000F894DEBF0FBECDBFDF91CF911F910F9156
:10090000FF90EF90DF90CF900895CF93DF93EC01AD
:1009100060E08E810E94BE0161E08E810E94BE0176
:1009200060E08E810E94BE018BE891E00197F1F7B3
:10093000DF91CF910895CF92DF92EF92FF920F93C4
:100940001F93CF93DF936C017C0187E0E80EF11CCD
:10095000D0E0C0E0062F10E0B8010C2E02C0759563
:1009600067950A94E2F76170F70181917F010E9417
:10097000BE012196C430D10579F7C601DF91CF9130
:100980001F910F91FF90EF90DF90CF900C94850412
:10099000CF92DF92EF92FF920F931F93CF93DF934B
:1009A000EC01F62E642F8C810E94BE018D818F3F59
:1009B00019F060E00E94BE010F2D10E08F8584FFCA
:1009C00025C06E0187E0C80ED11CF12CE12CB801C6
:1009D0000E2C02C0759567950A94E2F76170F601D6
:1009E00081916F010E94BE01FFEFEF1AFF0A88E0BC
:1009F000E816F10461F7CE01DF91CF911F910F91BD
:100A0000FF90EF90DF90CF900C948504B80184E0C4
:100A1000759567958A95E1F7CE010E949B046F2D2D
:100A2000CE01DF91CF911F910F91FF90EF90DF905A
:100A3000CF900C949B0440E0682F8DEC92E00C94D6
:100A4000C804CF93DF93823029F49091DC02986040
:100A50009093DC028093E0021092E10280E48093A4
:100A6000E20280E18093E30280E58093E4028091DA
:100A7000D1020E9487008091D2028F3F11F00E9424
:100A800087008091D3020E948700CDECD2E09E01C6
:100A90002D5C32408091DC0284FD0AC084E090E04D
:100AA0002196281739073CF48E810E948700EFCFEA
:100AB00088E090E0F5CF8BE39DE00197F1F760E0EF
:100AC0008091D1020E94BE0160E08091D3020E9419
:100AD000BE018091D2028F3F19F060E00E94BE01FA
:100AE0008091DC0284FD39C063E08DEC92E00E94CD
:100AF0009B04CBE4D6E4CE010197F1F763E08DECE3
:100B000092E00E949B042197F1F763E08DEC92E064
:100B10000E949B0483E592E00197F1F762E08DEC7F
:100B200092E00E949B048091DC0280620E941B057F
:100B300084E08093DD028CE00E941B0581E00E942E
:100B40001B058BE39FE10197F1F782E08093DE02C2
:100B500086E0DF91CF910C941B0580620E941B05FB
:100B60008BE496E40197F1F78091DC0280620E94A9
:100B70001B0583E592E00197F1F78091DC0280622A
:100B80000E941B05D0CF41E00E94C80481E090E0A4
:100B9000089585ED8093BC008091FC019091FD014A
:100BA000A091FE01B091FF010796A11DB11D23E0A8
:100BB000B695A795979587952A95D1F72091BC0072
:100BC00024FD03C01092FA0108954091FC01509158
:100BD000FD016091FE017091FF01452B462B472BD3
:100BE00069F30097A105B10541F025E32A95F1F7D6
:100BF00000000197A109B109E1CF8091FB010C949C
:100C000075021F920F920FB60F9211242F933F93EC
:100C10004F935F936F937F938F939F93AF93BF9304
:100C2000EF93FF9384E292E00E942F01FF91EF91F6
:100C3000BF91AF919F918F917F916F915F914F91F4
:100C40003F912F910F900FBE0F901F9018951F92FC
:100C50000F920FB60F9211242F938F939F93EF93C0
:100C6000FF93E0913402F09135028081E0913A02E5
:100C7000F0913B0282FD1BC0908180913D028F5F0D
:100C80008F7320913E02821741F0E0913D02F0E027
:100C9000EC5DFD4F958F80933D02FF91EF919F9109
:100CA0008F912F910F900FBE0F901F9018958081FC
:100CB000F4CF1F920F920FB60F9211242F933F93F0
:100CC0008F939F93AF93BF938091930190919401E1
:100CD000A0919501B09196013091920123E0230FEC
:100CE0002D3758F50196A11DB11D209392018093D7
:100CF000930190939401A0939501B09396018091F4
:100D0000970190919801A0919901B0919A01019653
:100D1000A11DB11D8093970190939801A093990113
:100D2000B0939A01BF91AF919F918F913F912F9175
:100D30000F900FBE0F901F90189526E8230F029674
:100D4000A11DB11DD2CF1F920F920FB60F92112489
:100D50002F933F934F935F936F937F938F939F93C3
:100D6000AF93BF93EF93FF938091B900887F803654
:100D700009F44AC0F0F5883209F4A7C018F58031AB
:100D800009F49BC0B8F4882309F4F9C0883009F449
:100D900094C0FF91EF91BF91AF919F918F917F91FF
:100DA0006F915F914F913F912F910F900FBE0F90D8
:100DB0001F901895883109F488C0803251F78093CC
:100DC000F80114C0803409F49DC040F48033B9F3B5
:100DD0008833F9F68093F80185ECB0C0803509F4CA
:100DE00085C0883509F496C0883499F60E94C905F3
:100DF000D0CF883909F48CC038F5883729F050F401
:100E0000883611F0803729F683E08093FA0110923A
:100E1000910157C0883809F47BC0803919F08038B7
:100E200009F0B7CF80919101803208F071C0E09154
:100E3000910181E08E0F809391018091BB00F0E0E1
:100E4000EF58FE4F80833DC0803B39F0E0F4803A9C
:100E500009F479C0883A09F09CCF84E08093FA01C4
:100E60001092700110926F01E0919D01F0919E012E
:100E7000099580916F0181110FC081E080936F010E
:100E800010924F0109C0803C09F4A6CF883C09F4B8
:100E9000A3CF883B09F07DCFE091700181E08E0FF8
:100EA00080937001F0E0E15BFE4F80818093BB0096
:100EB0009091700180916F0129C08091D50180933C
:100EC000BB0085EC8093BC0064CF9091F7018091CA
:100ED000F601981758F5E091F70181E08E0F8093A5
:100EE000F701F0E0EA52FE4F8081E9CFE091F7018F
:100EF00081E08E0F8093F7018091BB00F0E0EA5211
:100F0000FE4F80839091F7018091F6019817C8F207
:100F100085E8D8CFE091F70181E08E0F8093F7014B
:100F20008091BB00F0E0EA52FE4F80838091F9018E
:100F300081115CCF81E08093D40184EA8093BC006E
:100F40001092FA0126CF85EC8093BC001092FA0132
:100F500080919101803230F4E0919101F0E0EF58FE
:100F6000FE4F10826091910170E0E0919B01F09141
:100F70009C0181E791E00995109291010ACF1092AE
:100F8000F80134CFE4E2F2E01382128288EE93E0BB
:100F9000A0E0B0E084839583A683B7832AE031E0A4
:100FA0003183208325EC30E03587248724EC30E042
:100FB0003787268720EC30E0318B208B21EC30E026
:100FC000338B228B22EC30E0358B248B26EC30E007
:100FD000378B268B118E128E138E148EE1ECF2E07D
:100FE0001382128284839583A683B7838CE191E078
:100FF00091838083EDECF2E0138212828EE291E025
:10100000918380838CE084838FEF85838BE086835C
:1010100085E0878384E0808783E0818782E0828720
:101020001386148615861686178681E00C94210592
:10103000CF93DF9300D000D000D0CDB7DEB7789447
:1010400084B5826084BD84B5816084BD85B58260CD
:1010500085BD85B5816085BD80916E00816080937E
:101060006E001092810080918100826080938100E7
:1010700080918100816080938100809180008160F7
:10108000809380008091B10084608093B100809152
:10109000B00081608093B00080917A00846080937A
:1010A0007A0080917A00826080937A0080917A0041
:1010B000816080937A0080917A00806880937A00C2
:1010C0001092C1001092A00110929F011092010293
:1010D000109223020E94570286EA90E090939E01AC
:1010E00080939D0187EA90E090939C0180939B01FF
:1010F000E0913402F091350282E08083E091300289
:10110000F09131021082E0913202F09133028FECC3
:10111000808310923C02E0913802F091390286E01F
:101120008083E0913602F091370280818061808374
:10113000E0913602F0913702808188608083E091EF
:101140003602F0913702808180688083E091360218
:10115000F091370280818F7D808382E00E9421059B
:1011600081E08093000288E68093220260E081ECB7
:1011700092E00E94D40360E081EC92E00E94D403EC
:1011800065E181EC92E00E94D40362E681EC92E09A
:101190000E94D40363E081EC92E00E94D40362E2F7
:1011A00081EC92E00E94D40366E081EC92E00E9420
:1011B000D40360E281EC92E00E94D4030E94960284
:1011C00022242394BBE3AB2EBFE1BB2E10E0812E83
:1011D00010E0912E0AE02092000228E620932202DD
:1011E000109201021092230260E081EC92E00E94D2
:1011F000D4030E9496020E940A026B017C01809136
:10120000FA01811164C02092FA012092F9018FEF56
:101210008093F8011092F70126E02093F6012092C6
:10122000D5018091D501806D8093D5018091D40145
:10123000813009F000C21092D4010E940A026B01B1
:101240007C018091D5018093BB008091FC0190913D
:10125000FD01A091FE01B091FF01892B8A2B8B2B00
:10126000A1F00E940A024090FC015090FD016090A4
:10127000FE017090FF016C197D098E099F094616C9
:1012800057066806790608F443C08091BC0083FDC8
:10129000D8CF85EC8093BC000E940A026B017C01D0
:1012A0008091FA01813009F4CAC18091F701873039
:1012B00008F0E7C18091F701A6EDB1E0E1EAF1E0C5
:1012C00090E0981751F12D9121939F5FFACF809173
:1012D000FC019091FD01A091FE01B091FF01892BCD
:1012E0008A2B8B2B09F48BCF0E940A024090FC01C1
:1012F0005090FD016090FE017090FF016C197D0916
:101300008E099F09461657066806790608F077CFBA
:101310008091FB010E94750280E01092A0018093F1
:101320009F0181EC92E00E948D03482E382EE894B4
:1013300037F83092C60181EC92E00E948D03682E4E
:10134000582EE89457F85092C50181EC92E00E9423
:101350008D03182F8F73782E8093C40181EC92E057
:101360000E948D0387708093C30181EC92E00E94FC
:101370008D03D82E282F2F73C22E2093C20181EC0B
:1013800092E00E948D03F82E8F71E82E8093C101A8
:1013900081EC92E00E948D03432D50E024E05595AE
:1013A00047952A95E1F7049FB001059F700D112420
:1013B000242D2F70260F372F311D3093CF0120930E
:1013C000CE01452D50E034E0559547953A95E1F72B
:1013D000049FB001059F700D1124262D2F70260F3C
:1013E000372F311D3093D1012093D001412F4F7100
:1013F00050E064E0559547956A95E1F7049F9001A8
:10140000059F300D11241F70210F311D3093D30122
:101410002093D201272D30E075E0359527957A95F8
:10142000E1F72093CD014C2D50E0E4E05595479530
:10143000EA95E1F7049FB001059F700D11242D2D51
:101440002F70260F372F311D3093CC012093CB0105
:101450004E2D50E0F4E055954795FA95E1F7049F3D
:10146000B001059F700D11242F2D2F70260F372FDF
:10147000311D3093CA012093C9019C01A4E0359528
:101480002795AA95E1F72F703327029FA001039FAC
:10149000500D11248F70840F952F911D9093C801CA
:1014A0008093C70186E391E00E9406046091D20117
:1014B0007091D301CE0101960E941B04CE010196CA
:1014C0000E94D500CE0101960E9413048DE391E0A5
:1014D0000E9406046091D0017091D101CE01019665
:1014E0000E941B04CE0101960E94D500CE010196F8
:1014F0000E9413048DE391E00E9406046091CE01E6
:101500007091CF01CE0101960E941B04CE0101967D
:101510000E94D500CE0101960E9413048BE391E056
:101520000E9406048091CD01882309F4ACC08FE3AA
:1015300091E00E940604E091E002E23008F0A6C0CB
:10154000E150F0E0E353FD4F848980680E941B0561
:1015500085E491E00E9406046091CB017091CC017A
:10156000CE0101960E941B04CE0101960E94D50077
:10157000CE0101960E9413048CE491E00E940604BF
:101580006091C9017091CA01CE0101960E941B04AD
:10159000CE0101960E94D500CE0101960E9413044F
:1015A0008CE491E00E9406046091C7017091C8012B
:1015B000CE0101960E941B04CE0101960E94D50027
:1015C000CE0101960E9413040E940A022B013C01E5
:1015D00088EEC82E83E0D82EE12CF12C0E940A025E
:1015E0006419750986099709683E7340810591055C
:1015F000A8F321E0C21AD108E108F10888EE480EEC
:1016000083E0581E611C711CC114D104E104F10473
:1016100029F781E00E941B05C5010197F1F78114AC
:10162000910409F4D8CD0E941B01882309F4D2CD7E
:101630000E940000CFCD25EE2093BC002DCE8091DE
:10164000FC019091FD01A091FE01B091FF01892B59
:101650008A2B8B2B09F424CE0E940A024090FC01B5
:101660005090FD016090FE017090FF016C197D09A2
:101670008E099F09461657066806790608F010CEAF
:1016800047CE87E019CE82E491E053CFE1E059CF15
:10169000BB27FB015527AA27880F991FAA1FA4174C
:1016A00010F0A41B83955051B9F7A05DAA3308F040
:1016B000A95DA193009779F7B111B1931192CB0174
:1016C0000C94620BDC01FC01672F71917723E1F729
:1016D000329704C07C916D9370836291AE17BF07FF
:1016E000C8F308952F923F924F925F926F927F922C
:1016F0008F929F92AF92BF92CF92DF92EF92FF9222
:101700000F931F93CF93DF93CDB7DEB7CA1BDB0BCD
:101710000FB6F894DEBF0FBECDBF09942A88398872
:1017200048885F846E847D848C849B84AA84B98479
:10173000C884DF80EE80FD800C811B81AA81B98185
:10174000CE0FD11D0FB6F894DEBF0FBECDBFED0199
:101750000895EE0FFF1F0590F491E02D09940F936B
:101760001F93CF93DF938230910510F482E090E0D5
:10177000E091E702F091E80230E020E0B0E0A0E084
:10178000309799F42115310509F44AC0281B390B0B
:1017900024303105D8F58A819B816115710589F165
:1017A000FB0193838283FE0111C04081518102813C
:1017B000138148175907E0F04817590799F4109713
:1017C00061F012960C93129713961C933296CF01E8
:1017D000DF91CF911F910F9108950093E70210932D
:1017E000E802F4CF2115310551F04217530738F0C4
:1017F000A901DB019A01BD01DF01F801C1CFEF01B1
:10180000F9CF9093E8028093E702CDCFFE01E20F7B
:10181000F31F819391932250310939832883D7CFC5
:101820002091E5023091E602232B41F42091020140
:10183000309103013093E6022093E50220910001EC
:10184000309101012115310541F42DB73EB740918A
:10185000040150910501241B350BE091E502F09144
:10186000E602E217F307A0F42E1B3F0B28173907F7
:1018700078F0AC014E5F5F4F2417350748F04E0FEC
:101880005F1F5093E6024093E502819391939FCFAF
:10189000F0E0E0E09CCFCF93DF930097E9F0FC010C
:1018A000329713821282A091E702B091E802ED0113
:1018B00030E020E01097A1F420813181820F931F46
:1018C0002091E5023091E6022817390709F061C03E
:1018D000F093E602E093E502DF91CF910895EA01EB
:1018E000CE17DF07E8F54A815B819E01411551055E
:1018F000B1F7E901FB83EA8349915991C40FD51FE0
:10190000EC17FD0761F4808191810296840F951F89
:10191000E90199838883828193819B838A83F0E0A4
:10192000E0E012968D919C9113970097B9F52D9157
:101930003C911197CD010296820F931F2091E502F1
:101940003091E6022817390739F6309751F5109291
:10195000E8021092E702B093E602A093E502BCCF42
:10196000D383C28340815181840F951FC817D90743
:1019700061F44E5F5F4F88819981480F591F5183F1
:1019800040838A819B81938382832115310509F0ED
:10199000B0CFF093E802E093E7029ECFFD01DC01B7
:1019A000C0CF13821282D7CFB0E0A0E0EAEDFCE016
:1019B0000C94740B8C01009751F4CB010E94AF0B77
:1019C0008C01C801CDB7DEB7E0E10C94900BFC01AF
:1019D000E60FF71F9C0122503109E217F30708F4C4
:1019E0009DC0D901CD91DC911197C617D70798F00A
:1019F000C530D10530F3CE0104978617970708F359
:101A0000C61BD70B2297C193D1936D937C93CF01C3
:101A10000E944B0CD6CF5B01AC1ABD0A4C018C0E58
:101A20009D1EA091E702B091E802512C412CF12CAF
:101A3000E12C109731F58091E5029091E60288152E
:101A4000990509F05CC04616570608F058C0809109
:101A5000000190910101009741F48DB79EB740912C
:101A6000040150910501841B950BE817F90708F054
:101A700055C0F093E602E093E502F90171836083BB
:101A8000A0CF8D919C91119712966C9012971396FE
:101A90007C901397A815B90559F56C0142E0C40E66
:101AA000D11CCA14DB0420F1AC014A195B09DA012C
:101AB0001296159780F06282738251834083D90118
:101AC0006D937C93E114F10471F0D7011396FC93AC
:101AD000EE93129776CF22968C0F9D1FF90191837A
:101AE0008083F301EFCFF093E802E093E70269CF40
:101AF0004816590608F42C017D01D3019ACFCB0179
:101B00000E94AF0B7C01009749F0AE01B8010E9422
:101B1000910DC8010E944B0C870153CF10E000E0EB
:101B200050CFFB01DC0102C001900D9241505040AA
:101B3000D8F70895FB01DC0101900D920020E1F738
:061B40000895F894FFCFA8
:101B46000000E9028000000000005101A800DE004C
:101B56009E010F01ED00010100000000D403A70360
:101B660003047D03A0038D037E0300000000C3056C
:101B7600A80003042F0254494D453A20003A00506C
:0E1B86004D00414D00444154453A20002D00D1
:00000001FF
