:100000000C9462000C948A000C948A000C948A0070
:100010000C948A000C948A000C942D110C948A0084
:100020000C948A000C948A000C948A000C948A0028
:100030000C948A000C948A000C948A000C948A0018
:100040000C9489040C948A000C94F9040C94D30445
:100050000C948A000C948A000C948A000C948A00F8
:100060000C948A000C948A000000000023002600F3
:10007000290000000000240027002A0000000000E2
:10008000250028002B0004040404040404040202D4
:100090000202020203030303030301020408102007
:1000A0004080010204081020010204081020000012
:1000B0000008000201000003040700000000000027
:1000C0000000181211241FBECFEFD8E0DEBFCDBF55
:1000D00011E0A0E0B1E0E2EBF7E202C005900D9282
:1000E000AA36B107D9F722E0AAE6B1E001C01D9215
:1000F000AC39B207E1F710E0C2E6D0E004C02197C6
:10010000FE010E949512C136D107C9F70E94301135
:100110000C94D7130C940000AF92BF92CF92DF9251
:10012000EF92FF920F931F93CF93DF936C017B01AC
:100130008B01040F151FEB015E01AE18BF08C0173D
:10014000D10759F06991D601ED91FC910190F081B0
:10015000E02DC6010995892B79F7C501DF91CF9173
:100160001F910F91FF90EF90DF90CF90BF90AF90D5
:100170000895FC01538D448D252F30E0842F90E0AD
:10018000821B930B541710F0CF9608950197089592
:10019000FC01918D828D981761F0A28DAE0FBF2F5B
:1001A000B11D5D968C91928D9F5F9F73928F90E0B1
:1001B00008958FEF9FEF0895FC01918D828D981720
:1001C00031F0828DE80FF11D858D90E008958FEF5D
:1001D0009FEF0895FC01918D228D892F90E0805C26
:1001E0009F4F821B91098F739927089587E791E0AC
:1001F0000E94EA0021E0892B09F420E0822F089573
:100200000E94F60081110C940000089580E090E0B7
:10021000892B11F00C9400010895FC01A48DA80F06
:10022000B92FB11DA35ABF4F2C91848D90E0019638
:100230008F739927848FA689B7892C93A089B18958
:100240008C91837080648C93938D848D981306C0F9
:100250000288F389E02D80818F7D80830895EF925D
:10026000FF920F931F93CF93DF93EC0181E0888F70
:100270009B8D8C8D98131AC0E889F989808185FF40
:1002800015C09FB7F894EE89FF896083E889F989E2
:1002900080818370806480839FBF81E090E0DF91E4
:1002A000CF911F910F91FF90EF900895F62E0B8D37
:1002B00010E00F5F1F4F0F731127E02E8C8D8E11F2
:1002C0000CC00FB607FCFACFE889F989808185FF59
:1002D000F5CFCE010E940D01F1CFEB8DEC0FFD2F7C
:1002E000F11DE35AFF4FF0829FB7F8940B8FEA8914
:1002F000FB8980818062CFCFCF93DF93EC01888D23
:100300008823B9F0AA89BB89E889F9898C9185FD90
:1003100003C0808186FD0DC00FB607FCF7CF8C911E
:1003200085FFF2CF808185FFEDCFCE010E940D01C8
:10033000E9CFDF91CF910895833081F028F48130A7
:1003400099F08230A9F008958730A9F08830C9F07B
:100350008430B1F4809180008F7D03C08091800053
:100360008F7780938000089584B58F7784BD08953A
:1003700084B58F7DFBCF8091B0008F778093B000E4
:1003800008958091B0008F7DF9CF1F93CF93DF93B5
:10039000282F30E0F901E255FF4F8491F901E6562C
:1003A000FF4FD491F901EA57FF4FC491CC23A9F034
:1003B000162F81110E949C01EC2FF0E0EE0FFF1F21
:1003C000E458FF4FA591B4918FB7F894EC911111B7
:1003D00008C0D095DE23DC938FBFDF91CF911F91B2
:1003E0000895DE2BF8CFCF93DF9390E0FC01E65623
:1003F000FF4F24918A579F4FFC0184918823D1F0AD
:1004000090E0880F991FFC01EE58FF4FA591B49121
:10041000FC01E458FF4FC591D49161110EC09FB704
:10042000F8948C91E22FE0958E238C932881E2231F
:10043000E8839FBFDF91CF9108958FB7F894EC9137
:10044000E22BEC938FBFF6CFE0913E02F0913F029A
:100450008081811107C08FEF9FEF90932D028093D1
:100460002C020895E0913E02F0913F020580F68152
:10047000E02D0680F781E02D82819381EECFC0E4EC
:10048000CC24CA9483E0D82EE12CF12C8091700109
:10049000909171010E947E0A813029F5C0937C0001
:1004A00080917A00806480937A0080917A0086FD42
:1004B000FCCF80917800A0917900BA2FA82F2FEF60
:1004C00030E00E949B12A70196010E9445123093D2
:1004D0006F0120936E0170E060E080917001909157
:1004E00071010E941E0981E090E00E94150CCECFA0
:1004F00061E083E00E94F3018091700190917101AD
:100500000E947E0A813099F480916C0190916D0176
:1005100061E0019709F060E083E00E94C50170E0AE
:1005200060E080917001909171010E941E0981E04C
:1005300090E00E94150CE0CF61E08DE00E94F30195
:1005400080917001909171010E947E0A8130C1F406
:1005500061E08DE00E94C5018DE790E00E94150CDE
:1005600060E08DE00E94C5018DE790E00E94150CCF
:1005700070E060E080917001909171010E941E090D
:1005800081E090E00E94150CDBCF60E082E00E94E9
:10059000F301C0EBD0E00CE910E098E8E92E90E020
:1005A000F92E80917001909171010E947E0A813034
:1005B00029F5FE018491F801C490F701D490DD2063
:1005C00011F181110E949C01ED2DF0E0EE0FFF1F53
:1005D000E859FF4FA591B4918C91C82291E080E039
:1005E00009F490E090936C0180936D0170E060E0FD
:1005F00080917001909171010E941E0981E090E04C
:100600000E94150CCECF90E080E0ECCF00E010E02F
:100610008091740181110CC080917302823010F0BE
:100620000E9448070115110599F30E940001F0CFBF
:100630000FB6F8940F92E0914E02F0914F02C681EE
:10064000D781CE0102960E94790580916F02815078
:1006500080936F02809174018150809374010F9098
:100660000FBE8F89988D0E94E90DCE010E94E90D81
:10067000CFCF0F931F93CF93DF93E0918701F0913A
:10068000880182E08083E0918301F09184011082EF
:10069000E0918501F09186018FEC808310928F01AB
:1006A000E0918B01F0918C0186E08083E0918901DB
:1006B000F0918A01808180618083E0918901F091CD
:1006C0008A01808188608083E0918901F0918A01AC
:1006D000808180688083E0918901F0918A01808126
:1006E0008F7D808361E083E00E94F30160E08EE013
:1006F0000E94F30161E084E00E94F30180917001A7
:1007000090917101892B21F58FE190E00E94A90F52
:10071000EC01009791F09983888381E08B8F1C8E88
:10072000CE010E9418071D821C82198218821E8227
:1007300070E060E0CE010E941E09D0937101C09369
:100740007001209729F070E060E0CE010E941E0940
:1007500010E000E021E040E850E068E171E085EC65
:1007600092E00E94C70F21E040E850E064E271E0AF
:1007700088E792E00E94C70F21E040E850E061E383
:1007800071E08CE992E00E94C70F21E040E850E060
:100790006BE371E08FE392E00E94C70F21E040E835
:1007A00050E06AE471E08CED93E00E94C70FDF91A6
:1007B000CF911F910F910895CF93DF93CDB7DEB7FF
:1007C000A1970FB6F894DEBF0FBECDBF8AE0882E8A
:1007D000912CA12CB12C92EBE92E90E0F92E809176
:1007E0007001909171010E947E0A813009F046C02B
:1007F00020916E0130916F0150E040E019A28E010E
:100800000F5D1F4FCA01B901A50194010E94641236
:10081000605DF80162938F01211531054105510595
:1008200089F7309761F001900020E9F73197AF0127
:10083000401B510BB80187E791E00E948C0042E019
:1008400050E06AE571E087E791E00E948C0000913A
:100850006E0110916F0161E084E00E94F3010115C7
:10086000110589F460E084E00E94C50170E060E059
:1008700080917001909171010E941E0981E090E0C9
:100880000E94150CACCF0F3F110511F461E0EBCFC6
:10089000F7018491833019F140F48130B1F0823056
:1008A000C9F00038110594F7DDCF873011F1883099
:1008B00041F18430B1F780918000806280938000A4
:1008C00010938B0000938A00D1CF84B5806884BDDB
:1008D00007BDCCCF84B5806284BD08BDC7CF8091F1
:1008E00080008068809380001093890000938800C6
:1008F000BDCF8091B00080688093B0000093B300BA
:10090000B5CF8091B00080628093B0000093B400B6
:10091000ADCF1F920F920FB60F9211242F933F93DA
:100920008F939F93AF93BF9380913502909136023E
:10093000A0913702B09138023091340223E0230FA6
:100940002D3758F50196A11DB11D209334028093D7
:10095000350290933602A0933702B093380280910B
:10096000300290913102A0913202B091330201968F
:10097000A11DB11D8093300290933102A0933202E9
:10098000B0933302BF91AF919F918F913F912F917F
:100990000F900FBE0F901F90189526E8230F029618
:1009A000A11DB11DD2CF1F920F920FB60F9211242D
:1009B0002F933F934F935F936F937F938F939F9367
:1009C000AF93BF93EF93FF9387E791E00E940D01F0
:1009D000FF91EF91BF91AF919F918F917F916F9117
:1009E0005F914F913F912F910F900FBE0F901F90ED
:1009F00018951F920F920FB60F9211242F938F9379
:100A00009F93EF93FF93E0918701F091880180819C
:100A1000E0918D01F0918E0182FD1BC0908180914B
:100A200090018F5F8F7320919101821741F0E091C7
:100A30009001F0E0E958FE4F958F80939001FF916F
:100A4000EF919F918F912F910F900FBE0F901F905C
:100A500018958081F4CFFC01DB010FB6F8940F925A
:100A600040917002509171022D913C9111972F3F4E
:100A70003207E1F081819281609172027081761774
:100A800019F048175907C0F4481B590B4217530770
:100A900088F4241B350B2D933C9380917202808344
:100AA00080917002909171029283818380E00F9017
:100AB0000FBE08951D921C9281E0F9CF0FB6F894F5
:100AC0000F9280917002909171020F900FBE089565
:100AD000809139028F5F8093390208950FB6F894A0
:100AE0000F92FC01928D0F900FBE81E0911180E07A
:100AF0000895CF93DF93FC01A085B1858281938116
:100B000024813581EC013D832C83C481D5819B8375
:100B10008A8311968D919C9112978E179F0721F4CD
:100B20001296DC93CE931197118610868C9181508A
:100B30008C938C91DF91CF910895CF93DF939C019B
:100B4000FB01DC011196CD91DC91D383C2838C81B2
:100B50009D81958384838C819D81DC0113967C9398
:100B60006E9312977D836C8331872087F901808192
:100B70008F5F8083DF91CF9108950F931F93CF9361
:100B8000DF93DC011596ED91FC91C681D7818E0132
:100B9000045F1F4FC8010E947905809139028111BD
:100BA00025C00A501109C8010E9479058E899091CB
:100BB0009702981710F480939702B9E08B9FC001B9
:100BC0001124B8018D589D4F0E949D05E0916A0146
:100BD000F0916B019E898689891760F481E080938A
:100BE0007301DF91CF911F910F910895B80182E5B4
:100BF00092E0EACF80E0F5CFEF92FF920F931F9340
:100C0000CF93DF93EC010FB6F8940F921E8D7C0109
:100C100081E1E80EF11C01E01116D4F08FEF8E8F08
:100C20000F900FBE0FB6F8940F921D8D7E0188E0D5
:100C3000E80EF11C01E01116B4F08FEF8D8F0F90CC
:100C40000FBEDF91CF911F910F91FF90EF9008950C
:100C50008989882319F3C7010E94BD05811100937A
:100C600073011150D9CF8885882339F3C7010E94B9
:100C7000BD058111009373011150DDCF0F931F93B8
:100C8000CF93DF938C01FB0180819181D801139672
:100C90008F3F9807F1F4E801AF81B88512968D91E6
:100CA0009C91139793838283EC01FD83EC83B5833E
:100CB000A4831396FC93EE93129711870087F80193
:100CC00080818F5F8083DF91CF911F910F91089575
:100CD000D90112962D913C911397E90148815981D0
:100CE00084179507A8F7DACFFC0173836283918795
:100CF00080874617570790F0421B530B84859585D4
:100D000048175907C8F4BF016E5F7F4F80911402E6
:100D1000909115020E943E0680E008954217530705
:100D200018F46217730740F4BF016E5F7F4F809124
:100D3000160290911702EECF81E00895FF920F9373
:100D40001F93CF93DF93EC01F62E00917002109168
:100D5000710280916A0190916B0102960E9479055F
:100D6000CF3FDC0789F4FF2079F060916A01709130
:100D70006B016E5F7F4F80E492E0DF91CF911F9116
:100D80000F91FF900C949D05C00FD11FE0916A0157
:100D9000F0916B01D383C28360916A0170916B0102
:100DA000C017D10768F480913C0290913D026E5FBC
:100DB0007F4FDF91CF911F910F91FF900C943E06D2
:100DC00080913E0290913F026E5F7F4F0E943E06EF
:100DD00080912C0290912D02C817D90720F4D0934E
:100DE0002D02C0932C02DF91CF911F910F91FF90A4
:100DF0000895CF93DF93EB0160916A0170916B01CD
:100E0000645F7F4F0E943E0661E0CE01DF91CF918B
:100E10000C949E06FC010396928381832FEF3FEF93
:100E200034832383968385839087878310820895F4
:100E3000CF93DF93EC010FB6F8940F9288819981DC
:100E40002B8D4C8DBC01249F600D711D11247D8361
:100E50006C831A8E9B838A832150330B429FB0018F
:100E6000439F700D1124860F971F9F838E838FEFF2
:100E70008D8F8E8FCE0108960E940A07CE01419673
:100E80000E940A070F900FBE81E0DF91CF91089575
:100E90000F920FB6F8940F921F9211242F923F9247
:100EA0004F925F926F927F928F929F92AF92BF927A
:100EB000CF92DF92EF92FF920F931F932F933F9366
:100EC0004F935F936F937F938F939F93AF93BF9352
:100ED000CF93DF93EF93FF93A0916A01B0916B01E1
:100EE0000DB60D920EB60D9280913902882321F035
:100EF00081E0809373015FC010927301A0916A0139
:100F0000B0916B01E0916A01F0916B012D913C91E0
:100F10008789908D82179307A8F080916A0190913C
:100F20006B0180916A0190916B01259A2D9A2FEFA8
:100F300087EA91E6215080409040E1F700C0000030
:100F40001D9AF5CF2091970289E001C02150422FD0
:100F500050E0849FF001859FF00D1124ED58FD4F66
:100F60009081992399F3A181B28112960D90BC9141
:100F7000A02DB283A183289FC00111248A589D4FC0
:100F8000A817B90729F412968D919C9192838183B9
:100F900089E0849FF001859FF00D1124ED58FD4FED
:100FA0000180F281E02D8681978190936B0180937F
:100FB0006A0120939702A0916A01B0916B01CD91D3
:100FC000CDBFDD91DEBFFF91EF91DF91CF91BF915A
:100FD000AF919F918F917F916F915F914F913F91D1
:100FE0002F911F910F91FF90EF90DF90CF90BF90C6
:100FF000AF909F908F907F906F905F904F903F90B9
:101000002F901F900F900FBE0F9008958F929F9278
:10101000AF92BF92CF92DF92EF92FF920F931F9306
:10102000CF93DF930FB6F8940F92809139028150DD
:101030008093390280913902882381F080E00F90FB
:101040000FBEDF91CF911F910F91FF90EF90DF9036
:10105000CF90BF90AF909F908F90089580916F0236
:10106000882361F3D0E0C0E029E0F22EEE24E3947F
:1010700029C0E0915702F0915802C681D781CE0174
:101080000C960E9479058E010E5F1F4FC8010E94C9
:1010900079058E8990919702981710F480939702A2
:1010A0008F9DC0011124B8018D589D4F0E949D0550
:1010B000E0916A01F0916B019E898689981710F082
:1010C000E0927301809152028111D3CFCD2B11F0A8
:1010D0000E942402E0907201EE2009F451C089E0E0
:1010E000982E88248394CC24CA94DC2C80913902D5
:1010F00081119DC0C0917002D09171022196D09350
:101100007102C09370022097B9F480913E029091D1
:101110003F0220913C0230913D0230933F022093E8
:101120003E0290933D0280933C02809172028F5F59
:10113000809372020E94240280912C0290912D02D1
:10114000F12CC817D90708F066C0E0916A01F09148
:101150006B01E6899E9EF0011124ED58FD4F8081C0
:10116000823010F0FF24F39480917301811101C04B
:10117000F11080927301EA94E110B8CF10927201DD
:1011800080917301882309F459CF0E94480781E0B8
:1011900056CFE0913E02F0913F020580F681E02DAE
:1011A00006811781D80112968D919C91C817D90795
:1011B00028F490932D0280932C02C7CF5801B2E0FF
:1011C000AB0EB11CC5010E947905F801848995898F
:1011D000892B21F0C8010C960E947905D8015696FA
:1011E0008C9190919702981710F480939702899DA3
:1011F000C0011124B5018D589D4F0E949D05E091BD
:101200006A01F0916B01D80156969C9186899817D6
:1012100010F0FF24F394E0913E02F0913F028081B0
:101220008111B7CFD0922D02C0922C028ECF809127
:1012300072018F5F80937201F12C96CFAF92BF92B3
:10124000DF92EF92FF920F931F93CF93DF9300D023
:1012500000D01F92CDB7DEB78C017B011D821C82AE
:1012600080E0580128E0A20EB11C0FB6F8940F924E
:10127000F801228D938D291708F077C0D28C448D08
:10128000411159C080819181892B11F080E009C002
:10129000E480F580E114F10419F580E0F80115828D
:1012A0001482D394F801D28E9189992321F0C80138
:1012B00041960E94BD0581110E9448070F900FBE04
:1012C00081E00F900F900F900F900F90DF91CF91D2
:1012D0001F910F91FF90EF90DF90BF90AF90089516
:1012E000F70182A1815082A3268991A12917A9F231
:1012F0008111D3CF5701F2E0AF0EB11CC5010E949E
:101300007905F70181A1868B24E030E0281B3109A3
:101310003587248790919702981710F4809397024D
:10132000F9E08F9FC0011124B5018D589D4F0E9497
:101330009D0581E0B3CF50E0B701828193810E9487
:10134000C713F801848D22813381820F932F911D61
:1013500093838283248135818217930708F496CF83
:10136000808191819383828391CF2C813D81232B36
:1013700021F40F900FBE80E0A4CF811109C08091AD
:101380007202898380917002909171029B838A839B
:101390000F900FBE0E9468050FB6F8940F92F801E7
:1013A000858D8F3F09F4158EF801868D8F3F09F4E6
:1013B000168E0F900FBEBE016C5F7F4FCE0101965F
:1013C0000E942B05811120C00FB6F8940F92F801EE
:1013D000928D838D0F900FBE981310C06C817D810C
:1013E000C5010E94F906C8010E94FC050E9406087A
:1013F000811102C00E94480781E037CFC8010E94D6
:10140000FC050E940608F8CFC8010E94FC050E9456
:101410000608B1CFCF93DF9300D000D01F92CDB795
:10142000DEB79C0180913A0290913B020097B9F09F
:1014300019827B836A833D832C8320916E02BE01D7
:101440006F5F7F4F2111209139020E941E090F907A
:101450000F900F900F900F90DF91CF91089580E043
:10146000F6CFEF92FF920F931F93CF93DF93E0910C
:101470001602F09117028081811113C0809114022D
:10148000909115029093170280931602F093150223
:10149000E0931402DF91CF911F910F91FF90EF9095
:1014A00008950580F681E02D00811181C681D781E4
:1014B0007E0182E0E80EF11CC7010E947905E889EF
:1014C000F989CE0109958A8982FFD1CF8C859D85C6
:1014D000800F911F0817190760F49B838A83D987AF
:1014E000C887B70180911602909117020E943E06AC
:1014F000BECFB801CE010E940A0AB9CF7F928F9267
:101500009F92AF92BF92CF92DF92EF92FF920F9392
:101510001F93CF93DF9300D000D01F92CDB7DEB7DB
:101520008C0185E090E09D838C83F12C90E0580144
:1015300021E1A20EB11C89E0782E24E0822E912CAC
:101540000FB6F8940F92D8015A968C915A97882327
:1015500009F440C081505A968C935A978D919C9172
:10156000892BA1F480916A0190916B01892B39F04C
:10157000E0916A01F0916B0182A18F5F82A380915B
:101580006A0190916B01F80195838483D8011896C4
:101590008C91882339F0C80108960E94BD058111FD
:1015A0000E9448070F900FBEFF24F3948F2D0F90D9
:1015B0000F900F900F900F90DF91CF911F910F918F
:1015C000FF90EF90DF90CF90BF90AF909F908F9063
:1015D0007F9008952C813D81232B21F40F900FBE25
:1015E000F12CE4CF911109C080917202898380911E
:1015F0007002909171029B838A830F900FBE0E94AC
:1016000068050FB6F8940F92F801858D8F3F09F4A5
:10161000158ED8015E968C915E978F3F11F45E9681
:101620001C920F900FBEBE016C5F7F4FCE010196E2
:101630000E942B0581118AC0C8010E946E05882373
:1016400009F47EC0F80180819181892B09F052C094
:101650000FB6F8940F92C480D580C114D10409F458
:101660006DC0F6018689E0916A01F0916B0196895F
:10167000891708F057C0D6011C962D913C911D97F3
:1016800037FD0CC0E0916A01F0916B0196899401DD
:10169000291B31091D963C932E931C97879DC001F1
:1016A00011248D589D4FF60122853385281739075F
:1016B00089F57601F2E0EF0EF11CC7010E94790571
:1016C000E0916A01F0916B018689D60156968C9360
:1016D00090919702981710F480939702879DC0010C
:1016E0001124B7018D589D4F0E949D05FF24F3944E
:1016F0000F900FBE6C817D81C5010E94F906C80163
:101700000E94FC050E940608811102C00E94480741
:1017100091E016CFE0916A01F0916B018689F601A4
:10172000868BE4CFE0916A01F0916B01FF24F39482
:10173000D60191969C9186899817D0F2F12CD8CF3A
:10174000C8010E94FC050E940608E2CFC8010E9461
:10175000FC050E940608C8010E946E058823C1F29C
:10176000FF2009F423CF0FB6F8940F92F801818976
:10177000882309F458C00688F789E02D908184E019
:10178000891BD80114960D911C910115110509F4BE
:1017900025CFF80191A1981708F4982FD8015696F3
:1017A0008C915697981709F419CF92962C9192978D
:1017B000213009F013CF56969C9356971C962D9185
:1017C0003C911D9737FD08C024E030E0291B31090A
:1017D0001D963C932E931C97B9E08B9FC00111245A
:1017E0008D589D4FF801228533852817390709F058
:1017F000F5CE7801F2E0EF0EF11CC7010E947905E9
:10180000D80156968C9190919702981710F4809376
:101810009702B9E08B9FC0011124B7018D589D4FED
:101820000E949D05DBCE80E0ACCFCF93DF93EC012F
:101830000E94680560E0CE010E949E060E94060894
:10184000811102C00E944807DF91CF9108950F9245
:101850000FB6F8940F921F9211242F923F924F923D
:101860005F926F927F928F929F92AF92BF92CF9230
:10187000DF92EF92FF920F931F932F933F934F931B
:101880005F936F937F938F939F93AF93BF93CF9308
:10189000DF93EF93FF93A0916A01B0916B010DB6B6
:1018A0000D920EB60D9213BE809139028111F2C0D5
:1018B00080917002909171020196909371028093D1
:1018C0007002009799F520913E0230913F024091BD
:1018D0003C0250913D0250933F0240933E023093B0
:1018E0003D0220933C02209172022F5F20937202EE
:1018F000E0913E02F0913F022081211107C02FEFBD
:101900003FEF30932D0220932C0210C0E0913E0255
:10191000F0913F020580F681E02D0680F781E02DF1
:101920002281338130932D0220932C0220912C02AE
:1019300030912D028217930710F420E09BC020E025
:1019400019E0E0913E02F0913F023081311107C071
:101950008FEF9FEF90932D0280932C028BC0E0912C
:101960003E02F0913F020580F681E02D0680F7816E
:10197000E02D428153818417950728F450932D025E
:1019800040932C0277C0AF014E5F5F4FA285B385B5
:1019900064817581E680F780EB01FD82EC82C6816F
:1019A000D7817B836A8311966D917C91129746173C
:1019B000570721F41296DC93CE9311971386128663
:1019C0003C9131503C933C91A489B5891097F9F032
:1019D00066857785E088F188EB01FD82EC82C0891D
:1019E000D1897B836A831196ED90FC901297BF0199
:1019F000645F7F4FE616F70621F41296DC93CE93D0
:101A00001197158A148A3C9131503C933C91A689D8
:101A1000309197023A1710F4A09397021A9FD001C1
:101A20001124BD016D587D4F7B01DB011196CD91D5
:101A3000DC91D583C4836C817D81778366836C81DF
:101A40007D81DB0113965C934E9312975D834C83EB
:101A5000F386E286E70138813F5F3883A0916A010F
:101A6000B0916B01468956963C91431708F469CFB3
:101A700021E067CFE0916A01F0916B01E689D9E03E
:101A8000ED9FF0011124ED58FD4F8081823040F030
:101A900021E006C0809172018F5F8093720120E087
:101AA00080917301811103C0222309F467C08091E2
:101AB0003902882321F081E0809373015FC0109286
:101AC0007301A0916A01B0916B01E0916A01F091FC
:101AD0006B012D913C918789908D82179307A8F017
:101AE00080916A0190916B0180916A0190916B01E4
:101AF000259A2D9A2FEF67EA71E6215060407040D9
:101B0000E1F700C000001D9AF5CF2091970289E00F
:101B100001C02150422F50E0849FF001859FF00DBD
:101B20001124ED58FD4F9081992399F3A181B28141
:101B300012960D90BC91A02DB283A183289FC00165
:101B400011248A589D4FA817B90729F412968D9130
:101B50009C919283818389E0849FF001859FF00DA1
:101B60001124ED58FD4F0180F281E02D868197818F
:101B700090936B0180936A0120939702A0916A0170
:101B8000B0916B01CD91CDBFDD91DEBFFF91EF91A3
:101B9000DF91CF91BF91AF919F918F917F916F9185
:101BA0005F914F913F912F911F910F91FF90EF9077
:101BB000DF90CF90BF90AF909F908F907F906F906D
:101BC0005F904F903F902F901F900F900FBE0F90FF
:101BD0000895CF93DF93009751F0EC010E946805C0
:101BE000CE010E943E13DF91CF910C940608DF9145
:101BF000CF910895CF93DF93CDB7DEB72A970FB675
:101C0000F894DEBF0FBECDBFE0911602F09117022F
:101C1000F08010E000E0FF2029F00580F681E02D43
:101C2000008111810E9468050E945E056C0180910F
:101C3000750190917601C816D90608F07CC00E9403
:101C4000310AD0927601C09275010E940608009177
:101C50003A0210913B021A86198680E06801B1E1D0
:101C6000CB0ED11C0FB6F8940F92F801F28CFF2026
:101C700009F418C1448D4423C1F050E08681978156
:101C8000840F951F9783868324813581821793075C
:101C900020F08081918197838683D80116966D917B
:101CA0007C91CE0101960E94C713FA94F801F28E3E
:101CB0008085882339F0C80108960E94BD058111EE
:101CC0000E9448070F900FBED980D7FCC0CF0C816F
:101CD0001D81D8011A968D919C91892B21F0C80104
:101CE00002960E9479050E945E057C018091750133
:101CF00090917601E816F90610F40E94310AF092EC
:101D00007601E0927501B9E0BD1508F4A0CFED2D84
:101D1000DD0CFF0BEF56F14FD80152968C910C94CD
:101D20009512150F150F150F4D0F380F470F150F83
:101D3000150F4D0F380FD0927601C0927501FF201C
:101D400099F1C016D106C0F10E940608E091160272
:101D5000F09117020580F681E02DE680F780C7013B
:101D600002960E947905D70152968C91529782FF74
:101D700017C01C966D917C91600F711F9801A60190
:101D8000C7010E947406882321F0B801C7010E9490
:101D90000A0AD7015096ED91FC91C701099557CFDA
:101DA0008E7FF701828BF5CFE0911402F09115023E
:101DB0008081BB24B3948111B12CE0903A02F09061
:101DC0003B020FB6F8940F92F701858D8F3F09F40F
:101DD000158ED7015E968C915E978F3F11F45E96BB
:101DE0001C920F900FBEF701828D811114C060917B
:101DF0006A0170916B01645F7F4FC70141960E9439
:101E00009D05C8018C199D09BB2011F08FEF9FEF34
:101E10006B2D0E949E06C7010E94FC050E940608C9
:101E2000811115CF0E94480712CF8160F801828B83
:101E3000CA80DB80648575856C0D7D1D9601A701C8
:101E4000C8010E947406882309F401CFD801509676
:101E5000ED91FC91C8010995F801828982FFF7CEC6
:101E6000648575856C0D7D1DC8010E940A0AEFCE40
:101E70008160F801828B6A817B81758764876E0D32
:101E80007F1D9701A701C8010E947406E0CE81FD65
:101E900004C0C8010E94E90DDACE8E7FD8015296A7
:101EA0008C93D5CE29853A85232B19F40F900FBE3C
:101EB000ABCE811109C0809172028E838091700235
:101EC0009091710298878F830F900FBE0E946805D2
:101ED0000FB6F8940F92D8015D968C915D978F3F65
:101EE00011F45D961C92F801868D8F3F09F4168ED1
:101EF0000F900FBEBE01675F7F4FCE0106960E9416
:101F00002B0581111BC0C8010E946E05882381F03A
:101F100069857A85C6010E94F906C8010E94FC0500
:101F20000E940608811102C00E94480781E09ACEF3
:101F3000C8010E94FC050E940608F8CFC8010E9453
:101F4000FC050E940608C8010E946E05882371F3F3
:101F50005BCECF93DF93EC010E946805CE010E9417
:101F6000A212EC010E940608209769F4259A2D9A86
:101F70002FEF80E792E0215080409040E1F700C0D1
:101F800000001D9AF5CFCE01DF91CF9108957F9289
:101F90008F929F92AF92BF92CF92DF92EF92FF9279
:101FA0000F931F93CF93DF93982EA92E762E872E13
:101FB0007A01B22ECA010E94A90F6C01892B09F483
:101FC0002BC188E290E00E94A90FEC01892B09F453
:101FD00020C1D88ECF8AA70165EA70E0C6010E94B1
:101FE000D01321E0E21AF108EF89F88DEE0DFF1D04
:101FF000672D782DCE0149969B01285F3F4FDB016D
:102000004D91BD01DC014D93CD01AB014150510912
:10201000DA014C91442319F06217730781F718A273
:10202000BE8AB9A21AA21B861A861D8A1C8AD98763
:10203000C88784E090E08B1991099D878C87DB8BA2
:10204000CA8B1BA21CA21DA21EA21FA291E19083FB
:10205000DF01119782E28C93119723E32C93119760
:102060009C921197AC9211971C92119720E82C9397
:1020700011971C92119722E02C93119723E02C9337
:10208000119724E02C93119725E02C93119726E0CB
:102090002C93119727E02C93119728E02C931197FC
:1020A00029E02C93119720E12C9311979C93119781
:1020B00092E19C93119793E19C93119794E19C93E7
:1020C000119795E19C93119796E19C93119797E155
:1020D0009C93119798E19C93119799E19C93119788
:1020E00090E29C93119791E29C9311978C93119796
:1020F00083E28C9311971C9211971C92119786E2A0
:102100008C93119787E28C93119788E28C931197A7
:1021100089E28C93119780E38C93119781E38C93E0
:10212000B697F983E8830115110519F0F801D183F9
:10213000C0830FB6F8940F9280916F028F5F8093E7
:102140006F0280916A0190916B01892B09F073C035
:10215000D0936B01C0936A0180916F02813081F549
:1021600083E792E00E940A078CE792E00E940A0748
:1021700085E892E00E940A078EE892E00E940A0732
:1021800084E692E00E940A078BE592E00E940A072B
:1021900082E592E00E940A0789E492E00E940A0721
:1021A00080E492E00E940A0784E692E090933F0266
:1021B00080933E028BE592E090933D0280933C0237
:1021C00080916D028F5F80936D028E89909197024E
:1021D000981710F480939702F9E08F9FC0011124A3
:1021E000BE016E5F7F4F8D589D4F0E949D050F90E1
:1021F0000FBE80916E02882351F0E0916A01F09148
:102200006B0196898E89981710F40E94480781E027
:1022100004C0C6010E94E90D8FEFDF91CF911F919D
:102220000F91FF90EF90DF90CF90BF90AF909F9075
:102230008F907F90089580916E028111C1CFE091BF
:102240006A01F0916B019E898689981708F4B8CFCE
:10225000D0936B01C0936A01B3CF0E94270C1895ED
:10226000789484B5826084BD84B5816084BD85B571
:10227000826085BD85B5816085BD80916E0081607D
:1022800080936E0010928100809181008260809323
:102290008100809181008160809381008091800025
:1022A0008160809380008091B10084608093B10050
:1022B0008091B00081608093B00080917A0084604A
:1022C00080937A0080917A00826080937A00809176
:1022D0007A00816080937A0080917A008068809390
:1022E0007A001092C1000E9439030EE212E020E051
:1022F00040EC50E06DE571E086E093E00E94C70F8E
:10230000813009F08CC00FB6F8940F9280913A0298
:1023100090913B02892B49F581E292E00E940A07E5
:1023200088E192E00E940A0781E292E0909317020E
:102330008093160288E192E0909315028093140234
:1023400081E590E00E94A90FEC01009751F04F96B3
:10235000998388838AE08B8F85E08C8FCE010E94E1
:102360001807D0933B02C0933A020F900FBE8091A2
:102370003A0290913B02892B09F451C00AE212E023
:1023800023E045E550E062E671E08AEF9DE00E94BF
:10239000C70F813009F043C0F8942FEF3FEF30931F
:1023A0002D0220932C0280936E02109271021092E3
:1023B0007002A89588E190EC0FB6F894A8958093E8
:1023C00060000FBE90936000A0916A01B0916B0114
:1023D000CD91CDBFDD91DEBFFF91EF91DF91CF9128
:1023E000BF91AF919F918F917F916F915F914F912D
:1023F0003F912F911F910F91FF90EF90DF90CF9021
:10240000BF90AF909F908F907F906F905F904F9014
:102410003F902F901F900F900FBE0F9008950E9435
:102420003903C0E0D0E02097F1F30E940001FBCF18
:10243000E7E7F1E01382128288EE93E0A0E0B0E0DB
:1024400084839583A683B7838AE091E09183808318
:1024500085EC90E09587848784EC90E09787868769
:1024600080EC90E0918B808B81EC90E0938B828B61
:1024700082EC90E0958B848B86EC90E0978B868B3A
:10248000118E128E138E148E0895052E97FB1EF456
:1024900000940E945C1257FD07D00E94641207FC52
:1024A00003D04EF40C945C125095409530952195D4
:1024B0003F4F4F4F5F4F0895909580957095619570
:1024C0007F4F8F4F9F4F0895A1E21A2EAA1BBB1B6F
:1024D000FD010DC0AA1FBB1FEE1FFF1FA217B307F0
:1024E000E407F50720F0A21BB30BE40BF50B661F06
:1024F000771F881F991F1A9469F7609570958095CA
:1025000090959B01AC01BD01CF010895A29FB00140
:10251000B39FC001A39F700D811D1124911DB29F17
:10252000700D811D1124911D0895EE0FFF1F059060
:10253000F491E02D09940E948612B7FF0895821B42
:10254000930B08950F931F93CF93DF9382309105E0
:1025500010F482E090E0E0919A02F0919B0230E06A
:1025600020E0B0E0A0E0309799F42115310509F49E
:102570004AC0281B390B24303105D8F58A819B814C
:102580006115710589F1FB0193838283FE0111C0FE
:10259000408151810281138148175907E0F04817A3
:1025A000590799F4109761F012960C9312971396AD
:1025B0001C933296CF01DF91CF911F910F91089517
:1025C00000939A0210939B02F4CF2115310551F02C
:1025D0004217530738F0A901DB019A01BD01DF0161
:1025E000F801C1CFEF01F9CF90939B0280939A023B
:1025F000CDCFFE01E20FF31F819391932250310959
:1026000039832883D7CF2091980230919902232BC8
:1026100041F42091020130910301309399022093FB
:10262000980220910001309101012115310541F4FA
:102630002DB73EB74091040150910501241B350B85
:10264000E0919802F0919902E217F307A0F42E1B93
:102650003F0B2817390778F0AC014E5F5F4F241706
:10266000350748F04E0F5F1F509399024093980230
:10267000819391939FCFF0E0E0E09CCFCF93DF93E5
:102680000097E9F0FC01329713821282A0919A021E
:10269000B0919B02ED0130E020E01097A1F4208181
:1026A0003181820F931F209198023091990228174F
:1026B000390709F061C0F0939902E0939802DF9125
:1026C000CF910895EA01CE17DF07E8F54A815B81D3
:1026D0009E0141155105B1F7E901FB83EA83499158
:1026E0005991C40FD51FEC17FD0761F480819181CA
:1026F0000296840F951FE9019983888382819381D3
:102700009B838A83F0E0E0E012968D919C91139771
:102710000097B9F52D913C911197CD010296820F4A
:10272000931F20919802309199022817390739F6A2
:10273000309751F510929B0210929A02B093990231
:10274000A0939802BCCFD383C28340815181840F70
:10275000951FC817D90761F44E5F5F4F8881998133
:10276000480F591F518340838A819B8193838283C1
:102770002115310509F0B0CFF0939B02E0939A0246
:102780009ECFFD01DC01C0CF13821282D7CFFB01A7
:10279000DC0102C001900D9241505040D8F70895DD
:1027A000DC0101C06D9341505040E0F70895F8946A
:0227B000FFCF59
:1027B20000009C028000000000002F018C00B90084
:1027C2007C01EA00C800DC004469676974616C52EC
:1027D200656164004469676974616C577269746504
:1027E200005461736B426C696E6B005461736B4190
:1027F2006E616C6F6752656164005461736B416E08
:10280200616C6F675772697465000D0A0049444C28
:0A2812004500546D722053766300F8
:00000001FF
