:100000000C945D000C9485000C9485000C94850084
:100010000C9485000C9485000C949A0D0C9485002A
:100020000C9485000C9485000C9485000C9485003C
:100030000C9485000C9485000C9485000C9485002C
:100040000C94B8020C9485000C9428030C940203C1
:100050000C9485000C9485000C9485000C9485000C
:100060000C9485000C94850000000008000201003B
:100070000003040700000000000000000000000072
:10008000250028002B0000000000240027002A0083
:10009000040404040404040402020202020203032E
:1000A0000303030301020408102040800102040836
:1000B0001020010204081020AC0E11241FBECFEF47
:1000C000D8E0DEBFCDBF11E0A0E0B1E0ECE2F0E2AD
:1000D00002C005900D92A233B107D9F722E0A2E346
:1000E000B1E001C01D92AE35B207E1F710E0CDE5F9
:1000F000D0E004C02197FE010E94D90ECC35D10773
:10010000C9F70E949D0D0C9414100C94000090E00F
:10011000FC01EC55FF4F249180579F4FFC018491C7
:10012000882399F090E0880F991FFC01EA57FF4F50
:10013000A591B491FC01E458FF4F859194918FB73C
:10014000F894EC91E22BEC938FBF0895AF92BF929D
:10015000CF92DF92EF92FF920F931F93CF93DF9393
:100160006C017B018B01040F151FEB015E01AE18C2
:10017000BF08C017D10759F06991D601ED91FC91E4
:100180000190F081E02DC6010995892B79F7C50111
:10019000DF91CF911F910F91FF90EF90DF90CF9063
:1001A000BF90AF900895FC01538D448D252F30E012
:1001B000842F90E0821B930B541710F0CF96089574
:1001C00001970895FC01918D828D981761F0A28DA1
:1001D000AE0FBF2FB11D5D968C91928D9F5F9F7367
:1001E000928F90E008958FEF9FEF0895FC01918D1D
:1001F000828D981731F0828DE80FF11D858D90E08A
:1002000008958FEF9FEF0895FC01918D228D892F26
:1002100090E0805C9F4F821B91098F73992708950E
:1002200089E391E00E94040121E0892B09F420E098
:10023000822F08950E94100181110C9400000895EE
:1002400080E090E0892B11F00C941A010895FC01D4
:10025000A48DA80FB92FB11DA35ABF4F2C91848D27
:1002600090E001968F739927848FA689B7892C9384
:10027000A089B1898C91837080648C93938D848DD7
:10028000981306C00288F389E02D80818F7D8083DA
:100290000895EF92FF920F931F93CF93DF93EC019A
:1002A00081E0888F9B8D8C8D98131AC0E889F9891D
:1002B000808185FF15C09FB7F894EE89FF89608320
:1002C000E889F98980818370806480839FBF81E0A1
:1002D00090E0DF91CF911F910F91FF90EF900895E3
:1002E000F62E0B8D10E00F5F1F4F0F731127E02EBE
:1002F0008C8D8E110CC00FB607FCFACFE889F989F6
:10030000808185FFF5CFCE010E942701F1CFEB8DD3
:10031000EC0FFD2FF11DE35AFF4FF0829FB7F894C9
:100320000B8FEA89FB8980818062CFCFCF93DF93E7
:10033000EC01888D8823B9F0AA89BB89E889F989FD
:100340008C9185FD03C0808186FD0DC00FB607FC32
:10035000F7CF8C9185FFF2CF808185FFEDCFCE0165
:100360000E942701E9CFDF91CF91089590E0FC0131
:10037000E859FF4F2491FC01EC55FF4F3491FC01EB
:10038000E057FF4FE491EE23C9F0222339F02330E8
:1003900001F1A8F4213019F1223029F1F0E0EE0F3B
:1003A000FF1FE458FF4FA591B4918FB7F894EC91DB
:1003B000611126C030953E233C938FBF08952730AE
:1003C000A9F02830C9F0243049F7809180008F7D52
:1003D00003C0809180008F7780938000DFCF84B549
:1003E0008F7784BDDBCF84B58F7DFBCF8091B0004C
:1003F0008F778093B000D2CF8091B0008F7DF9CFFE
:100400003E2BDACFE0910302F0910402808181114A
:1004100007C08FEF9FEF9093EF018093EE01089557
:10042000E0910302F09104020580F681E02D068040
:10043000F781E02D82819381EECF61E083E00E941D
:10044000B60188E391E00E94780860E083E00E94B2
:10045000B60188E391E00E947808EFCF8DE00E941A
:10046000870061E08DE00E94B6018DE790E00E9478
:10047000780860E08DE00E94B6018DE790E00E9470
:100480007808EFCF00E010E08091360181110CC0B8
:1004900080913202823010F00E943605011511055C
:1004A00099F30E941A01F0CF0FB6F8940F92E091E1
:1004B0001302F0911402C681D781CE0102960E94E8
:1004C000A80380915902815080935902809136018E
:1004D0008150809336010F900FBE8F89988D0E94B6
:1004E0004C0ACE010E944C0ACFCF0F931F9383E09A
:1004F0000E948700E9E3F1E0A089B18982E08C9352
:10050000A485B5851C92A685B7858FEC8C93108E3B
:10051000A489B58986E08C93A289B3898C91806186
:100520008C93A289B3898C9188608C93A289B389BA
:100530008C9180688C930288F389E02D80818F7D77
:10054000808310E000E022E040E850E068E171E0E4
:100550008EE292E00E94340C21E040E850E06EE12F
:1005600071E08DE192E00E94340C1F910F9108958B
:100570001F920F920FB60F9211242F933F938F93D8
:100580009F93AF93BF938091F7019091F801A09151
:10059000F901B091FA013091F60123E0230F2D37D4
:1005A00058F50196A11DB11D2093F6018093F70126
:1005B0009093F801A093F901B093FA018091F201B0
:1005C0009091F301A091F401B091F5010196A11D64
:1005D000B11D8093F2019093F301A093F401B093C5
:1005E000F501BF91AF919F918F913F912F910F9006
:1005F0000FBE0F901F90189526E8230F0296A11D9D
:10060000B11DD2CF1F920F920FB60F9211242F93CC
:100610003F934F935F936F937F938F939F93AF938A
:10062000BF93EF93FF9389E391E00E942701FF912D
:10063000EF91BF91AF919F918F917F916F915F915A
:100640004F913F912F910F900FBE0F901F901895D3
:100650001F920F920FB60F9211242F938F939F9397
:10066000EF93FF93E0914901F0914A018081E0917D
:100670004F01F091500182FD1BC090818091520189
:100680008F5F8F7320915301821741F0E0915201E7
:10069000F0E0E75CFE4F958F80935201FF91EF9160
:1006A0009F918F912F910F900FBE0F901F901895D3
:1006B0008081F4CFFC01DB010FB6F8940F924091DA
:1006C000FE015091FF012D913C9111972F3F320770
:1006D000E1F081819281609100027081761719F0BA
:1006E00048175907C0F4481B590B4217530788F4A1
:1006F000241B350B2D933C938091000280838091C5
:10070000FE019091FF019283818380E00F900FBEE4
:1007100008951D921C9281E0F9CF0FB6F8940F92C4
:100720008091FE019091FF010F900FBE089580917E
:10073000FB018F5F8093FB0108950FB6F8940F9231
:10074000FC01928D0F900FBE81E0911180E0089521
:10075000CF93DF93FC01A085B185828193812481B1
:100760003581EC013D832C83C481D5819B838A83B1
:1007700011968D919C9112978E179F0721F41296D6
:10078000DC93CE931197118610868C9181508C93B7
:100790008C91DF91CF910895CF93DF939C01FB0162
:1007A000DC011196CD91DC91D383C2838C819D8134
:1007B000958384838C819D81DC0113967C936E9359
:1007C00012977D836C8331872087F90180818F5F49
:1007D0008083DF91CF9108950F931F93CF93DF9381
:1007E000DC011596ED91FC91C681D7818E01045FE5
:1007F0001F4FC8010E94A8038091FB01811125C0F1
:100800000A501109C8010E94A8038E8990915602CE
:10081000981710F480935602B9E08B9FC001112401
:10082000B8018E5C9D4F0E94CC03E0913201F091A3
:1008300033019E898689891760F481E080933501B0
:10084000DF91CF911F910F910895B80187E192E058
:10085000EACF80E0F5CFEF92FF920F931F93CF93F3
:10086000DF93EC010FB6F8940F921E8D7C0181E1AD
:10087000E80EF11C01E01116D4F08FEF8E8F0F906F
:100880000FBE0FB6F8940F921D8D7E0188E0E80E22
:10089000F11C01E01116B4F08FEF8D8F0F900FBE99
:1008A000DF91CF911F910F91FF90EF90089589896B
:1008B000882319F3C7010E94EC03811100933501CD
:1008C0001150D9CF8885882339F3C7010E94EC03E2
:1008D0008111009335011150DDCF0F931F93CF93FA
:1008E000DF938C01FB0180819181D80113968F3FAA
:1008F0009807F1F4E801AF81B88512968D919C912B
:10090000139793838283EC01FD83EC83B583A483E7
:100910001396FC93EE93129711870087F80180815C
:100920008F5F8083DF91CF911F910F910895D9013F
:1009300012962D913C911397E901488159818417B2
:100940009507A8F7DACFFC017383628391878087CC
:100950004617570790F0421B530B8485958548171F
:100960005907C8F4BF016E5F7F4F8091D601909107
:10097000D7010E946D0480E008954217530718F4D0
:100980006217730740F4BF016E5F7F4F8091D801FB
:100990009091D901EECF81E00895FF920F931F93BC
:1009A000CF93DF93EC01F62E0091FE011091FF0131
:1009B000809132019091330102960E94A803CF3FAB
:1009C000DC0789F4FF2079F06091320170913301E6
:1009D0006E5F7F4F85E092E0DF91CF911F910F9185
:1009E000FF900C94CC03C00FD11FE0913201F09125
:1009F0003301D383C2836091320170913301C017F8
:100A0000D10768F480910102909102026E5F7F4FDE
:100A1000DF91CF911F910F91FF900C946D04809105
:100A20000302909104026E5F7F4F0E946D048091DB
:100A3000EE019091EF01C817D90720F4D093EF0190
:100A4000C093EE01DF91CF911F910F91FF90089518
:100A5000FC010396928381832FEF3FEF348323833E
:100A60009683858390878783108208950F920FB6AF
:100A7000F8940F921F9211242F923F924F925F92FF
:100A80006F927F928F929F92AF92BF92CF92DF929E
:100A9000EF92FF920F931F932F933F934F935F9388
:100AA0006F937F938F939F93AF93BF93CF93DF9376
:100AB000EF93FF93A0913201B09133010DB60D92E7
:100AC0000EB60D928091FB01882321F081E0809386
:100AD00035015FC010923501A0913201B091330110
:100AE000E0913201F09133012D913C918789908DF5
:100AF00082179307A8F08091320190913301809181
:100B0000320190913301259A2D9A2FEF87EA91E6D1
:100B1000215080409040E1F700C000001D9AF5CFC1
:100B20002091560289E001C02150422F50E0849F5D
:100B3000F001859FF00D1124EE5CFD4F908199230B
:100B400099F3A181B28112960D90BC91A02DB28330
:100B5000A183289FC00111248B5C9D4FA817B90762
:100B600029F412968D919C919283818389E0849FD0
:100B7000F001859FF00D1124EE5CFD4F0180F281A4
:100B8000E02D8681978190933301809332012093E9
:100B90005602A0913201B0913301CD91CDBFDD91CC
:100BA000DEBFFF91EF91DF91CF91BF91AF919F9108
:100BB0008F917F916F915F914F913F912F911F91F5
:100BC0000F91FF90EF90DF90CF90BF90AF909F90EC
:100BD0008F907F906F905F904F903F902F901F90DD
:100BE0000F900FBE0F9008958F929F92AF92BF9279
:100BF000CF92DF92EF92FF920F931F93CF93DF93E9
:100C00000FB6F8940F928091FB0181508093FB0105
:100C10008091FB01882381F080E00F900FBEDF916F
:100C2000CF911F910F91FF90EF90DF90CF90BF90E9
:100C3000AF909F908F90089580915902882361F31F
:100C4000D0E0C0E029E0F22EEE24E39429C0E09148
:100C50001C02F0911D02C681D781CE010C960E9424
:100C6000A8038E010E5F1F4FC8010E94A8038E8942
:100C700090915602981710F4809356028F9DC001F0
:100C80001124B8018E5C9D4F0E94CC03E09132018B
:100C9000F09133019E898689981710F0E092350112
:100CA000809117028111D3CFCD2B11F00E94020247
:100CB000E0903401EE2009F451C089E0982E882498
:100CC0008394CC24CA94DC2C8091FB0181119DC0BB
:100CD000C091FE01D091FF012196D093FF01C093F6
:100CE000FE012097B9F480910302909104022091B3
:100CF0000102309102023093040220930302909388
:100D0000020280930102809100028F5F80930002B3
:100D10000E9402028091EE019091EF01F12CC81720
:100D2000D90708F066C0E0913201F0913301E689FD
:100D30009E9EF0011124EE5CFD4F8081823010F008
:100D4000FF24F39480913501811101C0F11080924C
:100D50003501EA94E110B8CF109234018091350149
:100D6000882309F459CF0E94360581E056CFE091DF
:100D70000302F09104020580F681E02D06811781BF
:100D8000D80112968D919C91C817D90728F4909399
:100D9000EF018093EE01C7CF5801B2E0AB0EB11C5A
:100DA000C5010E94A803F80184899589892B21F047
:100DB000C8010C960E94A803D80156968C91909178
:100DC0005602981710F480935602899DC001112491
:100DD000B5018E5C9D4F0E94CC03E0913201F091F1
:100DE0003301D80156969C918689981710F0FF24FC
:100DF000F394E0910302F091040280818111B7CF56
:100E0000D092EF01C092EE018ECF809134018F5FBE
:100E100080933401F12C96CFAF92BF92CF92DF92A4
:100E2000EF92FF920F931F93CF93DF9300D000D0E8
:100E30001F92CDB7DEB78C017B011D821C8280E042
:100E4000680128E0C20ED11C0FB6F8940F92F80189
:100E5000228D938D291708F078C0D28C448D4111D2
:100E60005AC080819181892B11F080E009C0E48013
:100E7000F580E114F10421F580E0F8011582148277
:100E8000D394F801D28E9189992321F0C80141961B
:100E90000E94EC0381110E9436050F900FBE81E085
:100EA0000F900F900F900F900F90DF91CF911F91A7
:100EB0000F91FF90EF90DF90CF90BF90AF9008958B
:100EC000F70182A1815082A3268991A12917A1F25D
:100ED0008111D2CF5701F2E0AF0EB11CC5010E94C3
:100EE000A803F70181A1868B24E030E0281B31099B
:100EF0003587248790915602981710F480935602F4
:100F0000F9E08F9FC0011124B5018E5C9D4F0E94B6
:100F1000CC0381E0B2CF50E0B701828193810E947F
:100F20000410F801848D22813381820F932F911D4B
:100F300093838283248135818217930708F495CFA8
:100F4000808191819383828390CF2C813D81232B5B
:100F500021F40F900FBE80E0A3CF811109C08091D2
:100F6000000289838091FE019091FF019B838A8317
:100F70000F900FBE0E9497030FB6F8940F92F801DE
:100F8000858D8F3F09F4158EF801868D8F3F09F40A
:100F9000168E0F900FBEBE016C5F7F4FCE01019683
:100FA0000E945A0381112AC00FB6F8940F92F801DB
:100FB000928D838D0F900FBE98131AC0AC80BD80A8
:100FC0006091320170913301645F7F4FC6010E94CE
:100FD0006D0461E0C5010E94CD04C8010E942B048C
:100FE0000E94F405811102C00E94360581E02CCFD9
:100FF000C8010E942B040E94F405F8CFC8010E948A
:101000002B040E94F405A7CFCF93DF9300D000D02C
:101010001F92CDB7DEB79C018091FC019091FD013C
:101020000097B9F019827B836A833D832C832091DA
:101030005802BE016F5F7F4F21112091FB010E947A
:101040000C070F900F900F900F900F90DF91CF91A2
:10105000089580E0F6CFEF92FF920F931F93CF9306
:10106000DF93E091D801F091D9018081811113C003
:101070008091D6019091D7019093D9018093D801A6
:10108000F093D701E093D601DF91CF911F910F919B
:10109000FF90EF9008950580F681E02D0081118189
:1010A000C681D7817E0182E0E80EF11CC7010E9453
:1010B000A803E889F989CE0109958A8982FFD1CFF1
:1010C0008C859D85800F911F0817190760F49B83FD
:1010D0008A83D987C887B7018091D8019091D901B7
:1010E0000E946D04BECFB801CE010E940408B9CFA2
:1010F000CF93DF93EC010E94970360E0CE010E9442
:10110000CD040E94F405811102C00E943605DF91D2
:10111000CF9108950F920FB6F8940F921F92112459
:101120002F923F924F925F926F927F928F929F92F7
:10113000AF92BF92CF92DF92EF92FF920F931F93E5
:101140002F933F934F935F936F937F938F939F93CF
:10115000AF93BF93CF93DF93EF93FF93A0913201AF
:10116000B09133010DB60D920EB60D9213BE809163
:10117000FB018111F2C08091FE019091FF01019667
:101180009093FF018093FE01009799F5209103024F
:1011900030910402409101025091020250930402E6
:1011A0004093030230930202209301022091000237
:1011B0002F5F20930002E0910302F091040220814E
:1011C000211107C02FEF3FEF3093EF012093EE0185
:1011D00010C0E0910302F09104020580F681E02D39
:1011E0000680F781E02D228133813093EF01209337
:1011F000EE012091EE013091EF018217930710F478
:1012000020E09BC020E019E0E0910302F09104028D
:101210003081311107C08FEF9FEF9093EF018093E2
:10122000EE018BC0E0910302F09104020580F6818B
:10123000E02D0680F781E02D4281538184179507C8
:1012400028F45093EF014093EE0177C0AF014E5F59
:101250005F4FA285B38564817581E680F780EB01DD
:10126000FD82EC82C681D7817B836A8311966D9162
:101270007C9112974617570721F41296DC93CE9370
:101280001197138612863C9131503C933C91A4896E
:10129000B5891097F9F066857785E088F188EB01CC
:1012A000FD82EC82C089D1897B836A831196ED909F
:1012B000FC901297BF01645F7F4FE616F70621F49A
:1012C0001296DC93CE931197158A148A3C91315073
:1012D0003C933C91A689309156023A1710F4A093A2
:1012E00056021A9FD0011124BD016E5C7D4F7B0117
:1012F000DB011196CD91DC91D583C4836C817D8116
:10130000778366836C817D81DB0113965C934E93BA
:1013100012975D834C83F386E286E70138813F5F55
:101320003883A0913201B0913301468956963C91A1
:10133000431708F469CF21E067CFE0913201F091C3
:101340003301E689D9E0ED9FF0011124EE5CFD4FF9
:101350008081823040F021E006C0809134018F5FAF
:101360008093340120E080913501811103C0222354
:1013700009F467C08091FB01882321F081E080930C
:1013800035015FC010923501A0913201B091330157
:10139000E0913201F09133012D913C918789908D3C
:1013A00082179307A8F080913201909133018091C8
:1013B000320190913301259A2D9A2FEF67EA71E659
:1013C000215060407040E1F700C000001D9AF5CF49
:1013D0002091560289E001C02150422F50E0849FA5
:1013E000F001859FF00D1124EE5CFD4F9081992353
:1013F00099F3A181B28112960D90BC91A02DB28378
:10140000A183289FC00111248B5C9D4FA817B907A9
:1014100029F412968D919C919283818389E0849F17
:10142000F001859FF00D1124EE5CFD4F0180F281EB
:10143000E02D868197819093330180933201209330
:101440005602A0913201B0913301CD91CDBFDD9113
:10145000DEBFFF91EF91DF91CF91BF91AF919F914F
:101460008F917F916F915F914F913F912F911F913C
:101470000F91FF90EF90DF90CF90BF90AF909F9033
:101480008F907F906F905F904F903F902F901F9024
:101490000F900FBE0F900895CF93DF93009751F0F8
:1014A000EC010E949703CE010E947B0FDF91CF9148
:1014B0000C94F405DF91CF910895CF93DF93CDB7CE
:1014C000DEB72A970FB6F894DEBF0FBECDBFE0910E
:1014D000D801F091D901F08010E000E0FF2029F060
:1014E0000580F681E02D008111810E9497030E9402
:1014F0008D036C018091370190913801C816D9068F
:1015000008F07CC00E942B08D0923801C0923701AD
:101510000E94F4050091FC011091FD011A861986C4
:1015200080E06801B1E1CB0ED11C0FB6F8940F92A8
:10153000F801F28CFF2009F418C1448D4423C1F056
:1015400050E086819781840F951F9783868324813D
:1015500035818217930720F080819181978386835C
:10156000D80116966D917C91CE0101960E940410CF
:10157000FA94F801F28E8085882339F0C801089624
:101580000E94EC0381110E9436050F900FBED98096
:10159000D7FCC0CF0C811D81D8011A968D919C91EA
:1015A000892B21F0C80102960E94A8030E948D0396
:1015B0007C018091370190913801E816F90610F40A
:1015C0000E942B08F0923801E0923701B9E0BD1576
:1015D00008F4A0CFED2DDD0CFF0BEC50F54FD8013A
:1015E00052968C910C94D90E780B780B780BB00B2B
:1015F0009B0BAA0B780B780BB00B9B0BD09238018E
:10160000C0923701FF2099F1C016D106C0F10E94A7
:10161000F405E091D801F091D9010580F681E02D23
:10162000E680F780C70102960E94A803D701529670
:101630008C91529782FF17C01C966D917C91600F20
:10164000711F9801A601C7010E94A304882321F0FD
:10165000B801C7010E940408D7015096ED91FC9192
:10166000C701099557CF8E7FF701828BF5CFE091A7
:10167000D601F091D7018081BB24B3948111B12CA4
:10168000E090FC01F090FD010FB6F8940F92F70185
:10169000858D8F3F09F4158ED7015E968C915E97EC
:1016A0008F3F11F45E961C920F900FBEF701828D52
:1016B000811114C06091320170913301645F7F4FDA
:1016C000C70141960E94CC03C8018C199D09BB201B
:1016D00011F08FEF9FEF6B2D0E94CD04C7010E9488
:1016E0002B040E94F405811115CF0E94360512CFFC
:1016F0008160F801828BCA80DB80648575856C0D02
:101700007D1D9601A701C8010E94A304882309F446
:1017100001CFD8015096ED91FC91C8010995F801CF
:10172000828982FFF7CE648575856C0D7D1DC801A9
:101730000E940408EFCE8160F801828B6A817B8170
:10174000758764876E0D7F1D9701A701C8010E94F0
:10175000A304E0CE81FD04C0C8010E944C0ADACE89
:101760008E7FD80152968C93D5CE29853A85232B2E
:1017700019F40F900FBEABCE811109C08091000209
:101780008E838091FE019091FF0198878F830F9047
:101790000FBE0E9497030FB6F8940F92D8015D9682
:1017A0008C915D978F3F11F45D961C92F801868DA8
:1017B0008F3F09F4168E0F900FBEBE01675F7F4FFB
:1017C000CE0106960E945A03811125C0C8010E94CD
:1017D0009D038823D1F0E984FA84609132017091ED
:1017E0003301645F7F4FC6010E946D0461E0C70151
:1017F0000E94CD04C8010E942B040E94F4058111AF
:1018000002C00E94360581E090CEC8010E942B04E0
:101810000E94F405F8CFC8010E942B040E94F40531
:10182000C8010E949D03882371F351CECF93DF93AB
:10183000EC010E949703CE010E94DF0EEC010E9492
:10184000F405209769F4259A2D9A2FEF80E792E00E
:10185000215080409040E1F700C000001D9AF5CF74
:10186000CE01DF91CF9108957F928F929F92AF9298
:10187000BF92CF92DF92EF92FF920F931F93CF937D
:10188000DF93982EA92E762E872E7A01B22ECA01CA
:101890000E94160C6C01892B09F42BC188E290E0A0
:1018A0000E94160CEC01892B09F420C1D88ECF8A36
:1018B000A70165EA70E0C6010E940D1021E0E21A5E
:1018C000F108EF89F88DEE0DFF1D672D782DCE0103
:1018D00049969B01285F3F4FDB014D91BD01DC0123
:1018E0004D93CD01AB0141505109DA014C91442394
:1018F00019F06217730781F718A2BE8AB9A21AA25B
:101900001B861A861D8A1C8AD987C88784E090E0C6
:101910008B1991099D878C87DB8BCA8B1BA21CA21C
:101920001DA21EA21FA291E19083DF01119782E206
:101930008C93119723E32C9311979C921197AC925F
:1019400011971C92119720E82C9311971C921197D4
:1019500022E02C93119723E02C93119724E02C93F1
:10196000119725E02C93119726E02C93119727E0EF
:101970002C93119728E02C93119729E02C93119721
:1019800020E12C9311979C93119792E19C931197CE
:1019900093E19C93119794E19C93119795E19C930B
:1019A000119796E19C93119797E19C93119798E179
:1019B0009C93119799E19C93119790E29C931197B6
:1019C00091E29C9311978C93119783E28C931197DA
:1019D0001C9211971C92119786E28C93119787E2C3
:1019E0008C93119788E28C93119789E28C931197CD
:1019F00080E38C93119781E38C93B697F983E88306
:101A00000115110519F0F801D183C0830FB6F894C0
:101A10000F92809159028F5F809359028091320119
:101A200090913301892B09F073C0D0933301C09397
:101A3000320180915902813081F582E392E00E9467
:101A400028058BE392E00E94280584E492E00E943E
:101A500028058DE492E00E94280589E292E00E9428
:101A6000280580E292E00E94280587E192E00E942A
:101A700028058EE092E00E94280585E092E00E9411
:101A8000280589E292E0909304028093030280E2A9
:101A900092E09093020280930102809157028F5F3F
:101AA000809357028E8990915602981710F4809374
:101AB0005602F9E08F9FC0011124BE016E5F7F4F77
:101AC0008E5C9D4F0E94CC030F900FBE80915802F8
:101AD000882351F0E0913201F091330196898E898B
:101AE000981710F40E94360581E004C0C6010E94D8
:101AF0004C0A8FEFDF91CF911F910F91FF90EF90E4
:101B0000DF90CF90BF90AF909F908F907F9008957F
:101B1000809158028111C1CFE0913201F0913301DF
:101B20009E898689981708F4B8CFD0933301C09363
:101B30003201B3CF0E948A081895789484B58260E8
:101B400084BD84B5816084BD85B5826085BD85B561
:101B5000816085BD80916E00816080936E001092DF
:101B6000810080918100826080938100809181005A
:101B700081608093810080918000816080938000EB
:101B80008091B10084608093B1008091B000816049
:101B90008093B00080917A00846080937A00809175
:101BA0007A00826080937A0080917A0081608093CD
:101BB0007A0080917A00806880937A001092C10048
:101BC0000E94750200EF11E020E040EC50E065E279
:101BD00071E082E492E00E94340C813009F0B3C0DD
:101BE0000FB6F8940F928091FC019091FD01892B22
:101BF00009F04FC083EE91E00E9428058AED91E044
:101C00000E94280583EE91E09093D9018093D8013A
:101C10008AED91E09093D7018093D60181E590E021
:101C20000E94160CEC01009781F14F9699838883EE
:101C30008AE08B8F85E08C8F0FB6F8940F928881A5
:101C400099812B8D4C8DBC01249F600D711D112439
:101C50007D836C831A8E9B838A832150330B429F32
:101C6000B001439F700D1124860F971F9F838E83B1
:101C70008FEF8D8F8E8FCE0108960E942805CE01A2
:101C800041960E9428050F900FBED093FD01C0938E
:101C9000FC010F900FBE8091FC019091FD01892BFA
:101CA00009F451C00CEE11E023E045E550E06AE292
:101CB00071E08DE59AE00E94340C813009F043C058
:101CC000F8942FEF3FEF3093EF012093EE018093D4
:101CD00058021092FF011092FE01A89588E190EC45
:101CE0000FB6F894A895809360000FBE90936000A3
:101CF000A0913201B0913301CD91CDBFDD91DEBF16
:101D0000FF91EF91DF91CF91BF91AF919F918F9113
:101D10007F916F915F914F913F912F911F910F9103
:101D2000FF90EF90DF90CF90BF90AF909F908F90FB
:101D30007F906F905F904F903F902F901F900F90EB
:101D40000FBE0F9008950E947502C0E0D0E020976A
:101D5000F1F30E941A01FBCFE9E3F1E01382128252
:101D600088EE93E0A0E0B0E084839583A683B783F8
:101D70008AE091E09183808385EC90E09587848769
:101D800084EC90E09787868780EC90E0918B808B45
:101D900081EC90E0938B828B82EC90E0958B848B2E
:101DA00086EC90E0978B868B118E128E138E148E9C
:101DB0000895EE0FFF1F0590F491E02D09940F9305
:101DC0001F93CF93DF938230910510F482E090E06F
:101DD000E0915C02F0915D0230E020E0B0E0A0E034
:101DE000309799F42115310509F44AC0281B390BA5
:101DF00024303105D8F58A819B816115710589F1FF
:101E0000FB0193838283FE0111C0408151810281D5
:101E1000138148175907E0F04817590799F41097AC
:101E200061F012960C93129713961C933296CF0181
:101E3000DF91CF911F910F91089500935C02109351
:101E40005D02F4CF2115310551F04217530738F0E8
:101E5000A901DB019A01BD01DF01F801C1CFEF014A
:101E6000F9CF90935D0280935C02CDCFFE01E20F2B
:101E7000F31F819391932250310939832883D7CF5F
:101E800020915A0230915B02232B41F420910201F0
:101E90003091030130935B0220935A02209100019C
:101EA000309101012115310541F42DB73EB7409124
:101EB000040150910501241B350BE0915A02F09169
:101EC0005B02E217F307A0F42E1B3F0B281739071C
:101ED00078F0AC014E5F5F4F2417350748F04E0F86
:101EE0005F1F50935B0240935A02819391939FCF5F
:101EF000F0E0E0E09CCFCF93DF930097E9F0FC01A6
:101F0000329713821282A0915C02B0915D02ED01C2
:101F100030E020E01097A1F420813181820F931FDF
:101F200020915A0230915B022817390709F061C0ED
:101F3000F0935B02E0935A02DF91CF910895EA019A
:101F4000CE17DF07E8F54A815B819E0141155105F7
:101F5000B1F7E901FB83EA8349915991C40FD51F79
:101F6000EC17FD0761F4808191810296840F951F23
:101F7000E90199838883828193819B838A83F0E03E
:101F8000E0E012968D919C9113970097B9F52D91F1
:101F90003C911197CD010296820F931F20915A0216
:101FA00030915B022817390739F6309751F51092B6
:101FB0005D0210925C02B0935B02A0935A02BCCF08
:101FC000D383C28340815181840F951FC817D907DD
:101FD00061F44E5F5F4F88819981480F591F51838B
:101FE00040838A819B81938382832115310509F087
:101FF000B0CFF0935D02E0935C029ECFFD01DC0167
:10200000C0CF13821282D7CFFB01DC0102C0019046
:102010000D9241505040D8F70895DC0101C06D93F6
:0C20200041505040E0F70895F894FFCFC5
:10202C0000005E028000000000004901A600D30001
:10203C0096010401E200F600426C696E6B00426C82
:10204C00696E6B310049444C4500546D72205376D7
:02205C0063001F
:00000001FF
