:020000040000FA
:100000000C9462000C948A000C948A000C948A0070
:100010000C948A000C948A000C944D110C948A0064
:100020000C948A000C948A000C948A000C948A0028
:100030000C948A000C948A000C948A000C948A0018
:100040000C94AD040C948A000C941D050C94F704D8
:100050000C948A000C948A000C948A000C948A00F8
:100060000C948A000C948A000000000023002600F3
:10007000290000000000240027002A0000000000E2
:10008000250028002B0004040404040404040202D4
:100090000202020203030303030301020408102007
:1000A0004080010204081020010204081020000012
:1000B0000008000201000003040700000000000027
:1000C0000000381211241FBECFEFD8E0DEBFCDBF35
:1000D00011E0A0E0B1E0E2EFF7E202C005900D927E
:1000E000A034B107D9F722E0A0E4B1E001C01D922D
:1000F000A237B207E1F710E0C2E6D0E004C02197D2
:10010000FE010E94B512C136D107C9F70E945011F5
:100110000C94F7130C940000AF92BF92CF92DF9231
:10012000EF92FF920F931F93CF93DF936C017B01AC
:100130008B01040F151FEB015E01AE18BF08C0173D
:10014000D10759F06991D601ED91FC910190F081B0
:10015000E02DC6010995892B79F7C501DF91CF9173
:100160001F910F91FF90EF90DF90CF90BF90AF90D5
:100170000895FC01538D448D252F30E0842F90E0AD
:10018000821B930B541710F0CF9608950197089592
:10019000FC01918D828D981761F0A28DAE0FBF2F5B
:1001A000B11D5D968C91928D9F5F9F73928F90E0B1
:1001B00008958FEF9FEF0895FC01918D828D981720
:1001C00031F0828DE80FF11D858D90E008958FEF5D
:1001D0009FEF0895FC01918D228D892F90E0805C26
:1001E0009F4F821B91098F73992708958DE491E0A9
:1001F0000E94EA0021E0892B09F420E0822F089573
:100200000E94F60081110C940000089580E090E0B7
:10021000892B11F00C9400010895FC01A48DA80F06
:10022000B92FB11DA35ABF4F2C91848D90E0019638
:100230008F739927848FA689B7892C93A089B18958
:100240008C91837080648C93938D848D981306C0F9
:100250000288F389E02D80818F7D80830895EF925D
:10026000FF920F931F93CF93DF93EC0181E0888F70
:100270009B8D8C8D98131AC0E889F989808185FF40
:1002800015C09FB7F894EE89FF896083E889F989E2
:1002900080818370806480839FBF81E090E0DF91E4
:1002A000CF911F910F91FF90EF900895F62E0B8D37
:1002B00010E00F5F1F4F0F731127E02E8C8D8E11F2
:1002C0000CC00FB607FCFACFE889F989808185FF59
:1002D000F5CFCE010E940D01F1CFEB8DEC0FFD2F7C
:1002E000F11DE35AFF4FF0829FB7F8940B8FEA8914
:1002F000FB8980818062CFCFCF93DF93EC01888D23
:100300008823B9F0AA89BB89E889F9898C9185FD90
:1003100003C0808186FD0DC00FB607FCF7CF8C911E
:1003200085FFF2CF808185FFEDCFCE010E940D01C8
:10033000E9CFDF91CF910895833081F028F48130A7
:1003400099F08230A9F008958730A9F08830C9F07B
:100350008430B1F4809180008F7D03C08091800053
:100360008F7780938000089584B58F7784BD08953A
:1003700084B58F7DFBCF8091B0008F778093B000E4
:1003800008958091B0008F7DF9CF1F93CF93DF93B5
:10039000282F30E0F901E255FF4F8491F901E6562C
:1003A000FF4FD491F901EA57FF4FC491CC23A9F034
:1003B000162F81110E949C01EC2FF0E0EE0FFF1F21
:1003C000E458FF4FA591B4918FB7F894EC911111B7
:1003D00008C0D095DE23DC938FBFDF91CF911F91B2
:1003E0000895DE2BF8CFCF93DF9390E0FC01E65623
:1003F000FF4F24918A579F4FFC0184918823D1F0AD
:1004000090E0880F991FFC01EE58FF4FA591B49121
:10041000FC01E458FF4FC591D49161110EC09FB704
:10042000F8948C91E22FE0958E238C932881E2231F
:10043000E8839FBFDF91CF9108958FB7F894EC9137
:10044000E22BEC938FBFF6CFE0911402F0911502EE
:100450008081811107C08FEF9FEF909303028093FB
:1004600002020895E0911402F09115020580F681D0
:10047000E02D0680F781E02D82819381EECFCF932E
:10048000DF9300D0CDB7DEB761E08DE00E94F301CD
:100490001A82198261E08DE00E94C5011A821982D8
:1004A00089819A818033954734F489819A810196B4
:1004B0009A838983F5CF60E08DE00E94C5011A829E
:1004C000198289819A818033954724F789819A819D
:1004D00001969A838983F5CF02EB10E08091460163
:1004E000909147010E94B00A8130B1F4C09144015B
:1004F000D091450161E084E00E94F301209779F4F6
:1005000060E084E00E94C50170E060E080914601F7
:10051000909147010E9450090E944209DFCFCF3FCE
:10052000D10511F461E0EDCFF8018491833019F128
:1005300040F48130B1F08230C9F0C038D10594F771
:10054000DFCF873011F1883041F18430B1F78091ED
:100550008000806280938000D0938B00C0938A00DB
:10056000D3CF84B5806884BDC7BDCECF84B580624B
:1005700084BDC8BDC9CF8091800080688093800011
:10058000D0938900C0938800BFCF8091B00080686D
:100590008093B000C093B300B7CF8091B000806269
:1005A0008093B000C093B400AFCFC0E4CC24CA9411
:1005B00083E0D82EE12CF12C8091460190914701E7
:1005C0000E94B00A813029F5C0937C0080917A00A6
:1005D000806480937A0080917A0086FDFCCF8091C0
:1005E0007800A0917900BA2FA82F2FEF30E00E9459
:1005F000BB12A70196010E9465123093450120931A
:10060000440170E060E080914601909147010E94B2
:1006100050090E944209D0CF61E083E00E94F301BB
:1006200080914601909147010E94B00A813099F46F
:10063000809142019091430161E0019709F060E0EF
:1006400083E00E94C50170E060E0809146019091D6
:1006500047010E9450090E944209E2CF00E010E0E9
:1006600080914A0181110CC080914902823010F0C2
:100670000E946C070115110599F30E940001F0CF4B
:100680000FB6F8940F92E0912402F0912502C681F2
:10069000D781CE0102960E949D058091450281502E
:1006A0008093450280914A01815080934A010F90C6
:1006B0000FBE8F89988D0E94090ECE010E94090EEF
:1006C000CFCF0F931F93CF93DF93E0915D01F09114
:1006D0005E0182E08083E0915901F0915A0110821D
:1006E000E0915B01F0915C018FEC808310926501D9
:1006F000E0916101F091620186E08083E0915F0109
:10070000F0916001808180618083E0915F01F091D0
:100710006001808188608083E0915F01F0916001D9
:10072000808180688083E0915F01F0916001808129
:100730008F7D808361E083E00E94F30160E08EE0C2
:100740000E94F30161E084E00E94F3018091460180
:1007500090914701892B21F58FE190E00E94C90F0C
:10076000EC01009791F09983888381E08B8F1C8E38
:10077000CE010E943C071D821C82198218821E82B3
:1007800070E060E0CE010E945009D0934701C09311
:100790004601209729F070E060E0CE010E945009E8
:1007A00010E000E021E040E850E068E171E084E022
:1007B00094E00E94E70F21E040E850E068E171E03A
:1007C0008CE093E00E94E70F21E040E850E064E213
:1007D00071E08FE392E00E94E70F21E040E850E0F3
:1007E00068E171E085ED92E00E94E70F21E040E8CA
:1007F00050E068E171E08CE692E00E94E70FDF9143
:10080000CF911F910F910895CF93DF93CDB7DEB7AE
:10081000A1970FB6F894DEBF0FBECDBF60E082E0B7
:100820000E94F30190EBE92E90E0F92E2CE9C22E04
:1008300020E0D22E38E8232E30E0332E4AE0442E3A
:10084000512C612C712C80914601909147010E949E
:10085000B00A813009F065C0809042019090430158
:10086000092C000CAA08BB08B7FE5EC06DE28DE43F
:1008700091E00E942F0122273327A9012819390965
:100880004A095B0919A28E010F5D1F4FCA01B90108
:10089000A30192010E948412605DF80162938F01AE
:1008A000211531054105510589F70115110561F043
:1008B00001900020E9F73197AF01401B510BB801BF
:1008C0008DE491E00E948C0042E050E06FE271E024
:1008D0008DE491E00E948C00F7018491F60114915F
:1008E000F10104910023B1F181110E949C01E02FDC
:1008F000F0E0EE0FFF1FE859FF4FA591B4918C91E6
:10090000182391E080E009F490E0909342018093F5
:10091000430170E060E080914601909147010E94A0
:1009200050090E9442098FCFA501940119A28E019E
:100930000F5D1F4FCA01B901A30192010E948412E9
:10094000605DF80162938F01211531054105510564
:1009500089F7ABCF90E080E0D8CF1F920F920FB60F
:100960000F9211242F933F938F939F93AF93BF9335
:1009700080910B0290910C02A0910D02B0910E0299
:1009800030910A0223E0230F2D3758F50196A11D5F
:10099000B11D20930A0280930B0290930C02A09346
:1009A0000D02B0930E028091060290910702A09171
:1009B0000802B09109020196A11DB11D80930602A3
:1009C00090930702A0930802B0930902BF91AF91E0
:1009D0009F918F913F912F910F900FBE0F901F907D
:1009E000189526E8230F0296A11DB11DD2CF1F92A4
:1009F0000F920FB60F9211242F933F934F935F9353
:100A00006F937F938F939F93AF93BF93EF93FF93D6
:100A10008DE491E00E940D01FF91EF91BF91AF91A4
:100A20009F918F917F916F915F914F913F912F9106
:100A30000F900FBE0F901F9018951F920F920FB638
:100A40000F9211242F938F939F93EF93FF93E09135
:100A50005D01F0915E018081E0916301F09164019C
:100A600082FD1BC09081809166018F5F8F73209102
:100A70006701821741F0E0916601F0E0E35BFE4F11
:100A8000958F80936601FF91EF919F918F912F91A8
:100A90000F900FBE0F901F9018958081F4CFFC012E
:100AA000DB010FB6F8940F92409146025091470235
:100AB0002D913C9111972F3F3207E1F08181928176
:100AC000609148027081761719F048175907C0F4F1
:100AD000481B590B4217530788F4241B350B2D93E1
:100AE0003C93809148028083809146029091470216
:100AF0009283818380E00F900FBE08951D921C9217
:100B000081E0F9CF0FB6F8940F9280914602909150
:100B100047020F900FBE089580910F028F5F809360
:100B20000F0208950FB6F8940F92FC01928D0F906A
:100B30000FBE81E0911180E00895CF93DF93FC0117
:100B4000A085B1858281938124813581EC013D832B
:100B50002C83C481D5819B838A8311968D919C912E
:100B600012978E179F0721F41296DC93CE9311975C
:100B7000118610868C9181508C938C91DF91CF914E
:100B80000895CF93DF939C01FB01DC011196CD9179
:100B9000DC91D383C2838C819D81958384838C81F6
:100BA0009D81DC0113967C936E9312977D836C83F9
:100BB00031872087F90180818F5F8083DF91CF911A
:100BC00008950F931F93CF93DF93DC011596ED915A
:100BD000FC91C681D7818E01045F1F4FC8010E941E
:100BE0009D0580910F02811125C00A501109C8018D
:100BF0000E949D058E8990916D02981710F4809344
:100C00006D02B9E08B9FC0011124B801875B9D4F35
:100C10000E94C105E0914001F09141019E898689C1
:100C2000891760F481E080934901DF91CF911F9192
:100C30000F910895B80188E292E0EACF80E0F5CF05
:100C4000EF92FF920F931F93CF93DF93EC010FB6B8
:100C5000F8940F921E8D7C0181E1E80EF11C01E0F9
:100C60001116D4F08FEF8E8F0F900FBE0FB6F89441
:100C70000F921D8D7E0188E0E80EF11C01E0111637
:100C8000B4F08FEF8D8F0F900FBEDF91CF911F913A
:100C90000F91FF90EF9008958989882319F3C70178
:100CA0000E94E1058111009349011150D9CF888537
:100CB000882339F3C7010E94E1058111009349019E
:100CC0001150DDCF0F931F93CF93DF938C01FB0166
:100CD00080819181D80113968F3F9807F1F4E80144
:100CE000AF81B88512968D919C91139793838283DF
:100CF000EC01FD83EC83B583A4831396FC93EE9300
:100D0000129711870087F80180818F5F8083DF91C0
:100D1000CF911F910F910895D90112962D913C9179
:100D20001397E9014881598184179507A8F7DACF0D
:100D3000FC0173836283918780874617570790F081
:100D4000421B530B8485958548175907C8F4BF018A
:100D50006E5F7F4F8091EA019091EB010E946206E5
:100D600080E008954217530718F46217730740F4A0
:100D7000BF016E5F7F4F8091EC019091ED01EECF4E
:100D800081E00895FF920F931F93CF93DF93EC01BF
:100D9000F62E0091460210914702809140019091F9
:100DA000410102960E949D05CF3FDC0789F4FF2098
:100DB00079F060914001709141016E5F7F4F86E153
:100DC00092E0DF91CF911F910F91FF900C94C1059C
:100DD000C00FD11FE0914001F0914101D383C28344
:100DE0006091400170914101C017D10768F4809172
:100DF0001202909113026E5F7F4FDF91CF911F918E
:100E00000F91FF900C94620680911402909115024C
:100E10006E5F7F4F0E9462068091020290910302F2
:100E2000C817D90720F4D0930302C0930202DF91C0
:100E3000CF911F910F91FF900895CF93DF93EB0116
:100E40006091400170914101645F7F4F0E94620692
:100E500061E0CE01DF91CF910C94C206FC010396B4
:100E6000928381832FEF3FEF34832383968385839F
:100E70009087878310820895CF93DF93EC010FB69C
:100E8000F8940F92888199812B8D4C8DBC01249F01
:100E9000600D711D11247D836C831A8E9B838A8360
:100EA0002150330B429FB001439F700D1124860FD8
:100EB000971F9F838E838FEF8D8F8E8FCE01089625
:100EC0000E942E07CE0141960E942E070F900FBE62
:100ED00081E0DF91CF9108950F920FB6F8940F92B1
:100EE0001F9211242F923F924F925F926F927F92A6
:100EF0008F929F92AF92BF92CF92DF92EF92FF922A
:100F00000F931F932F933F934F935F936F937F9311
:100F10008F939F93AF93BF93CF93DF93EF93FF9301
:100F2000A0914001B09141010DB60D920EB60D9207
:100F300080910F02882321F081E0809349015FC0F6
:100F400010924901A0914001B0914101E09140010E
:100F5000F09141012D913C918789908D82179307E3
:100F6000A8F08091400190914101809140019091C1
:100F70004101259A2D9A2FEF87EA91E62150804072
:100F80009040E1F700C000001D9AF5CF20916D025E
:100F900089E001C02150422F50E0849FF001859FDD
:100FA000F00D1124E75BFD4F9081992399F3A18106
:100FB000B28112960D90BC91A02DB283A183289F7F
:100FC000C0011124845B9D4FA817B90729F412961C
:100FD0008D919C919283818389E0849FF001859F0C
:100FE000F00D1124E75BFD4F0180F281E02D868139
:100FF0009781909341018093400120936D02A091CD
:101000004001B0914101CD91CDBFDD91DEBFFF9197
:10101000EF91DF91CF91BF91AF919F918F917F9190
:101020006F915F914F913F912F911F910F91FF9081
:10103000EF90DF90CF90BF90AF909F908F907F9078
:101040006F905F904F903F902F901F900F900FBE2A
:101050000F9008958F929F92AF92BF92CF92DF929E
:10106000EF92FF920F931F93CF93DF930FB6F894F5
:101070000F9280910F02815080930F0280910F0296
:10108000882381F080E00F900FBEDF91CF911F91F8
:101090000F91FF90EF90DF90CF90BF90AF909F9017
:1010A0008F90089580914502882361F3D0E0C0E0DD
:1010B00029E0F22EEE24E39429C0E0912D02F09174
:1010C0002E02C681D781CE010C960E949D058E010D
:1010D0000E5F1F4FC8010E949D058E8990916D0281
:1010E000981710F480936D028F9DC0011124B801F0
:1010F000875B9D4F0E94C105E0914001F091410145
:101100009E898689981710F0E09249018091280203
:101110008111D3CFCD2B11F00E942402E090480121
:10112000EE2009F451C089E0982E88248394CC24C1
:10113000CA94DC2C80910F0281119DC0C09146029F
:10114000D09147022196D0934702C0934602209740
:10115000B9F48091140290911502209112023091FD
:10116000130230931502209314029093130280937C
:101170001202809148028F5F809348020E942402ED
:101180008091020290910302F12CC817D90708F050
:1011900066C0E0914001F0914101E6899E9EF00118
:1011A0001124E75BFD4F8081823010F0FF24F3941F
:1011B00080914901811101C0F11080924901EA94A6
:1011C000E110B8CF1092480180914901882309F4B9
:1011D00059CF0E946C0781E056CFE0911402F09144
:1011E00015020580F681E02D06811781D80112963F
:1011F0008D919C91C817D90728F49093030280938E
:101200000202C7CF5801B2E0AB0EB11CC5010E946B
:101210009D05F80184899589892B21F0C8010C96D8
:101220000E949D05D80156968C9190916D02981759
:1012300010F480936D02899DC0011124B501875B74
:101240009D4F0E94C105E0914001F0914101D801FC
:1012500056969C918689981710F0FF24F394E0919C
:101260001402F091150280818111B7CFD092030250
:10127000C09202028ECF809148018F5F8093480117
:10128000F12C96CF0E948C0560E081E090E00E94F6
:10129000C2060E942A08811102C00E946C070895AC
:1012A000AF92BF92DF92EF92FF920F931F93CF9373
:1012B000DF9300D000D01F92CDB7DEB78C017B0149
:1012C0001D821C8280E0580128E0A20EB11C0FB6DE
:1012D000F8940F92F801228D938D291708F077C0AA
:1012E000D28C448D411159C080819181892B11F09C
:1012F00080E009C0E480F580E114F10419F580E094
:10130000F80115821482D394F801D28E9189992321
:1013100021F0C80141960E94E10581110E946C07ED
:101320000F900FBE81E00F900F900F900F900F90D5
:10133000DF91CF911F910F91FF90EF90DF90BF90C1
:10134000AF900895F70182A1815082A3268991A1CF
:101350002917A9F28111D3CF5701F2E0AF0EB11CCA
:10136000C5010E949D05F70181A1868B24E030E034
:10137000281B31093587248790916D02981710F446
:1013800080936D02F9E08F9FC0011124B501875B46
:101390009D4F0E94C10581E0B3CF50E0B70182812B
:1013A00093810E94E713F801848D22813381820F9B
:1013B000932F911D93838283248135818217930714
:1013C00008F496CF808191819383828391CF2C8181
:1013D0003D81232B21F40F900FBE80E0A4CF81111B
:1013E00009C080914802898380914602909147020A
:1013F0009B838A830F900FBE0E948C050FB6F894D2
:101400000F92F801858D8F3F09F4158EF801868DB6
:101410008F3F09F4168E0F900FBEBE016C5F7F4F99
:10142000CE0101960E944F05811120C00FB6F8949D
:101430000F92F801928D838D0F900FBE981310C0FC
:101440006C817D81C5010E941D07C8010E94200694
:101450000E942A08811102C00E946C0781E037CFE8
:10146000C8010E9420060E942A08F8CFC8010E94E5
:1014700020060E942A08B1CFCF93DF9300D000D07E
:101480001F92CDB7DEB79C0180911002909111029E
:101490000097B9F019827B836A833D832C83209166
:1014A0004402BE016F5F7F4F211120910F020E9405
:1014B00050090F900F900F900F900F90DF91CF91E8
:1014C000089580E0F6CFEF92FF920F931F93CF9392
:1014D000DF93E091EC01F091ED018081811113C067
:1014E0008091EA019091EB019093ED018093EC01E2
:1014F000F093EB01E093EA01DF91CF911F910F91FF
:10150000FF90EF9008950580F681E02D0081118114
:10151000C681D7817E0182E0E80EF11CC7010E94DE
:101520009D05E889F989CE0109958A8982FFD1CF85
:101530008C859D85800F911F0817190760F49B8388
:101540008A83D987C887B7018091EC019091ED011A
:101550000E946206BECFB801CE010E943C0AB9CFFC
:101560007F928F929F92AF92BF92CF92DF92EF9233
:10157000FF920F931F93CF93DF9300D000D01F9261
:10158000CDB7DEB78C0185E090E09D838C83F12C94
:1015900090E0580121E1A20EB11C89E0782E24E0F0
:1015A000822E912C0FB6F8940F92D8015A968C91F6
:1015B0005A97882309F440C081505A968C935A97C1
:1015C0008D919C91892BA1F48091400190914101D2
:1015D000892B39F0E0914001F091410182A18F5FA8
:1015E00082A38091400190914101F8019583848309
:1015F000D80118968C91882339F0C80108960E946A
:10160000E10581110E946C070F900FBEFF24F39437
:101610008F2D0F900F900F900F900F90DF91CF9123
:101620001F910F91FF90EF90DF90CF90BF90AF9000
:101630009F908F907F9008952C813D81232B21F4E2
:101640000F900FBEF12CE4CF911109C08091480298
:10165000898380914602909147029B838A830F90F1
:101660000FBE0E948C050FB6F8940F92F801858D7D
:101670008F3F09F4158ED8015E968C915E978F3F4F
:1016800011F45E961C920F900FBEBE016C5F7F4FEF
:10169000CE0101960E944F0581118AC0C8010E94A7
:1016A0009205882309F47EC0F80180819181892BFD
:1016B00009F052C00FB6F8940F92C480D580C114BF
:1016C000D10409F46DC0F6018689E0914001F091E2
:1016D00041019689891708F057C0D6011C962D91B3
:1016E0003C911D9737FD0CC0E0914001F091410104
:1016F00096899401291B31091D963C932E931C97C2
:10170000879DC0011124875B9D4FF601228533859B
:101710002817390789F57601F2E0EF0EF11CC701B1
:101720000E949D05E0914001F09141018689D6011A
:1017300056968C9390916D02981710F480936D02D9
:10174000879DC0011124B701875B9D4F0E94C10591
:10175000FF24F3940F900FBE6C817D81C5010E9420
:101760001D07C8010E9420060E942A08811102C09C
:101770000E946C0791E016CFE0914001F091410189
:101780008689F601868BE4CFE0914001F09141011A
:10179000FF24F394D60191969C9186899817D0F2F4
:1017A000F12CD8CFC8010E9420060E942A08E2CF5F
:1017B000C8010E9420060E942A08C8010E949205C2
:1017C0008823C1F2FF2009F423CF0FB6F8940F92BB
:1017D000F8018189882309F458C00688F789E02D2B
:1017E000908184E0891BD80114960D911C910115FC
:1017F000110509F425CFF80191A1981708F4982F45
:10180000D80156968C915697981709F419CF92964D
:101810002C919297213009F013CF56969C935697AE
:101820001C962D913C911D9737FD08C024E030E0B7
:10183000291B31091D963C932E931C97B9E08B9F71
:10184000C0011124875B9D4FF8012285338528173D
:10185000390709F0F5CE7801F2E0EF0EF11CC7016F
:101860000E949D05D80156968C9190916D02981713
:1018700010F480936D02B9E08B9FC0011124B70171
:10188000875B9D4F0E94C105DBCE80E0ACCF0F92FD
:101890000FB6F8940F921F9211242F923F924F92FD
:1018A0005F926F927F928F929F92AF92BF92CF92F0
:1018B000DF92EF92FF920F931F932F933F934F93DB
:1018C0005F936F937F938F939F93AF93BF93CF93C8
:1018D000DF93EF93FF93A0914001B09141010DB6CA
:1018E0000D920EB60D9213BE80910F028111F2C0BF
:1018F000809146029091470201969093470280930F
:101900004602009799F520911402309115024091FA
:101910001202509113025093150240931402309317
:10192000130220931202209148022F5F2093480255
:10193000E0911402F09115022081211107C02FEFD0
:101940003FEF309303022093020210C0E091140293
:10195000F09115020580F681E02D0680F781E02DDB
:1019600022813381309303022093020220910202EC
:10197000309103028217930710F420E09BC020E00F
:1019800019E0E0911402F09115023081311107C085
:101990008FEF9FEF90930302809302028BC0E09140
:1019A0001402F09115020580F681E02D0680F78182
:1019B000E02D428153818417950728F45093030248
:1019C0004093020277C0AF014E5F5F4FA285B3859F
:1019D00064817581E680F780EB01FD82EC82C6812F
:1019E000D7817B836A8311966D917C9112974617FC
:1019F000570721F41296DC93CE9311971386128623
:101A00003C9131503C933C91A489B5891097F9F0F1
:101A100066857785E088F188EB01FD82EC82C089DC
:101A2000D1897B836A831196ED90FC901297BF0158
:101A3000645F7F4FE616F70621F41296DC93CE938F
:101A40001197158A148A3C9131503C933C91A68998
:101A500030916D023A1710F4A0936D021A9FD001D5
:101A60001124BD01675B7D4F7B01DB011196CD9198
:101A7000DC91D583C4836C817D81778366836C819F
:101A80007D81DB0113965C934E9312975D834C83AB
:101A9000F386E286E70138813F5F3883A0914001F9
:101AA000B0914101468956963C91431708F469CF9D
:101AB00021E067CFE0914001F0914101E689D9E052
:101AC000ED9FF0011124E75BFD4F8081823040F0F3
:101AD00021E006C0809148018F5F8093480120E09B
:101AE00080914901811103C0222309F467C08091CC
:101AF0000F02882321F081E0809349015FC010929A
:101B00004901A0914001B0914101E0914001F09163
:101B100041012D913C918789908D82179307A8F000
:101B2000809140019091410180914001909141014B
:101B3000259A2D9A2FEF67EA71E621506040704098
:101B4000E1F700C000001D9AF5CF20916D0289E0F9
:101B500001C02150422F50E0849FF001859FF00D7D
:101B60001124E75BFD4F9081992399F3A181B28104
:101B700012960D90BC91A02DB283A183289FC00125
:101B80001124845B9D4FA817B90729F412968D91F3
:101B90009C919283818389E0849FF001859FF00D61
:101BA0001124E75BFD4F0180F281E02D8681978152
:101BB000909341018093400120936D02A0914001D8
:101BC000B0914101CD91CDBFDD91DEBFFF91EF918D
:101BD000DF91CF91BF91AF919F918F917F916F9145
:101BE0005F914F913F912F911F910F91FF90EF9037
:101BF000DF90CF90BF90AF909F908F907F906F902D
:101C00005F904F903F902F901F900F900FBE0F90BE
:101C10000895CF93DF93009751F0EC010E948C055B
:101C2000CE010E945E13DF91CF910C942A08DF91C0
:101C3000CF910895CF93DF93CDB7DEB72A970FB634
:101C4000F894DEBF0FBECDBFE091EC01F091ED0145
:101C5000F08010E000E0FF2029F00580F681E02D03
:101C6000008111810E948C050E9482056C01809187
:101C70004B0190914C01C816D90608F07CC00E9417
:101C8000630AD0924C01C0924B010E942A08009135
:101C90001002109111021A86198680E06801B1E1E4
:101CA000CB0ED11C0FB6F8940F92F801F28CFF20E6
:101CB00009F418C1448D4423C1F050E08681978116
:101CC000840F951F9783868324813581821793071C
:101CD00020F08081918197838683D80116966D913B
:101CE0007C91CE0101960E94E713FA94F801F28EDE
:101CF0008085882339F0C80108960E94E10581118A
:101D00000E946C070F900FBED980D7FCC0CF0C810A
:101D10001D81D8011A968D919C91892B21F0C801C3
:101D200002960E949D050E9482057C0180914B01D4
:101D300090914C01E816F90610F40E94630AF092A3
:101D40004C01E0924B01B9E0BD1508F4A0CFED2D98
:101D5000DD0CFF0BEF54F14FD80152968C910C948F
:101D6000B512350F350F350F6D0F580F670F350F43
:101D7000350F6D0F580FD0924C01C0924B01FF20D0
:101D800099F1C016D106C0F10E942A08E091EC0139
:101D9000F091ED010580F681E02DE680F780C70126
:101DA00002960E949D05D70152968C91529782FF10
:101DB00017C01C966D917C91600F711F9801A60150
:101DC000C7010E949806882321F0B801C7010E942C
:101DD0003C0AD7015096ED91FC91C701099557CF68
:101DE0008E7FF701828BF5CFE091EA01F091EB0154
:101DF0008081BB24B3948111B12CE0901002F0904B
:101E000011020FB6F8940F92F701858D8F3F09F4F8
:101E1000158ED7015E968C915E978F3F11F45E967A
:101E20001C920F900FBEF701828D811114C060913A
:101E3000400170914101645F7F4FC70141960E944C
:101E4000C105C8018C199D09BB2011F08FEF9FEFD0
:101E50006B2D0E94C206C7010E9420060E942A081C
:101E6000811115CF0E946C0712CF8160F801828B1F
:101E7000CA80DB80648575856C0D7D1D9601A70188
:101E8000C8010E949806882309F401CFD801509612
:101E9000ED91FC91C8010995F801828982FFF7CE86
:101EA000648575856C0D7D1DC8010E943C0AEFCECE
:101EB0008160F801828B6A817B81758764876E0DF2
:101EC0007F1D9701A701C8010E949806E0CE81FD01
:101ED00004C0C8010E94090EDACE8E7FD801529646
:101EE0008C93D5CE29853A85232B19F40F900FBEFC
:101EF000ABCE811109C0809148028E838091460249
:101F00009091470298878F830F900FBE0E948C0597
:101F10000FB6F8940F92D8015D968C915D978F3F24
:101F200011F45D961C92F801868D8F3F09F4168E90
:101F30000F900FBEBE01675F7F4FCE0106960E94D5
:101F40004F0581111BC0C8010E949205882381F0B2
:101F500069857A85C6010E941D07C8010E94200676
:101F60000E942A08811102C00E946C0781E09ACE6B
:101F7000C8010E9420060E942A08F8CFC8010E94CA
:101F800020060E942A08C8010E949205882371F346
:101F90005BCECF93DF93EC010E948C05CE010E94B3
:101FA000C212EC010E942A08209769F4259A2D9A02
:101FB0002FEF80E792E0215080409040E1F700C091
:101FC00000001D9AF5CFCE01DF91CF9108957F9249
:101FD0008F929F92AF92BF92CF92DF92EF92FF9239
:101FE0000F931F93CF93DF93982EA92E762E872ED3
:101FF0007A01B22ECA010E94C90F6C01892B09F423
:102000002BC188E290E00E94C90FEC01892B09F4F2
:1020100020C1D88ECF8AA70165EA70E0C6010E9470
:10202000F01321E0E21AF108EF89F88DEE0DFF1DA3
:10203000672D782DCE0149969B01285F3F4FDB012C
:102040004D91BD01DC014D93CD01AB0141505109D2
:10205000DA014C91442319F06217730781F718A233
:10206000BE8AB9A21AA21B861A861D8A1C8AD98723
:10207000C88784E090E08B1991099D878C87DB8B62
:10208000CA8B1BA21CA21DA21EA21FA291E19083BB
:10209000DF01119782E28C93119723E32C93119720
:1020A0009C921197AC9211971C92119720E82C9357
:1020B00011971C92119722E02C93119723E02C93F7
:1020C000119724E02C93119725E02C93119726E08B
:1020D0002C93119727E02C93119728E02C931197BC
:1020E00029E02C93119720E12C9311979C93119741
:1020F00092E19C93119793E19C93119794E19C93A7
:10210000119795E19C93119796E19C93119797E114
:102110009C93119798E19C93119799E19C93119747
:1021200090E29C93119791E29C9311978C93119755
:1021300083E28C9311971C9211971C92119786E25F
:102140008C93119787E28C93119788E28C93119767
:1021500089E28C93119780E38C93119781E38C93A0
:10216000B697F983E8830115110519F0F801D183B9
:10217000C0830FB6F8940F92809145028F5F8093D1
:1021800045028091400190914101892B09F073C073
:10219000D0934101C093400180914502813081F587
:1021A00089E492E00E942E0782E592E00E942E07C9
:1021B0008BE592E00E942E0784E692E00E942E07B3
:1021C0008AE392E00E942E0781E392E00E942E07AC
:1021D00088E292E00E942E078FE192E00E942E0793
:1021E00086E192E00E942E078AE392E09093150226
:1021F0008093140281E392E0909313028093120281
:10220000809143028F5F809343028E8990916D028B
:10221000981710F480936D02F9E08F9FC00111248C
:10222000BE016E5F7F4F875B9D4F0E94C1050F907F
:102230000FBE80914402882351F0E0914001F0915B
:10224000410196898E89981710F40E946C0781E0ED
:1022500004C0C6010E94090E8FEFDF91CF911F913C
:102260000F91FF90EF90DF90CF90BF90AF909F9035
:102270008F907F900895809144028111C1CFE091A9
:102280004001F09141019E898689981708F4B8CFE2
:10229000D0934101C0934001B3CF0E94470C1895E1
:1022A000789484B5826084BD84B5816084BD85B531
:1022B000826085BD85B5816085BD80916E0081603D
:1022C00080936E00109281008091810082608093E3
:1022D00081008091810081608093810080918000E5
:1022E0008160809380008091B10084608093B10010
:1022F0008091B00081608093B00080917A0084600A
:1023000080937A0080917A00826080937A00809135
:102310007A00816080937A0080917A00806880934F
:102320007A001092C1000E94610304E012E020E0F4
:1023300040EC50E062E371E08EE293E00E94E70F30
:10234000813009F08CC00FB6F8940F928091100282
:1023500090911102892B49F587EF91E00E942E0799
:102360008EEE91E00E942E0787EF91E09093ED01B1
:102370008093EC018EEE91E09093EB018093EA0163
:1023800081E590E00E94C90FEC01009751F04F9653
:10239000998388838AE08B8F85E08C8FCE010E94A1
:1023A0003C07D0931102C09310020F900FBE809192
:1023B000100290911102892B09F451C000E012E043
:1023C00023E045E550E067E371E08AE19EE00E948A
:1023D000E70F813009F043C0F8942FEF3FEF3093BF
:1023E000030220930202809344021092470210924B
:1023F0004602A89588E190EC0FB6F894A8958093D2
:1024000060000FBE90936000A0914001B091410127
:10241000CD91CDBFDD91DEBFFF91EF91DF91CF91E7
:10242000BF91AF919F918F917F916F915F914F91EC
:102430003F912F911F910F91FF90EF90DF90CF90E0
:10244000BF90AF909F908F907F906F905F904F90D4
:102450003F902F901F900F900FBE0F9008950E94F5
:102460006103C0E0D0E02097F1F30E940001FBCFB0
:10247000EDE4F1E01382128288EE93E0A0E0B0E098
:1024800084839583A683B7838AE091E091838083D8
:1024900085EC90E09587848784EC90E09787868729
:1024A00080EC90E0918B808B81EC90E0938B828B21
:1024B00082EC90E0958B848B86EC90E0978B868BFA
:1024C000118E128E138E148E0895052E97FB1EF416
:1024D00000940E947C1257FD07D00E94841207FCD2
:1024E00003D04EF40C947C12509540953095219574
:1024F0003F4F4F4F5F4F0895909580957095619530
:102500007F4F8F4F9F4F0895A1E21A2EAA1BBB1B2E
:10251000FD010DC0AA1FBB1FEE1FFF1FA217B307AF
:10252000E407F50720F0A21BB30BE40BF50B661FC5
:10253000771F881F991F1A9469F760957095809589
:1025400090959B01AC01BD01CF010895A29FB00100
:10255000B39FC001A39F700D811D1124911DB29FD7
:10256000700D811D1124911D0895EE0FFF1F059020
:10257000F491E02D09940E94A612B7FF0895821BE2
:10258000930B08950F931F93CF93DF9382309105A0
:1025900010F482E090E0E0917002F091710230E07E
:1025A00020E0B0E0A0E0309799F42115310509F45E
:1025B0004AC0281B390B24303105D8F58A819B810C
:1025C0006115710589F1FB0193838283FE0111C0BE
:1025D000408151810281138148175907E0F0481763
:1025E000590799F4109761F012960C93129713966D
:1025F0001C933296CF01DF91CF911F910F910895D7
:102600000093700210937102F4CF2115310551F03F
:102610004217530738F0A901DB019A01BD01DF0120
:10262000F801C1CFEF01F9CF90937102809370024E
:10263000CDCFFE01E20FF31F819391932250310918
:1026400039832883D7CF20916E0230916F02232BDC
:1026500041F4209102013091030130936F022093E5
:102660006E0220910001309101012115310541F4E4
:102670002DB73EB74091040150910501241B350B45
:10268000E0916E02F0916F02E217F307A0F42E1BA7
:102690003F0B2817390778F0AC014E5F5F4F2417C6
:1026A000350748F04E0F5F1F50936F0240936E0244
:1026B000819391939FCFF0E0E0E09CCFCF93DF93A5
:1026C0000097E9F0FC01329713821282A091700208
:1026D000B0917102ED0130E020E01097A1F420816B
:1026E0003181820F931F20916E0230916F02281763
:1026F000390709F061C0F0936F02E0936E02DF9139
:10270000CF910895EA01CE17DF07E8F54A815B8192
:102710009E0141155105B1F7E901FB83EA83499117
:102720005991C40FD51FEC17FD0761F48081918189
:102730000296840F951FE901998388838281938192
:102740009B838A83F0E0E0E012968D919C91139731
:102750000097B9F52D913C911197CD010296820F0A
:10276000931F20916E0230916F022817390739F6B6
:10277000309751F51092710210927002B0936F026F
:10278000A0936E02BCCFD383C28340815181840F5A
:10279000951FC817D90761F44E5F5F4F88819981F3
:1027A000480F591F518340838A819B819383828381
:1027B0002115310509F0B0CFF0937102E09370025A
:1027C0009ECFFD01DC01C0CF13821282D7CFFB0167
:1027D000DC0102C001900D9241505040D8F708959D
:1027E000DC0101C06D9341505040E0F70895F8942A
:1027F000FFCF000072028000000000002F018C005B
:10280000B9007C01EA00C800DC00446967697461B2
:102810006C5265616400416E616C6F675265616402
:10282000000D0A0049444C4500546D7220537663F4
:022830000000A6
:107E0000112484B714BE81FFF0D085E080938100F7
:107E100082E08093C00088E18093C10086E0809377
:107E2000C20080E18093C4008EE0C9D0259A86E02C
:107E300020E33CEF91E0309385002093840096BBD3
:107E4000B09BFECF1D9AA8958150A9F7CC24DD24C4
:107E500088248394B5E0AB2EA1E19A2EF3E0BF2EE7
:107E6000A2D0813461F49FD0082FAFD0023811F036
:107E7000013811F484E001C083E08DD089C08234E0
:107E800011F484E103C0853419F485E0A6D080C0E4
:107E9000853579F488D0E82EFF2485D0082F10E0AE
:107EA000102F00270E291F29000F111F8ED06801E7
:107EB0006FC0863521F484E090D080E0DECF843638
:107EC00009F040C070D06FD0082F6DD080E0C81688
:107ED00080E7D80618F4F601B7BEE895C0E0D1E017
:107EE00062D089930C17E1F7F0E0CF16F0E7DF06D8
:107EF00018F0F601B7BEE89568D007B600FCFDCFD4
:107F0000A601A0E0B1E02C9130E011968C91119780
:107F100090E0982F8827822B932B1296FA010C0160
:107F200087BEE89511244E5F5F4FF1E0A038BF0790
:107F300051F7F601A7BEE89507B600FCFDCF97BE46
:107F4000E89526C08437B1F42ED02DD0F82E2BD052
:107F50003CD0F601EF2C8F010F5F1F4F84911BD097
:107F6000EA94F801C1F70894C11CD11CFA94CF0C13
:107F7000D11C0EC0853739F428D08EE10CD085E9AC
:107F80000AD08FE07ACF813511F488E018D01DD067
:107F900080E101D065CF982F8091C00085FFFCCF94
:107FA0009093C60008958091C00087FFFCCF809118
:107FB000C00084FD01C0A8958091C6000895E0E648
:107FC000F0E098E1908380830895EDDF803219F02E
:107FD00088E0F5DFFFCF84E1DECF1F93182FE3DFCA
:107FE0001150E9F7F2DF1F91089580E0E8DFEE27F6
:047FF000FF270994CA
:027FFE00040479
:00000001FF
