:100000000C945D000C9485000C9485000C94850084
:100010000C9485000C9485000C94760D0C9485004E
:100020000C9485000C9485000C9485000C9485003C
:100030000C9485000C9485000C9485000C9485002C
:100040000C94A6020C9485000C9416030C94F002F8
:100050000C9485000C9485000C9485000C9485000C
:100060000C9485000C9485000000000024002700FB
:100070002A0000000000250028002B0004040404CE
:100080000404040402020202020203030303030342
:10009000010204081020408001020408102001021F
:1000A00004081020000000080002010000030407FB
:1000B0000000000000000000880E11241FBECFEFDA
:1000C000D8E0DEBFCDBF11E0A0E0B1E0E4EEFFE19B
:1000D00002C005900D92AC32B107D9F722E0ACE234
:1000E000B1E001C01D92A835B207E1F710E0CDE5FF
:1000F000D0E004C02197FE010E94B50ECC35D10797
:10010000C9F70E94790D0C94F00F0C940000E1EBFC
:10011000F0E02491EDE9F0E09491E9E8F0E0E49179
:10012000EE23C9F0222339F0233001F1A8F4213065
:1001300019F1223029F1F0E0EE0FFF1FEE58FF4FCA
:10014000A591B4912FB7F894EC91811126C09095A8
:100150009E239C932FBF08952730A9F02830C9F023
:10016000243049F7209180002F7D03C0209180002A
:100170002F7720938000DFCF24B52F7724BDDBCFEE
:1001800024B52F7DFBCF2091B0002F772093B000B6
:10019000D2CF2091B0002F7DF9CF9E2BDACFAF9236
:1001A000BF92CF92DF92EF92FF920F931F93CF9364
:1001B000DF936C017B018B01040F151FEB015E01C6
:1001C000AE18BF08C017D10759F06991D601ED915B
:1001D000FC910190F081E02DC6010995892B79F7FA
:1001E000C501DF91CF911F910F91FF90EF90DF90AC
:1001F000CF90BF90AF900895FC01538D448D252F73
:1002000030E0842F90E0821B930B541710F0CF96B0
:10021000089501970895FC01918D828D981761F0E2
:10022000A28DAE0FBF2FB11D5D968C91928D9F5FF9
:100230009F73928F90E008958FEF9FEF0895FC01D8
:10024000918D828D981731F0828DE80FF11D858D8B
:1002500090E008958FEF9FEF0895FC01918D228D1E
:10026000892F90E0805C9F4F821B91098F739927A3
:10027000089583E391E00E942D0121E0892B09F488
:1002800020E0822F08950E94390181110C94000012
:10029000089580E090E0892B11F00C9443010895BB
:1002A000FC01A48DA80FB92FB11DA35ABF4F2C91EB
:1002B000848D90E001968F739927848FA689B789E2
:1002C0002C93A089B1898C91837080648C93938DD9
:1002D000848D981306C00288F389E02D80818F7D7C
:1002E00080830895EF92FF920F931F93CF93DF9334
:1002F000EC0181E0888F9B8D8C8D98131AC0E88962
:10030000F989808185FF15C09FB7F894EE89FF8930
:100310006083E889F98980818370806480839FBFCE
:1003200081E090E0DF91CF911F910F91FF90EF90CE
:100330000895F62E0B8D10E00F5F1F4F0F731127DE
:10034000E02E8C8D8E110CC00FB607FCFACFE88919
:10035000F989808185FFF5CFCE010E945001F1CF50
:10036000EB8DEC0FFD2FF11DE35AFF4FF0829FB78D
:10037000F8940B8FEA89FB8980818062CFCFCF937D
:10038000DF93EC01888D8823B9F0AA89BB89E889BD
:10039000F9898C9185FD03C0808186FD0DC00FB663
:1003A00007FCF7CF8C9185FFF2CF808185FFEDCFE1
:1003B000CE010E945001E9CFDF91CF910895E091E5
:1003C000FD01F091FE018081811107C08FEF9FEF49
:1003D0009093E9018093E8010895E091FD01F09187
:1003E000FE010580F681E02D0680F781E02D8281F7
:1003F0009381EECFCF93DF9300D0CDB7DEB7EDE999
:10040000F0E02491E9E8F0E08491882399F090E00D
:10041000880F991FFC01E859FF4FA591B491FC0189
:10042000EE58FF4F859194918FB7F894EC91E22BA1
:10043000EC938FBF1A82198281E00E9487001A8292
:10044000198289819A818033954734F489819A8110
:1004500001969A838983F5CF80E00E9487001A82F3
:10046000198289819A818033954734F789819A81ED
:1004700001969A838983F5CF00E010E080913001E6
:1004800081110CC080912C02823010F00E94240552
:100490000115110599F30E944301F0CF0FB6F894AE
:1004A0000F92E0910D02F0910E02C681D781CE012C
:1004B00002960E94960380915302815080935302CA
:1004C000809130018150809330010F900FBE8F8951
:1004D000988D0E94280ACE010E94280ACFCF0F9340
:1004E0001F93E3E3F1E0A089B18982E08C93A485B6
:1004F000B5851C92A685B7858FEC8C93108EA48948
:10050000B58986E08C93A289B3898C9180618C93A4
:10051000A289B3898C9188608C93A289B3898C91CC
:1005200080688C930288F389E02D80818F7D8083A1
:1005300010E000E022E040E850E068E171E08AEF7E
:1005400091E00E94100C1F910F9108951F920F923D
:100550000FB60F9211242F933F938F939F93AF93D6
:10056000BF938091F1019091F201A091F301B091BC
:10057000F4013091F00123E0230F2D3758F5019657
:10058000A11DB11D2093F0018093F1019093F20120
:10059000A093F301B093F4018091EC019091ED01EF
:1005A000A091EE01B091EF010196A11DB11D8093C4
:1005B000EC019093ED01A093EE01B093EF01BF9198
:1005C000AF919F918F913F912F910F900FBE0F9000
:1005D0001F90189526E8230F0296A11DB11DD2CFBA
:1005E0001F920F920FB60F9211242F933F934F93A8
:1005F0005F936F937F938F939F93AF93BF93EF938B
:10060000FF9383E391E00E945001FF91EF91BF912E
:10061000AF919F918F917F916F915F914F913F919A
:100620002F910F900FBE0F901F9018951F920F9251
:100630000FB60F9211242F938F939F93EF93FF93F5
:10064000E0914301F09144018081E0914901F091F2
:100650004A0182FD1BC0908180914C018F5F8F7396
:1006600020914D01821741F0E0914C01F0E0ED5CEA
:10067000FE4F958F80934C01FF91EF919F918F9149
:100680002F910F900FBE0F901F9018958081F4CF7F
:10069000FC01DB010FB6F8940F924091F8015091E4
:1006A000F9012D913C9111972F3F3207E1F08181A3
:1006B00092816091FA017081761719F048175907F5
:1006C000C0F4481B590B4217530788F4241B350B01
:1006D0002D933C938091FA0180838091F801909151
:1006E000F9019283818380E00F900FBE08951D92DF
:1006F0001C9281E0F9CF0FB6F8940F928091F80127
:100700009091F9010F900FBE08958091F5018F5FD0
:100710008093F50108950FB6F8940F92FC01928D25
:100720000F900FBE81E0911180E00895CF93DF9389
:10073000FC01A085B1858281938124813581EC0102
:100740003D832C83C481D5819B838A8311968D91AF
:100750009C9112978E179F0721F41296DC93CE93EB
:100760001197118610868C9181508C938C91DF911A
:10077000CF910895CF93DF939C01FB01DC0111968B
:10078000CD91DC91D383C2838C819D8195838483B9
:100790008C819D81DC0113967C936E9312977D83EF
:1007A0006C8331872087F90180818F5F8083DF919F
:1007B000CF9108950F931F93CF93DF93DC0115968C
:1007C000ED91FC91C681D7818E01045F1F4FC80156
:1007D0000E9496038091F501811125C00A501109EC
:1007E000C8010E9496038E8990915002981710F4C8
:1007F00080935002B9E08B9FC0011124B801845D41
:100800009D4F0E94BA03E0912C01F0912D019E8929
:100810008689891760F481E080932F01DF91CF9161
:100820001F910F910895B80181E192E0EACF80E035
:10083000F5CFEF92FF920F931F93CF93DF93EC01CD
:100840000FB6F8940F921E8D7C0181E1E80EF11C29
:1008500001E01116D4F08FEF8E8F0F900FBE0FB600
:10086000F8940F921D8D7E0188E0E80EF11C01E0E6
:100870001116B4F08FEF8D8F0F900FBEDF91CF91D7
:100880001F910F91FF90EF9008958989882319F3A4
:10089000C7010E94DA03811100932F011150D9CFB3
:1008A0008885882339F3C7010E94DA0381110093F8
:1008B0002F011150DDCF0F931F93CF93DF938C0146
:1008C000FB0180819181D80113968F3F9807F1F445
:1008D000E801AF81B88512968D919C91139793830F
:1008E0008283EC01FD83EC83B583A4831396FC9390
:1008F000EE93129711870087F80180818F5F8083C4
:10090000DF91CF911F910F910895D90112962D91EA
:100910003C911397E9014881598184179507A8F7FD
:10092000DACFFC017383628391878087461757076C
:1009300090F0421B530B8485958548175907C8F4DE
:10094000BF016E5F7F4F8091D0019091D1010E94D5
:100950005B0480E008954217530718F46217730789
:1009600040F4BF016E5F7F4F8091D2019091D3011F
:10097000EECF81E00895FF920F931F93CF93DF9303
:10098000EC01F62E0091F8011091F90180912C01F3
:1009900090912D0102960E949603CF3FDC0789F4C7
:1009A000FF2079F060912C0170912D016E5F7F4FD7
:1009B0008FEF91E0DF91CF911F910F91FF900C94F9
:1009C000BA03C00FD11FE0912C01F0912D01D38308
:1009D000C28360912C0170912D01C017D10768F47A
:1009E0008091FB019091FC016E5F7F4FDF91CF9171
:1009F0001F910F91FF900C945B048091FD019091E9
:100A0000FE016E5F7F4F0E945B048091E801909130
:100A1000E901C817D90720F4D093E901C093E80190
:100A2000DF91CF911F910F91FF900895FC010396E4
:100A3000928381832FEF3FEF3483238396838583D3
:100A400090878783108208950F920FB6F8940F92C3
:100A50001F9211242F923F924F925F926F927F923A
:100A60008F929F92AF92BF92CF92DF92EF92FF92BE
:100A70000F931F932F933F934F935F936F937F93A6
:100A80008F939F93AF93BF93CF93DF93EF93FF9396
:100A9000A0912C01B0912D010DB60D920EB60D92C4
:100AA0008091F501882321F081E080932F015FC0C0
:100AB00010922F01A0912C01B0912D01E0912C01F9
:100AC000F0912D012D913C918789908D821793078C
:100AD000A8F080912C0190912D0180912C01909192
:100AE0002D01259A2D9A2FEF87EA91E6215080401B
:100AF0009040E1F700C000001D9AF5CF2091500210
:100B000089E001C02150422F50E0849FF001859F71
:100B1000F00D1124E45DFD4F9081992399F3A1819B
:100B2000B28112960D90BC91A02DB283A183289F13
:100B3000C0011124815D9D4FA817B90729F41296B1
:100B40008D919C919283818389E0849FF001859FA0
:100B5000F00D1124E45DFD4F0180F281E02D8681CE
:100B6000978190932D0180932C0120935002A091A6
:100B70002C01B0912D01CD91CDBFDD91DEBFFF9154
:100B8000EF91DF91CF91BF91AF919F918F917F9125
:100B90006F915F914F913F912F911F910F91FF9016
:100BA000EF90DF90CF90BF90AF909F908F907F900D
:100BB0006F905F904F903F902F901F900F900FBEBF
:100BC0000F9008958F929F92AF92BF92CF92DF9233
:100BD000EF92FF920F931F93CF93DF930FB6F8948A
:100BE0000F928091F50181508093F5018091F5017C
:100BF000882381F080E00F900FBEDF91CF911F918D
:100C00000F91FF90EF90DF90CF90BF90AF909F90AB
:100C10008F90089580915302882361F3D0E0C0E063
:100C200029E0F22EEE24E39429C0E0911602F0911F
:100C30001702C681D781CE010C960E9496038E01C1
:100C40000E5F1F4FC8010E9496038E89909150023B
:100C5000981710F4809350028F9DC0011124B801A1
:100C6000845D9D4F0E94BA03E0912C01F0912D010B
:100C70009E898689981710F0E0922F0180911102C9
:100C80008111D3CFCD2B11F00E94DF01E0902E0116
:100C9000EE2009F451C089E0982E88248394CC2456
:100CA000CA94DC2C8091F50181119DC0C091F8019E
:100CB000D091F9012196D093F901C093F8012097C2
:100CC000B9F48091FD019091FE012091FB013091DA
:100CD000FC013093FE012093FD019093FC01809371
:100CE000FB018091FA018F5F8093FA010E94DF017E
:100CF0008091E8019091E901F12CC817D90708F01B
:100D000066C0E0912C01F0912D01E6899E9EF001D4
:100D10001124E45DFD4F8081823010F0FF24F394B4
:100D200080912F01811101C0F11080922F01EA946E
:100D3000E110B8CF10922E0180912F01882309F481
:100D400059CF0E94240581E056CFE091FD01F0913A
:100D5000FE010580F681E02D06811781D8011296EB
:100D60008D919C91C817D90728F49093E90180933D
:100D7000E801C7CF5801B2E0AB0EB11CC5010E941B
:100D80009603F80184899589892B21F0C8010C9676
:100D90000E949603D80156968C9190915002981714
:100DA00010F480935002899DC0011124B501845D27
:100DB0009D4F0E94BA03E0912C01F0912D01D801C2
:100DC00056969C918689981710F0FF24F394E09131
:100DD000FD01F091FE0180818111B7CFD092E90130
:100DE000C092E8018ECF80912E018F5F80932E01FB
:100DF000F12C96CFAF92BF92CF92DF92EF92FF92FB
:100E00000F931F93CF93DF9300D000D01F92CDB7E5
:100E1000DEB78C017B011D821C8280E0680128E026
:100E2000C20ED11C0FB6F8940F92F801228D938D4B
:100E3000291708F078C0D28C448D41115AC08081A6
:100E40009181892B11F080E009C0E480F580E114E4
:100E5000F10421F580E0F80115821482D394F801A1
:100E6000D28E9189992321F0C80141960E94DA031C
:100E700081110E9424050F900FBE81E00F900F900A
:100E80000F900F900F90DF91CF911F910F91FF90D6
:100E9000EF90DF90CF90BF90AF900895F70182A1BF
:100EA000815082A3268991A12917A1F28111D2CF65
:100EB0005701F2E0AF0EB11CC5010E949603F70185
:100EC00081A1868B24E030E0281B310935872487F7
:100ED00090915002981710F480935002F9E08F9F80
:100EE000C0011124B501845D9D4F0E94BA0381E0C9
:100EF000B2CF50E0B701828193810E94E00FF801E8
:100F0000848D22813381820F932F911D938382835D
:100F1000248135818217930708F495CF80819181D0
:100F20009383828390CF2C813D81232B21F40F90DA
:100F30000FBE80E0A3CF811109C08091FA0189839F
:100F40008091F8019091F9019B838A830F900FBEE5
:100F50000E9485030FB6F8940F92F801858D8F3F9C
:100F600009F4158EF801868D8F3F09F4168E0F90C7
:100F70000FBEBE016C5F7F4FCE0101960E944803F9
:100F800081112AC00FB6F8940F92F801928D838DCB
:100F90000F900FBE98131AC0AC80BD8060912C01D9
:100FA00070912D01645F7F4FC6010E945B0461E078
:100FB000C5010E94BB04C8010E9419040E94E205F9
:100FC000811102C00E94240581E02CCFC8010E943B
:100FD00019040E94E205F8CFC8010E9419040E947A
:100FE000E205A7CFCF93DF9300D000D01F92CDB7FB
:100FF000DEB79C018091F6019091F7010097B9F05E
:1010000019827B836A833D832C8320915202BE0127
:101010006F5F7F4F21112091F5010E94FA060F901A
:101020000F900F900F900F90DF91CF91089580E077
:10103000F6CFEF92FF920F931F93CF93DF93E09140
:10104000D201F091D3018081811113C08091D00130
:101050009091D1019093D3018093D201F093D1016B
:10106000E093D001DF91CF911F910F91FF90EF900E
:1010700008950580F681E02D00811181C681D78118
:101080007E0182E0E80EF11CC7010E949603E88908
:10109000F989CE0109958A8982FFD1CF8C859D85FA
:1010A000800F911F0817190760F49B838A83D987E3
:1010B000C887B7018091D2019091D3010E945B044F
:1010C000BECFB801CE010E94F207B9CF0F920FB682
:1010D000F8940F921F9211242F923F924F925F9299
:1010E0006F927F928F929F92AF92BF92CF92DF9238
:1010F000EF92FF920F931F932F933F934F935F9322
:101100006F937F938F939F93AF93BF93CF93DF930F
:10111000EF93FF93A0912C01B0912D010DB60D928C
:101120000EB60D9213BE8091F5018111F2C080912F
:10113000F8019091F90101969093F9018093F801DB
:10114000009799F52091FD013091FE014091FB013E
:101150005091FC015093FE014093FD013093FC013E
:101160002093FB012091FA012F5F2093FA01E09177
:10117000FD01F091FE012081211107C02FEF3FEF0B
:101180003093E9012093E80110C0E091FD01F09156
:10119000FE010580F681E02D0680F781E02D228199
:1011A00033813093E9012093E8012091E8013091E7
:1011B000E9018217930710F420E09BC020E019E0BA
:1011C000E091FD01F091FE013081311107C08FEFF8
:1011D0009FEF9093E9018093E8018BC0E091FD01BE
:1011E000F091FE010580F681E02D0680F781E02D6B
:1011F000428153818417950728F45093E901409365
:10120000E80177C0AF014E5F5F4FA285B38564816F
:101210007581E680F780EB01FD82EC82C681D78183
:101220007B836A8311966D917C91129746175707BD
:1012300021F41296DC93CE931197138612863C917B
:1012400031503C933C91A489B5891097F9F066859B
:101250007785E088F188EB01FD82EC82C089D18935
:101260007B836A831196ED90FC901297BF01645FB7
:101270007F4FE616F70621F41296DC93CE93119772
:10128000158A148A3C9131503C933C91A689309147
:1012900050023A1710F4A09350021A9FD001112463
:1012A000BD01645D7D4F7B01DB011196CD91DC9129
:1012B000D583C4836C817D81778366836C817D81D6
:1012C000DB0113965C934E9312975D834C83F386F8
:1012D000E286E70138813F5F3883A0912C01B0910D
:1012E0002D01468956963C91431708F469CF21E0B9
:1012F00067CFE0912C01F0912D01E689D9E0ED9FB7
:10130000F0011124E45DFD4F8081823040F021E046
:1013100006C080912E018F5F80932E0120E0809186
:101320002F01811103C0222309F467C08091F501C8
:10133000882321F081E080932F015FC010922F015C
:10134000A0912C01B0912D01E0912C01F0912D0183
:101350002D913C918789908D82179307A8F08091F9
:101360002C0190912D0180912C0190912D01259AB5
:101370002D9A2FEF67EA71E6215060407040E1F747
:1013800000C000001D9AF5CF2091500289E001C0F5
:101390002150422F50E0849FF001859FF00D1124D1
:1013A000E45DFD4F9081992399F3A181B28112965A
:1013B0000D90BC91A02DB283A183289FC001112460
:1013C000815D9D4FA817B90729F412968D919C91C4
:1013D0009283818389E0849FF001859FF00D112421
:1013E000E45DFD4F0180F281E02D8681978190932D
:1013F0002D0180932C0120935002A0912C01B091DB
:101400002D01CD91CDBFDD91DEBFFF91EF91DF9139
:10141000CF91BF91AF919F918F917F916F915F918C
:101420004F913F912F911F910F91FF90EF90DF907F
:10143000CF90BF90AF909F908F907F906F905F9074
:101440004F903F902F901F900F900FBE0F900895D8
:10145000CF93DF93009751F0EC010E948503CE01FA
:101460000E94570FDF91CF910C94E205DF91CF914D
:101470000895CF93DF93CDB7DEB72A970FB6F894D0
:10148000DEBF0FBECDBFE091D201F091D301F0805D
:1014900010E000E0FF2029F00580F681E02D0081BA
:1014A00011810E9485030E947B036C0180913101B0
:1014B00090913201C816D90608F07CC00E94190824
:1014C000D0923201C09231010E94E2050091F601F2
:1014D0001091F7011A86198680E06801B1E1CB0E00
:1014E000D11C0FB6F8940F92F801F28CFF2009F48A
:1014F00018C1448D4423C1F050E086819781840F48
:10150000951F97838683248135818217930720F066
:101510008081918197838683D80116966D917C9105
:10152000CE0101960E94E00FFA94F801F28E8085B8
:10153000882339F0C80108960E94DA0381110E94BD
:1015400024050F900FBED980D7FCC0CF0C811D8120
:10155000D8011A968D919C91892B21F0C801029691
:101560000E9496030E947B037C018091310190913F
:101570003201E816F90610F40E941908F0923201BF
:10158000E0923101B9E0BD1508F4A0CFED2DDD0CDE
:10159000FF0BE053F54FD80152968C910C94B50E89
:1015A000540B540B540B8C0B770B860B540B540BB6
:1015B0008C0B770BD0923201C0923101FF2099F150
:1015C000C016D106C0F10E94E205E091D201F0916F
:1015D000D3010580F681E02DE680F780C7010296F1
:1015E0000E949603D70152968C91529782FF17C0A2
:1015F0001C966D917C91600F711F9801A601C70127
:101600000E949104882321F0B801C7010E94F207CB
:10161000D7015096ED91FC91C701099557CF8E7F68
:10162000F701828BF5CFE091D001F091D10180815B
:10163000BB24B3948111B12CE090F601F090F70136
:101640000FB6F8940F92F701858D8F3F09F4158E30
:10165000D7015E968C915E978F3F11F45E961C9237
:101660000F900FBEF701828D811114C060912C0183
:1016700070912D01645F7F4FC70141960E94BA03AC
:10168000C8018C199D09BB2011F08FEF9FEF6B2DC6
:101690000E94BB04C7010E9419040E94E205811147
:1016A00015CF0E94240512CF8160F801828BCA8079
:1016B000DB80648575856C0D7D1D9601A701C801D1
:1016C0000E949104882309F401CFD8015096ED912E
:1016D000FC91C8010995F801828982FFF7CE6485E3
:1016E00075856C0D7D1DC8010E94F207EFCE8160EB
:1016F000F801828B6A817B81758764876E0D7F1DFF
:101700009701A701C8010E949104E0CE81FD04C0A9
:10171000C8010E94280ADACE8E7FD80152968C9397
:10172000D5CE29853A85232B19F40F900FBEABCE69
:10173000811109C08091FA018E838091F801909106
:10174000F90198878F830F900FBE0E9485030FB613
:10175000F8940F92D8015D968C915D978F3F11F4AC
:101760005D961C92F801868D8F3F09F4168E0F90BE
:101770000FBEBE01675F7F4FCE0106960E944803F1
:10178000811125C0C8010E948B038823D1F0E98410
:10179000FA8460912C0170912D01645F7F4FC60126
:1017A0000E945B0461E0C7010E94BB04C8010E9463
:1017B00019040E94E205811102C00E94240581E003
:1017C00090CEC8010E9419040E94E205F8CFC8011A
:1017D0000E9419040E94E205C8010E948B0388231D
:1017E00071F351CECF93DF93EC010E948503CE01BC
:1017F0000E94BB0EEC010E94E205209769F4259A35
:101800002D9A2FEF80E792E0215080409040E1F741
:1018100000C000001D9AF5CFCE01DF91CF91089551
:101820007F928F929F92AF92BF92CF92DF92EF9270
:10183000FF920F931F93CF93DF93982EA92E762EAE
:10184000872E7A01B22ECA010E94F20B6C01892BFD
:1018500009F42BC188E290E00E94F20BEC01892B85
:1018600009F420C1D88ECF8AA70165EA70E0C601CD
:101870000E94E90F21E0E21AF108EF89F88DEE0DE0
:10188000FF1D672D782DCE0149969B01285F3F4FA4
:10189000DB014D91BD01DC014D93CD01AB01415008
:1018A0005109DA014C91442319F06217730781F74B
:1018B00018A2BE8AB9A21AA21B861A861D8A1C8A81
:1018C000D987C88784E090E08B1991099D878C8720
:1018D000DB8BCA8B1BA21CA21DA21EA21FA291E120
:1018E0009083DF01119782E28C93119723E32C936D
:1018F00011979C921197AC9211971C92119720E826
:101900002C9311971C92119722E02C93119723E0AE
:101910002C93119724E02C93119725E02C93119789
:1019200026E02C93119727E02C93119728E02C9315
:10193000119729E02C93119720E12C9311979C93F8
:10194000119792E19C93119793E19C93119794E1E5
:101950009C93119795E19C93119796E19C93119715
:1019600097E19C93119798E19C93119799E19C932F
:10197000119790E29C93119791E29C9311978C930D
:10198000119783E28C9311971C9211971C921197D7
:1019900086E28C93119787E28C93119788E28C935F
:1019A000119789E28C93119780E38C93119781E3CF
:1019B0008C93B697F983E8830115110519F0F801A6
:1019C000D183C0830FB6F8940F92809153028F5F3A
:1019D0008093530280912C0190912D01892B09F065
:1019E00073C0D0932D01C0932C018091530281309C
:1019F00081F58CE292E00E94160585E392E00E9458
:101A000016058EE392E00E94160587E492E00E949C
:101A1000160583E292E00E9416058AE192E00E9498
:101A2000160581E192E00E94160588E092E00E948E
:101A300016058FEF91E00E94160583E292E09093E5
:101A4000FE018093FD018AE192E09093FC01809376
:101A5000FB01809151028F5F809351028E8990919A
:101A60005002981710F480935002F9E08F9FC00144
:101A70001124BE016E5F7F4F845D9D4F0E94BA03AB
:101A80000F900FBE80915202882351F0E0912C01FB
:101A9000F0912D0196898E89981710F40E942405E3
:101AA00081E004C0C6010E94280A8FEFDF91CF9128
:101AB0001F910F91FF90EF90DF90CF90BF90AF906C
:101AC0009F908F907F900895809152028111C1CF95
:101AD000E0912C01F0912D019E898689981708F4D8
:101AE000B8CFD0932D01C0932C01B3CF0E946608CC
:101AF0001895789484B5826084BD84B5816084BD76
:101B000085B5826085BD85B5816085BD80916E009B
:101B1000816080936E0010928100809181008260CC
:101B20008093810080918100816080938100809109
:101B300080008160809380008091B10084608093F8
:101B4000B1008091B00081608093B00080917A00F4
:101B5000846080937A0080917A00826080937A001A
:101B600080917A00816080937A0080917A00806809
:101B700080937A001092C1000E946F020AEE11E079
:101B800020E040EC50E06EE171E08CE392E00E94D6
:101B9000100C813009F0B3C00FB6F8940F92809109
:101BA000F6019091F701892B09F04FC08DED91E07E
:101BB0000E94160584ED91E00E9416058DED91E0DE
:101BC0009093D3018093D20184ED91E09093D10161
:101BD0008093D00181E590E00E94F20BEC01009728
:101BE00081F14F96998388838AE08B8F85E08C8F73
:101BF0000FB6F8940F92888199812B8D4C8DBC0182
:101C0000249F600D711D11247D836C831A8E9B832C
:101C10008A832150330B429FB001439F700D1124E2
:101C2000860F971F9F838E838FEF8D8F8E8FCE01B0
:101C300008960E941605CE0141960E9416050F9047
:101C40000FBED093F701C093F6010F900FBE8091A5
:101C5000F6019091F701892B09F451C006EE11E0CD
:101C600023E045E550E063E271E089E39AE00E94F9
:101C7000100C813009F043C0F8942FEF3FEF309300
:101C8000E9012093E801809352021092F901109229
:101C9000F801A89588E190EC0FB6F894A895809388
:101CA00060000FBE90936000A0912C01B0912D01B7
:101CB000CD91CDBFDD91DEBFFF91EF91DF91CF914F
:101CC000BF91AF919F918F917F916F915F914F9154
:101CD0003F912F911F910F91FF90EF90DF90CF9048
:101CE000BF90AF909F908F907F906F905F904F903C
:101CF0003F902F901F900F900FBE0F9008950E945D
:101D00006F02C0E0D0E02097F1F30E944301FBCFC7
:101D1000E3E3F1E01382128288EE93E0A0E0B0E00A
:101D200084839583A683B7838AE091E0918380833F
:101D300085EC90E09587848784EC90E09787868790
:101D400080EC90E0918B808B81EC90E0938B828B88
:101D500082EC90E0958B848B86EC90E0978B868B61
:101D6000118E128E138E148E0895EE0FFF1F0590A4
:101D7000F491E02D09940F931F93CF93DF9382305A
:101D8000910510F482E090E0E0915602F091570244
:101D900030E020E0B0E0A0E0309799F42115310563
:101DA00009F44AC0281B390B24303105D8F58A8143
:101DB0009B816115710589F1FB0193838283FE018B
:101DC00011C0408151810281138148175907E0F009
:101DD0004817590799F4109761F012960C931297CF
:101DE00013961C933296CF01DF91CF911F910F91E3
:101DF00008950093560210935702F4CF2115310530
:101E000051F04217530738F0A901DB019A01BD01D7
:101E1000DF01F801C1CFEF01F9CF90935702809312
:101E20005602CDCFFE01E20FF31F81939193225012
:101E3000310939832883D7CF20915402309155023C
:101E4000232B41F42091020130910301309355027C
:101E50002093540220910001309101012115310598
:101E600041F42DB73EB74091040150910501241B68
:101E7000350BE0915402F0915502E217F307A0F4FC
:101E80002E1B3F0B2817390778F0AC014E5F5F4FD0
:101E90002417350748F04E0F5F1F509355024093AB
:101EA0005402819391939FCFF0E0E0E09CCFCF93D9
:101EB000DF930097E9F0FC01329713821282A09120
:101EC0005602B0915702ED0130E020E01097A1F4E6
:101ED00020813181820F931F20915402309155024D
:101EE0002817390709F061C0F0935502E0935402B6
:101EF000DF91CF910895EA01CE17DF07E8F54A8117
:101F00005B819E0141155105B1F7E901FB83EA832D
:101F100049915991C40FD51FEC17FD0761F48081D9
:101F200091810296840F951FE901998388838281AC
:101F300093819B838A83F0E0E0E012968D919C91DF
:101F400013970097B9F52D913C911197CD01029609
:101F5000820F931F209154023091550228173907A0
:101F600039F6309751F51092570210925602B093FD
:101F70005502A0935402BCCFD383C28340815181C8
:101F8000840F951FC817D90761F44E5F5F4F888192
:101F90009981480F591F518340838A819B81938384
:101FA00082832115310509F0B0CFF0935702E093F9
:101FB00056029ECFFD01DC01C0CF13821282D7CF23
:101FC000FB01DC0102C001900D9241505040D8F756
:101FD0000895DC0101C06D9341505040E0F7089531
:041FE000F894FFCFA3
:101FE400000058028000000000007201CF00FC00D5
:101FF400BF012D010B011F01426C696E6B00494446
:0C2004004C4500546D72205376630000C0
:00000001FF
