:100000000C9462000C948A000C948A000C948A0070
:100010000C948A000C948A000C94BB100C948A00F7
:100020000C948A000C948A000C948A000C948A0028
:100030000C948A000C948A000C948A000C948A0018
:100040000C9417040C948A000C9487040C9461049B
:100050000C948A000C948A000C948A000C948A00F8
:100060000C948A000C948A000000000023002600F3
:10007000290000000000240027002A0000000000E2
:10008000250028002B0004040404040404040202D4
:100090000202020203030303030301020408102007
:1000A0004080010204081020010204081020000012
:1000B0000008000201000003040700000000000027
:1000C0000000A61111241FBECFEFD8E0DEBFCDBFC8
:1000D00011E0A0E0B1E0E4E6F6E202C005900D9286
:1000E000A034B107D9F722E0A0E4B1E001C01D922D
:1000F000A037B207E1F710E0C2E6D0E004C02197D4
:10010000FE010E94F511C136D107C9F70E94BE1049
:100110000C9430130C940000AF92BF92CF92DF92F8
:10012000EF92FF920F931F93CF93DF936C017B01AC
:100130008B01040F151FEB015E01AE18BF08C0173D
:10014000D10759F06991D601ED91FC910190F081B0
:10015000E02DC6010995892B79F7C501DF91CF9173
:100160001F910F91FF90EF90DF90CF90BF90AF90D5
:100170000895FC01538D448D252F30E0842F90E0AD
:10018000821B930B541710F0CF9608950197089592
:10019000FC01918D828D981761F0A28DAE0FBF2F5B
:1001A000B11D5D968C91928D9F5F9F73928F90E0B1
:1001B00008958FEF9FEF0895FC01918D828D981720
:1001C00031F0828DE80FF11D858D90E008958FEF5D
:1001D0009FEF0895FC01918D228D892F90E0805C26
:1001E0009F4F821B91098F739927089587EA91E0A9
:1001F0000E94EA0021E0892B09F420E0822F089573
:100200000E94F60081110C940000089580E090E0B7
:10021000892B11F00C9400010895FC01A48DA80F06
:10022000B92FB11DA35ABF4F2C91848D90E0019638
:100230008F739927848FA689B7892C93A089B18958
:100240008C91837080648C93938D848D981306C0F9
:100250000288F389E02D80818F7D80830895EF925D
:10026000FF920F931F93CF93DF93EC0181E0888F70
:100270009B8D8C8D98131AC0E889F989808185FF40
:1002800015C09FB7F894EE89FF896083E889F989E2
:1002900080818370806480839FBF81E090E0DF91E4
:1002A000CF911F910F91FF90EF900895F62E0B8D37
:1002B00010E00F5F1F4F0F731127E02E8C8D8E11F2
:1002C0000CC00FB607FCFACFE889F989808185FF59
:1002D000F5CFCE010E940D01F1CFEB8DEC0FFD2F7C
:1002E000F11DE35AFF4FF0829FB7F8940B8FEA8914
:1002F000FB8980818062CFCFCF93DF93EC01888D23
:100300008823B9F0AA89BB89E889F9898C9185FD90
:1003100003C0808186FD0DC00FB607FCF7CF8C911E
:1003200085FFF2CF808185FFEDCFCE010E940D01C8
:10033000E9CFDF91CF910895833081F028F48130A7
:1003400099F08230A9F008958730A9F08830C9F07B
:100350008430B1F4809180008F7D03C08091800053
:100360008F7780938000089584B58F7784BD08953A
:1003700084B58F7DFBCF8091B0008F778093B000E4
:1003800008958091B0008F7DF9CF1F93CF93DF93B5
:10039000282F30E0F901E255FF4F8491F901E6562C
:1003A000FF4FD491F901EA57FF4FC491CC23A9F034
:1003B000162F81110E949C01EC2FF0E0EE0FFF1F21
:1003C000E458FF4FA591B4918FB7F894EC911111B7
:1003D00008C0D095DE23DC938FBFDF91CF911F91B2
:1003E0000895DE2BF8CFCF93DF9390E0FC01E65623
:1003F000FF4F24918A579F4FFC0184918823D1F0AD
:1004000090E0880F991FFC01EE58FF4FA591B49121
:10041000FC01E458FF4FC591D49161110EC09FB704
:10042000F8948C91E22FE0958E238C932881E2231F
:10043000E8839FBFDF91CF9108958FB7F894EC9137
:10044000E22BEC938FBFF6CFE0917501F09176012E
:100450008081811107C08FEF9FEF9093640180939B
:1004600063010895E0917501F09176010580F681B0
:10047000E02D0680F781E02D82819381EECFFC0193
:1004800001900020E9F73197AF01481B590BBC01DF
:1004900087EA91E00C948C008F929F92AF92BF926A
:1004A0000F931F93CF93DF93CDB7DEB7A1970FB60E
:1004B000F894DEBF0FBECDBF19A2423008F44AE067
:1004C0008E010F5D1F4F842E912CB12CA12CA50104
:1004D00094010E94D311E62FB901CA01EA30F4F465
:1004E000E05DD801EE938D01232B242B252B79F78A
:1004F00090E080E0109719F0CD010E943F02A19694
:100500000FB6F894DEBF0FBECDBFDF91CF911F9124
:100510000F91BF90AF909F908F900895E95CE1CFCD
:1005200061E08DE00E94F3018091440190914501CA
:100530000E940C0A8130C1F461E08DE00E94C50187
:100540008EE390E00E94A30B60E08DE00E94C50165
:100550008EE390E00E94A30B70E060E08091440184
:10056000909145010E94AC0881E090E00E94A30BAD
:10057000DBCF61E083E00E94F30180914401909120
:1005800045010E940C0A813099F5C0904201D0903B
:1005900043010D2C000CEE08FF084AE0C701B6012C
:1005A000F7FE0DC06DE287EA91E00E942F016627F9
:1005B0007727CB016C197D098E099F094AE00E94BB
:1005C0004C0288E191E00E943F02809142019091AB
:1005D000430161E0019709F060E083E00E94C501FA
:1005E00070E060E080914401909145010E94AC0868
:1005F00081E090E00E94A30BC0CF60E082E00E9407
:10060000F301C0EBD0E00CE910E098E8E92E90E0AF
:10061000F92E80914401909145010E940C0A81308D
:1006200009F045C08090420190904301092C000CD4
:10063000AA08BB084AE0C501B401B7FE0DC06DE2CF
:1006400087EA91E00E942F0166277727CB0168197E
:1006500079098A099B094AE00E944C0288E191E0ED
:100660000E943F02FE018491F801B490F701D490FA
:10067000DD2011F181110E949C01ED2DF0E0EE0FC3
:10068000FF1FE859FF4FA591B4918C91B82291E0DA
:1006900080E009F490E0909342018093430170E080
:1006A00060E080914401909145010E94AC0881E096
:1006B00090E00E94A30BADCF90E080E0ECCF00E093
:1006C00010E08091480181110CC080914702823076
:1006D00010F00E94D6060115110599F30E94000141
:1006E000F0CF0FB6F8940F92E0918501F09186015A
:1006F000C681D781CE0102960E9407058091A6018E
:1007000081508093A60180914801815080934801D7
:100710000F900FBE8F89988D0E94770DCE010E9499
:10072000770DCFCF0F931F93CF93DF93E091B70156
:10073000F091B80182E08083E091B301F091B401BF
:100740001082E091B501F091B6018FEC8083109298
:10075000BF01E091BB01F091BC0186E08083E09194
:10076000B901F091BA01808180618083E091B90183
:10077000F091BA01808188608083E091B901F091A5
:10078000BA01808180688083E091B901F091BA015B
:1007900080818F7D80838091440190914501892BD8
:1007A00021F58FE190E00E94370FEC01009791F066
:1007B0009983888381E08B8F1C8ECE010E94A606D0
:1007C0001D821C82198218821E8270E060E0CE01B8
:1007D0000E94AC08D0934501C0934401209729F0B2
:1007E00070E060E0CE010E94AC0810E000E021E083
:1007F00040E850E06BE171E08DEF92E00E94550F10
:1008000021E040E850E067E271E089EB92E00E946D
:10081000550F21E040E850E067E271E080E992E0A6
:100820000E94550FDF91CF911F910F9108951F9254
:100830000F920FB60F9211242F933F938F939F9394
:10084000AF93BF9380916C0190916D01A0916E0167
:10085000B0916F0130916B0123E0230F2D3758F5D4
:100860000196A11DB11D20936B0180936C019093A3
:100870006D01A0936E01B0936F018091670190911B
:100880006801A0916901B0916A010196A11DB11D95
:100890008093670190936801A0936901B0936A0106
:1008A000BF91AF919F918F913F912F910F900FBE6C
:1008B0000F901F90189526E8230F0296A11DB11DD9
:1008C000D2CF1F920F920FB60F9211242F933F9306
:1008D0004F935F936F937F938F939F93AF93BF9348
:1008E000EF93FF9387EA91E00E940D01FF91EF9152
:1008F000BF91AF919F918F917F916F915F914F9138
:100900003F912F910F900FBE0F901F9018951F923F
:100910000F920FB60F9211242F938F939F93EF9303
:10092000FF93E091B701F091B8018081E091BD01A2
:10093000F091BE0182FD1BC090818091C0018F5F4C
:100940008F732091C101821741F0E091C001F0E066
:10095000E955FE4F958F8093C001FF91EF919F91D4
:100960008F912F910F900FBE0F901F90189580813F
:10097000F4CFFC01DB010FB6F8940F9240914402D2
:10098000509145022D913C9111972F3F3207E1F094
:1009900081819281609146027081761719F0481723
:1009A0005907C0F4481B590B4217530788F4241BFE
:1009B000350B2D933C9380914602808380914402B5
:1009C000909145029283818380E00F900FBE08953D
:1009D0001D921C9281E0F9CF0FB6F8940F9280918E
:1009E0004402909145020F900FBE089580917001CE
:1009F0008F5F8093700108950FB6F8940F92FC01F9
:100A0000928D0F900FBE81E0911180E00895CF93F9
:100A1000DF93FC01A085B18582819381248135819A
:100A2000EC013D832C83C481D5819B838A831196FD
:100A30008D919C9112978E179F0721F41296DC934B
:100A4000CE931197118610868C9181508C938C9146
:100A5000DF91CF910895CF93DF939C01FB01DC01DF
:100A60001196CD91DC91D383C2838C819D81958336
:100A700084838C819D81DC0113967C936E93129705
:100A80007D836C8331872087F90180818F5F80832C
:100A9000DF91CF9108950F931F93CF93DF93DC01E4
:100AA0001596ED91FC91C681D7818E01045F1F4F91
:100AB000C8010E94070580917001811125C00A506C
:100AC0001109C8010E9407058E8990916B02981741
:100AD00010F480936B02B9E08B9FC0011124B80120
:100AE000895B9D4F0E942B05E0914001F0914101EF
:100AF0009E898689891760F481E080934701DF91A0
:100B0000CF911F910F910895B80189E891E0EACF44
:100B100080E0F5CFEF92FF920F931F93CF93DF9377
:100B2000EC010FB6F8940F921E8D7C0181E1E80E66
:100B3000F11C01E01116D4F08FEF8E8F0F900FBED5
:100B40000FB6F8940F921D8D7E0188E0E80EF11C1F
:100B500001E01116B4F08FEF8D8F0F900FBEDF9173
:100B6000CF911F910F91FF90EF900895898988236D
:100B700019F3C7010E944B058111009347011150E1
:100B8000D9CF8885882339F3C7010E944B0581118D
:100B9000009347011150DDCF0F931F93CF93DF9345
:100BA0008C01FB0180819181D80113968F3F9807BA
:100BB000F1F4E801AF81B88512968D919C9113975D
:100BC00093838283EC01FD83EC83B583A483139626
:100BD000FC93EE93129711870087F80180818F5F55
:100BE0008083DF91CF911F910F910895D9011296C3
:100BF0002D913C911397E9014881598184179507FC
:100C0000A8F7DACFFC017383628391878087461748
:100C1000570790F0421B530B848595854817590759
:100C2000C8F4BF016E5F7F4F80914B0190914C01E2
:100C30000E94CC0580E008954217530718F462170C
:100C4000730740F4BF016E5F7F4F80914D0190911B
:100C50004E01EECF81E00895FF920F931F93CF9343
:100C6000DF93EC01F62E0091440210914502809131
:100C700040019091410102960E940705CF3FDC0799
:100C800089F4FF2079F060914001709141016E5F1D
:100C90007F4F87E791E0DF91CF911F910F91FF90F8
:100CA0000C942B05C00FD11FE0914001F091410140
:100CB000D383C2836091400170914101C017D10775
:100CC00068F480917301909174016E5F7F4FDF91A2
:100CD000CF911F910F91FF900C94CC0580917501DD
:100CE000909176016E5F7F4F0E94CC0580916301E9
:100CF00090916401C817D90720F4D0936401C09380
:100D00006301DF91CF911F910F91FF900895CF93D1
:100D1000DF93EB016091400170914101645F7F4F6F
:100D20000E94CC0561E0CE01DF91CF910C942C069E
:100D3000FC010396928381832FEF3FEF348323835B
:100D4000968385839087878310820895CF93DF935E
:100D5000EC010FB6F8940F92888199812B8D4C8D00
:100D6000BC01249F600D711D11247D836C831A8E3C
:100D70009B838A832150330B429FB001439F700DA8
:100D80001124860F971F9F838E838FEF8D8F8E8FF9
:100D9000CE0108960E949806CE0141960E949806C0
:100DA0000F900FBE81E0DF91CF9108950F920FB6A3
:100DB000F8940F921F9211242F923F924F925F92BC
:100DC0006F927F928F929F92AF92BF92CF92DF925B
:100DD000EF92FF920F931F932F933F934F935F9345
:100DE0006F937F938F939F93AF93BF93CF93DF9333
:100DF000EF93FF93A0914001B09141010DB60D9288
:100E00000EB60D9280917001882321F081E08093CD
:100E100047015FC010924701A0914001B09141018C
:100E2000E0914001F09141012D913C918789908D95
:100E300082179307A8F08091400190914101809121
:100E4000400190914101259A2D9A2FEF87EA91E672
:100E5000215080409040E1F700C000001D9AF5CF7E
:100E600020916B0289E001C02150422F50E0849F05
:100E7000F001859FF00D1124E95BFD4F90819923CE
:100E800099F3A181B28112960D90BC91A02DB283ED
:100E9000A183289FC0011124865B9D4FA817B90725
:100EA00029F412968D919C919283818389E0849F8D
:100EB000F001859FF00D1124E95BFD4F0180F28167
:100EC000E02D86819781909341018093400120938A
:100ED0006B02A0914001B0914101CD91CDBFDD9158
:100EE000DEBFFF91EF91DF91CF91BF91AF919F91C5
:100EF0008F917F916F915F914F913F912F911F91B2
:100F00000F91FF90EF90DF90CF90BF90AF909F90A8
:100F10008F907F906F905F904F903F902F901F9099
:100F20000F900FBE0F9008958F929F92AF92BF9235
:100F3000CF92DF92EF92FF920F931F93CF93DF93A5
:100F40000FB6F8940F9280917001815080937001D8
:100F500080917001882381F080E00F900FBEDF91B7
:100F6000CF911F910F91FF90EF90DF90CF90BF90A6
:100F7000AF909F908F9008958091A601882361F390
:100F8000D0E0C0E029E0F22EEE24E39429C0E09105
:100F90008E01F0918F01C681D781CE010C960E94FF
:100FA00007058E010E5F1F4FC8010E9407058E893D
:100FB00090916B02981710F480936B028F9DC00183
:100FC0001124B801895B9D4F0E942B05E0914001DF
:100FD000F09141019E898689981710F0E0924701AF
:100FE000809189018111D3CFCD2B11F00E94240271
:100FF000E0904601EE2009F451C089E0982E882443
:101000008394CC24CA94DC2C8091700181119DC002
:10101000C0914402D09145022196D0934502C093DD
:1010200044022097B9F48091750190917601209146
:101030007301309174013093760120937501909380
:10104000740180937301809146028F5F8093460202
:101050000E9424028091630190916401F12CC817D1
:10106000D90708F066C0E0914001F0914101E6899E
:101070009E9EF0011124E95BFD4F8081823010F0CB
:10108000FF24F39480914701811101C0F1108092F7
:101090004701EA94E110B8CF1092460180914701D0
:1010A000882309F459CF0E94D60681E056CFE091FB
:1010B0007501F09176010580F681E02D068117819A
:1010C000D80112968D919C91C817D90728F4909356
:1010D000640180936301C7CF5801B2E0AB0EB11C2D
:1010E000C5010E940705F80184899589892B21F0A3
:1010F000C8010C960E940705D80156968C919091D4
:101100006B02981710F480936B02899DC001112423
:10111000B501895B9D4F0E942B05E0914001F09144
:101120004101D80156969C918689981710F0FF24AA
:10113000F394E0917501F091760180818111B7CF30
:10114000D0926401C09263018ECF809146018F5F7F
:1011500080934601F12C96CFAF92BF92DF92EF922F
:10116000FF920F931F93CF93DF9300D000D01F9275
:10117000CDB7DEB78C017B011D821C8280E0580157
:1011800028E0A20EB11C0FB6F8940F92F801228D40
:10119000938D291708F077C0D28C448D411159C026
:1011A00080819181892B11F080E009C0E480F58075
:1011B000E114F10419F580E0F80115821482D3944A
:1011C000F801D28E9189992321F0C80141960E949D
:1011D0004B0581110E94D6060F900FBE81E00F9043
:1011E0000F900F900F900F90DF91CF911F910F9163
:1011F000FF90EF90DF90BF90AF900895F70182A12C
:10120000815082A3268991A12917A9F28111D3CFF8
:101210005701F2E0AF0EB11CC5010E940705F701AE
:1012200081A1868B24E030E0281B31093587248793
:1012300090916B02981710F480936B02F9E08F9FE6
:10124000C0011124B501895B9D4F0E942B0581E0EF
:10125000B3CF50E0B701828193810E942013F8013F
:10126000848D22813381820F932F911D93838283FA
:10127000248135818217930708F496CF808191816C
:101280009383828391CF2C813D81232B21F40F9076
:101290000FBE80E0A4CF811109C0809146028983EE
:1012A00080914402909145029B838A830F900FBEE8
:1012B0000E94F6040FB6F8940F92F801858D8F3FC7
:1012C00009F4158EF801868D8F3F09F4168E0F9064
:1012D0000FBEBE016C5F7F4FCE0101960E94B90424
:1012E000811120C00FB6F8940F92F801928D838D72
:1012F0000F900FBE981310C06C817D81C5010E94B4
:101300008706C8010E948A050E949407811102C0C5
:101310000E94D60681E037CFC8010E948A050E944C
:101320009407F8CFC8010E948A050E949407B1CFA4
:10133000CF93DF9300D000D01F92CDB7DEB79C01D2
:1013400080917101909172010097B9F019827B83AD
:101350006A833D832C832091A501BE016F5F7F4F7F
:101360002111209170010E94AC080F900F900F90F6
:101370000F900F90DF91CF91089580E0F6CFEF921C
:10138000FF920F931F93CF93DF93E0914D01F09164
:101390004E018081811113C080914B0190914C01CD
:1013A00090934E0180934D01F0934C01E0934B01DB
:1013B000DF91CF911F910F91FF90EF9008950580DD
:1013C000F681E02D00811181C681D7817E0182E006
:1013D000E80EF11CC7010E940705E889F989CE01D2
:1013E00009958A8982FFD1CF8C859D85800F911FB9
:1013F0000817190760F49B838A83D987C887B701C8
:1014000080914D0190914E010E94CC05BECFB80154
:10141000CE010E949809B9CF7F928F929F92AF928E
:10142000BF92CF92DF92EF92FF920F931F93CF93D1
:10143000DF9300D000D01F92CDB7DEB78C0185E0DE
:1014400090E09D838C83F12C90E0580121E1A20E65
:10145000B11C89E0782E24E0822E912C0FB6F894EE
:101460000F92D8015A968C915A97882309F440C05C
:1014700081505A968C935A978D919C91892BA1F407
:101480008091400190914101892B39F0E091400118
:10149000F091410182A18F5F82A3809140019091E0
:1014A0004101F80195838483D80118968C91882393
:1014B00039F0C80108960E944B0581110E94D6069A
:1014C0000F900FBEFF24F3948F2D0F900F900F906D
:1014D0000F900F90DF91CF911F910F91FF90EF90A0
:1014E000DF90CF90BF90AF909F908F907F900895A6
:1014F0002C813D81232B21F40F900FBEF12CE4CFE2
:10150000911109C080914602898380914402909193
:1015100045029B838A830F900FBE0E94F6040FB68C
:10152000F8940F92F801858D8F3F09F4158ED8013C
:101530005E968C915E978F3F11F45E961C920F9091
:101540000FBEBE016C5F7F4FCE0101960E94B904B1
:1015500081118AC0C8010E94FC04882309F47EC05E
:10156000F80180819181892B09F052C00FB6F8945F
:101570000F92C480D580C114D10409F46DC0F60166
:101580008689E0914001F09141019689891708F020
:1015900057C0D6011C962D913C911D9737FD0CC06C
:1015A000E0914001F091410196899401291B310994
:1015B0001D963C932E931C97879DC0011124895B37
:1015C0009D4FF601228533852817390789F5760165
:1015D000F2E0EF0EF11CC7010E940705E091400107
:1015E000F09141018689D60156968C9390916B02B9
:1015F000981710F480936B02879DC0011124B701E6
:10160000895B9D4F0E942B05FF24F3940F900FBE22
:101610006C817D81C5010E948706C8010E948A05F0
:101620000E949407811102C00E94D60691E016CF55
:10163000E0914001F09141018689F601868BE4CF6B
:10164000E0914001F0914101FF24F394D60191967D
:101650009C9186899817D0F2F12CD8CFC8010E94AE
:101660008A050E949407E2CFC8010E948A050E9461
:101670009407C8010E94FC048823C1F2FF2009F4EA
:1016800023CF0FB6F8940F92F8018189882309F4CB
:1016900058C00688F789E02D908184E0891BD80125
:1016A00014960D911C910115110509F425CFF8012F
:1016B00091A1981708F4982FD80156968C915697B7
:1016C000981709F419CF92962C919297213009F02E
:1016D00013CF56969C9356971C962D913C911D972F
:1016E00037FD08C024E030E0291B31091D963C93EA
:1016F0002E931C97B9E08B9FC0011124895B9D4FED
:10170000F801228533852817390709F0F5CE7801CD
:10171000F2E0EF0EF11CC7010E940705D8015696B2
:101720008C9190916B02981710F480936B02B9E042
:101730008B9FC0011124B701895B9D4F0E942B052F
:10174000DBCE80E0ACCFCF93DF93EC010E94F604B8
:1017500060E0CE010E942C060E949407811102C015
:101760000E94D606DF91CF9108950F920FB6F8949C
:101770000F921F9211242F923F924F925F926F927D
:101780007F928F929F92AF92BF92CF92DF92EF9211
:10179000FF920F931F932F933F934F935F936F93FA
:1017A0007F938F939F93AF93BF93CF93DF93EF93E9
:1017B000FF93A0914001B09141010DB60D920EB67C
:1017C0000D9213BE809170018111F2C0809144028C
:1017D00090914502019690934502809344020097B0
:1017E00099F52091750130917601409173015091E6
:1017F00074015093760140937501309374012093E6
:101800007301209146022F5F20934602E0917501FB
:10181000F09176012081211107C02FEF3FEF309327
:1018200064012093630110C0E0917501F09176018D
:101830000580F681E02D0680F781E02D228133813D
:10184000309364012093630120916301309164011E
:101850008217930710F420E09BC020E019E0E0918C
:101860007501F09176013081311107C08FEF9FEF44
:1018700090936401809363018BC0E0917501F091B6
:1018800076010580F681E02D0680F781E02D42810A
:1018900053818417950728F45093640140936301A2
:1018A00077C0AF014E5F5F4FA285B38564817581BC
:1018B000E680F780EB01FD82EC82C681D7817B83D5
:1018C0006A8311966D917C9112974617570721F400
:1018D0001296DC93CE931197138612863C91315069
:1018E0003C933C91A489B5891097F9F0668577857A
:1018F000E088F188EB01FD82EC82C089D1897B838D
:101900006A831196ED90FC901297BF01645F7F4F40
:10191000E616F70621F41296DC93CE931197158AFA
:10192000148A3C9131503C933C91A68930916B02D2
:101930003A1710F4A0936B021A9FD0011124BD0135
:10194000695B7D4F7B01DB011196CD91DC91D583E5
:10195000C4836C817D81778366836C817D81DB01AB
:1019600013965C934E9312975D834C83F386E286C5
:10197000E70138813F5F3883A0914001B091410178
:10198000468956963C91431708F469CF21E067CF0A
:10199000E0914001F0914101E689D9E0ED9FF0012D
:1019A0001124E95BFD4F8081823040F021E006C0C8
:1019B000809146018F5F8093460120E0809147012E
:1019C000811103C0222309F467C08091700188232C
:1019D00021F081E0809347015FC010924701A09100
:1019E0004001B0914101E0914001F09141012D9100
:1019F0003C918789908D82179307A8F080914001D0
:101A0000909141018091400190914101259A2D9A38
:101A10002FEF67EA71E6215060407040E1F700C0A7
:101A200000001D9AF5CF20916B0289E001C0215082
:101A3000422F50E0849FF001859FF00D1124E95B57
:101A4000FD4F9081992399F3A181B28112960D9057
:101A5000BC91A02DB283A183289FC0011124865B75
:101A60009D4FA817B90729F412968D919C919283E6
:101A7000818389E0849FF001859FF00D1124E95B4B
:101A8000FD4F0180F281E02D868197819093410185
:101A90008093400120936B02A0914001B0914101DD
:101AA000CD91CDBFDD91DEBFFF91EF91DF91CF9161
:101AB000BF91AF919F918F917F916F915F914F9166
:101AC0003F912F911F910F91FF90EF90DF90CF905A
:101AD000BF90AF909F908F907F906F905F904F904E
:101AE0003F902F901F900F900FBE0F900895CF93AF
:101AF000DF93009751F0EC010E94F604CE010E94A2
:101B00009712DF91CF910C949407DF91CF910895B4
:101B1000CF93DF93CDB7DEB72A970FB6F894DEBF29
:101B20000FBECDBFE0914D01F0914E01F08010E06D
:101B300000E0FF2029F00580F681E02D0081118171
:101B40000E94F6040E94EC046C018091490190917E
:101B50004A01C816D90608F07CC00E94BF09D0927D
:101B60004A01C09249010E949407009171011091AD
:101B700072011A86198680E06801B1E1CB0ED11C92
:101B80000FB6F8940F92F801F28CFF2009F418C1F7
:101B9000448D4423C1F050E086819781840F951FC6
:101BA00097838683248135818217930720F0808173
:101BB000918197838683D80116966D917C91CE0191
:101BC00001960E942013FA94F801F28E80858823F2
:101BD00039F0C80108960E944B0581110E94D60673
:101BE0000F900FBED980D7FCC0CF0C811D81D801CA
:101BF0001A968D919C91892B21F0C80102960E9422
:101C000007050E94EC047C018091490190914A01F2
:101C1000E816F90610F40E94BF09F0924A01E0921A
:101C20004901B9E0BD1508F4A0CFED2DDD0CFF0B87
:101C3000E15EF14FD80152968C910C94F511A30EF0
:101C4000A30EA30EDB0EC60ED50EA30EA30EDB0E47
:101C5000C60ED0924A01C0924901FF2099F1C016E8
:101C6000D106C0F10E949407E0914D01F0914E0120
:101C70000580F681E02DE680F780C70102960E947C
:101C80000705D70152968C91529782FF17C01C9678
:101C90006D917C91600F711F9801A601C7010E9490
:101CA0000206882321F0B801C7010E949809D701D4
:101CB0005096ED91FC91C701099557CF8E7FF701A2
:101CC000828BF5CFE0914B01F0914C018081BB24D8
:101CD000B3948111B12CE0907101F09072010FB6B4
:101CE000F8940F92F701858D8F3F09F4158ED70177
:101CF0005E968C915E978F3F11F45E961C920F90CA
:101D00000FBEF701828D811114C060914001709166
:101D10004101645F7F4FC70141960E942B05C801B6
:101D20008C199D09BB2011F08FEF9FEF6B2D0E9446
:101D30002C06C7010E948A050E949407811115CFC5
:101D40000E94D60612CF8160F801828BCA80DB80A8
:101D5000648575856C0D7D1D9601A701C8010E94E3
:101D60000206882309F401CFD8015096ED91FC9129
:101D7000C8010995F801828982FFF7CE64857585CF
:101D80006C0D7D1DC8010E949809EFCE8160F8019D
:101D9000828B6A817B81758764876E0D7F1D9701B9
:101DA000A701C8010E940206E0CE81FD04C0C8015F
:101DB0000E94770DDACE8E7FD80152968C93D5CEC5
:101DC00029853A85232B19F40F900FBEABCE8111D4
:101DD00009C0809146028E83809144029091450211
:101DE00098878F830F900FBE0E94F6040FB6F89469
:101DF0000F92D8015D968C915D978F3F11F45D969F
:101E00001C92F801868D8F3F09F4168E0F900FBE3D
:101E1000BE01675F7F4FCE0106960E94B904811113
:101E20001BC0C8010E94FC04882381F069857A8563
:101E3000C6010E948706C8010E948A050E94940775
:101E4000811102C00E94D60681E09ACEC8010E948C
:101E50008A050E949407F8CFC8010E948A050E9453
:101E60009407C8010E94FC04882371F35BCECF93D2
:101E7000DF93EC010E94F604CE010E94FB11EC01FD
:101E80000E949407209769F4259A2D9A2FEF80E7F6
:101E900092E0215080409040E1F700C000001D9A80
:101EA000F5CFCE01DF91CF9108957F928F929F92CF
:101EB000AF92BF92CF92DF92EF92FF920F931F9358
:101EC000CF93DF93982EA92E762E872E7A01B22EED
:101ED000CA010E94370F6C01892B09F42BC188E2DB
:101EE00090E00E94370FEC01892B09F420C1D88EB5
:101EF000CF8AA70165EA70E0C6010E94291321E09C
:101F0000E21AF108EF89F88DEE0DFF1D672D782D8F
:101F1000CE0149969B01285F3F4FDB014D91BD01EA
:101F2000DC014D93CD01AB0141505109DA014C91D7
:101F3000442319F06217730781F718A2BE8AB9A269
:101F40001AA21B861A861D8A1C8AD987C88784E034
:101F500090E08B1991099D878C87DB8BCA8B1BA224
:101F60001CA21DA21EA21FA291E19083DF01119766
:101F700082E28C93119723E32C9311979C921197F3
:101F8000AC9211971C92119720E82C9311971C92F8
:101F9000119722E02C93119723E02C93119724E0C2
:101FA0002C93119725E02C93119726E02C931197F1
:101FB00027E02C93119728E02C93119729E02C937C
:101FC000119720E12C9311979C93119792E19C9388
:101FD000119793E19C93119794E19C93119795E14C
:101FE0009C93119796E19C93119797E19C9311977D
:101FF00098E19C93119799E19C93119790E29C939F
:10200000119791E29C9311978C93119783E28C9393
:1020100011971C9211971C92119786E28C9311973D
:1020200087E28C93119788E28C93119789E28C93C5
:10203000119780E38C93119781E38C93B697F98382
:10204000E8830115110519F0F801D183C0830FB69B
:10205000F8940F928091A6018F5F8093A6018091E2
:10206000400190914101892B09F073C0D093410147
:10207000C09340018091A601813081F587E492E010
:102080000E94980680E592E00E94980689E592E019
:102090000E94980682E692E00E9498068BE991E001
:1020A0000E94980682E991E00E94980689E891E0F2
:1020B0000E94980680E891E00E94980687E791E0E8
:1020C0000E9498068BE991E09093760180937501C8
:1020D00082E991E090937401809373018091A4014F
:1020E0008F5F8093A4018E8990916B02981710F4F2
:1020F00080936B02F9E08F9FC0011124BE016E5FD7
:102100007F4F895B9D4F0E942B050F900FBE8091E2
:10211000A501882351F0E0914001F0914101968999
:102120008E89981710F40E94D60681E004C0C6017B
:102130000E94770D8FEFDF91CF911F910F91FF904C
:10214000EF90DF90CF90BF90AF909F908F907F9057
:1021500008958091A5018111C1CFE0914001F091D6
:1021600041019E898689981708F4B8CFD093410120
:10217000C0934001B3CF0E94B50B1895789484B5F5
:10218000826084BD84B5816084BD85B5826085BD73
:1021900085B5816085BD80916E00816080936E0001
:1021A00010928100809181008260809381008091F3
:1021B00081008160809381008091800081608093A4
:1021C00080008091B10084608093B1008091B00064
:1021D00081608093B00080917A00846080937A005F
:1021E00080917A00826080937A0080917A00816089
:1021F00080937A0080917A00806880937A001092B0
:10220000C1000E94920305E611E020E040EC50E09E
:1022100062E371E08FE593E00E94550F813009F091
:102220008CC00FB6F8940F92809171019091720159
:10223000892B49F588E591E00E9498068FE491E0AA
:102240000E94980688E591E090934E0180934D019D
:102250008FE491E090934C0180934B0181E590E0F5
:102260000E94370FEC01009751F04F9699838883B5
:102270008AE08B8F85E08C8FCE010E94A606D093DA
:102280007201C09371010F900FBE80917101909106
:102290007201892B09F451C001E611E023E045E504
:1022A00050E067E371E088E89DE00E94550F8130BF
:1022B00009F043C0F8942FEF3FEF3093640120936F
:1022C00063018093A5011092450210924402A895E3
:1022D00088E190EC0FB6F894A895809360000FBE4B
:1022E00090936000A0914001B0914101CD91CDBF8C
:1022F000DD91DEBFFF91EF91DF91CF91BF91AF9163
:102300009F918F917F916F915F914F913F912F910D
:102310001F910F91FF90EF90DF90CF90BF90AF9003
:102320009F908F907F906F905F904F903F902F90F5
:102330001F900F900FBE0F9008950E949203C0E06F
:10234000D0E02097F1F30E940001FBCFE7EAF1E033
:102350001382128288EE93E0A0E0B0E0848395833C
:10236000A683B7838AE091E09183808385EC90E037
:102370009587848784EC90E09787868780EC90E04F
:10238000918B808B81EC90E0938B828B82EC90E040
:10239000958B848B86EC90E0978B868B118E128EBA
:1023A000138E148E0895A1E21A2EAA1BBB1BFD01E9
:1023B0000DC0AA1FBB1FEE1FFF1FA217B307E40724
:1023C000F50720F0A21BB30BE40BF50B661F771F7C
:1023D000881F991F1A9469F760957095809590955C
:1023E0009B01AC01BD01CF010895EE0FFF1F0590C9
:1023F000F491E02D09940F931F93CF93DF938230D4
:10240000910510F482E090E0E0916E02F0916F028D
:1024100030E020E0B0E0A0E0309799F421153105DC
:1024200009F44AC0281B390B24303105D8F58A81BC
:102430009B816115710589F1FB0193838283FE0104
:1024400011C0408151810281138148175907E0F082
:102450004817590799F4109761F012960C93129748
:1024600013961C933296CF01DF91CF911F910F915C
:10247000089500936E0210936F02F4CF2115310579
:1024800051F04217530738F0A901DB019A01BD0151
:10249000DF01F801C1CFEF01F9CF90936F02809374
:1024A0006E02CDCFFE01E20FF31F81939193225074
:1024B000310939832883D7CF20916C0230916D0286
:1024C000232B41F4209102013091030130936D02DE
:1024D00020936C02209100013091010121153105FA
:1024E00041F42DB73EB74091040150910501241BE2
:1024F000350BE0916C02F0916D02E217F307A0F446
:102500002E1B3F0B2817390778F0AC014E5F5F4F49
:102510002417350748F04E0F5F1F50936D0240930C
:102520006C02819391939FCFF0E0E0E09CCFCF933A
:10253000DF930097E9F0FC01329713821282A09199
:102540006E02B0916F02ED0130E020E01097A1F42F
:1025500020813181820F931F20916C0230916D0296
:102560002817390709F061C0F0936D02E0936C02FF
:10257000DF91CF910895EA01CE17DF07E8F54A8190
:102580005B819E0141155105B1F7E901FB83EA83A7
:1025900049915991C40FD51FEC17FD0761F4808153
:1025A00091810296840F951FE90199838883828126
:1025B00093819B838A83F0E0E0E012968D919C9159
:1025C00013970097B9F52D913C911197CD01029683
:1025D000820F931F20916C0230916D0228173907EA
:1025E00039F6309751F510926F0210926E02B09347
:1025F0006D02A0936C02BCCFD383C2834081518112
:10260000840F951FC817D90761F44E5F5F4F88810B
:102610009981480F591F518340838A819B819383FD
:1026200082832115310509F0B0CFF0936F02E0935A
:102630006E029ECFFD01DC01C0CF13821282D7CF84
:10264000FB01DC0102C001900D9241505040D8F7CF
:102650000895DC0101C06D9341505040E0F70895AA
:04266000F894FFCF1C
:10266400000070028000000000002F018C00B900FF
:102674007C01EA00C800DC000D0A00446967697443
:10268400616C5265616400416E616C6F6752656193
:10269400640049444C4500546D7220537663000035
:00000001FF
