:100000000C9435000C945D000C945D000C945D0024
:100010000C945D000C945D000C94D9100C945D0060
:100020000C945D000C945D000C945D000C945D00DC
:100030000C945D000C945D000C945D000C945D00CC
:100040000C9486050C945D000C9454050C942E05BC
:100050000C945D000C945D000C945D000C945D00AC
:100060000C945D000C945D00181111241FBECFEF9D
:10007000D8E0DEBFCDBF12E0A0E0B1E0E0ECF9E2F5
:1000800002C005900D92A23DB107D9F723E0A2ED81
:10009000B2E001C01D92AE3FB207E1F710E0C5E348
:1000A000D0E004C02197FE010E94A313C433D107FE
:1000B000C9F70E94DC100C94DE140C940000AF927F
:1000C000BF92CF92DF92EF92FF920F931F93CF9345
:1000D000DF936C017B018B01040F151FEB015E01A7
:1000E000AE18BF08C017D10759F06991D601ED913C
:1000F000FC910190F081E02DC6010995892B79F7DB
:10010000C501DF91CF911F910F91FF90EF90DF908C
:10011000CF90BF90AF900895FC01538D448D252F53
:1001200030E0842F90E0821B930B541710F0CF9691
:10013000089501970895FC01918D828D981761F0C3
:10014000A28DAE0FBF2FB11D5D968C91928D9F5FDA
:100150009F73928F90E008958FEF9FEF0895FC01B9
:10016000918D828D981731F0828DE80FF11D858D6C
:1001700090E008958FEF9FEF0895FC01918D228DFF
:10018000892F90E0805C9F4F821B91098F73992784
:1001900008958DE593E00E94BD0021E0892B09F4CC
:1001A00020E0822F08950E94C90081110C94000064
:1001B000089580E090E0892B11F00C94D30008950D
:1001C000FC01A48DA80FB92FB11DA35ABF4F2C91CC
:1001D000848D90E001968F739927848FA689B789C3
:1001E0002C93A089B1898C91837080648C93938DBA
:1001F000848D981306C00288F389E02D80818F7D5D
:1002000080830895EF92FF920F931F93CF93DF9314
:10021000EC0181E0888F9B8D8C8D98131AC0E88942
:10022000F989808185FF15C09FB7F894EE89FF8911
:100230006083E889F98980818370806480839FBFAF
:1002400081E090E0DF91CF911F910F91FF90EF90AF
:100250000895F62E0B8D10E00F5F1F4F0F731127BF
:10026000E02E8C8D8E110CC00FB607FCFACFE889FA
:10027000F989808185FFF5CFCE010E94E000F1CFA2
:10028000EB8DEC0FFD2FF11DE35AFF4FF0829FB76E
:10029000F8940B8FEA89FB8980818062CFCFCF935E
:1002A000DF93EC01888D8823B9F0AA89BB89E8899E
:1002B000F9898C9185FD03C0808186FD0DC00FB644
:1002C00007FCF7CF8C9185FFF2CF808185FFEDCFC2
:1002D000CE010E94E000E9CFDF91CF9108953FB7B2
:1002E000F89480912D0390912E03A0912F03B0914B
:1002F000300326B5A89B05C02F3F19F00196A11D1C
:10030000B11D3FBFBA2FA92F982F8827BC01CD015F
:10031000620F711D811D911D42E0660F771F881FBE
:10032000991F4A95D1F70895E0911E03F0911F039C
:100330008081811107C08FEF9FEF90931D03809301
:100340001C030895E0911E03F0911F030580F681C0
:10035000E02D0680F781E02D82819381EECF019719
:1003600068F030E020E040913C0150913D012417BD
:100370003507A8F700002F5F3F4FF5CF0895FC0128
:1003800001900020E9F73197AF01481B590BBC01E0
:100390008DE593E00C945F008F929F92AF92BF9295
:1003A0000F931F93CF93DF93CDB7DEB7A1970FB60F
:1003B000F894DEBF0FBECDBF19A2423008F44AE068
:1003C0008E010F5D1F4F842E912CB12CA12CA50105
:1003D00094010E948113E62FB901CA01EA30F4F4B6
:1003E000E05DD801EE938D01232B242B252B79F78B
:1003F00090E080E0109719F0CD010E94BF01A19616
:100400000FB6F894DEBF0FBECDBFDF91CF911F9125
:100410000F91BF90AF909F908F900895E95CE1CFCE
:10042000CF93DF930E94BF01EC018AE791E00E9425
:10043000BF018C0F9D1FDF91CF9108954F925F9266
:100440006F927F928F929F92AF92BF92CF92DF92E4
:10045000EF92FF926B017C01AC019B010E947C1327
:100460008823C1F08DE791E00E94BF017C018AE7FB
:1004700091E00E94BF018E0D9F1DFF90EF90DF90D5
:10048000CF90BF90AF909F908F907F906F905F9034
:100490004F90089546015701E894B7F82FEF3FEFCA
:1004A0004FE75FE7C501B4010E947C1381110DC0C5
:1004B0002FEF3FEF4FE75FE7C501B4010E94B21194
:1004C00018161CF481E891E0CFCF2FEF3FEF4FE7F4
:1004D0005FE4C701B6010E940A1318161CF485E8F0
:1004E00091E0C2CF2FEF3FEF4FE75FECC701B601BE
:1004F0000E94B21187FDF3CF20E030E0A901C701CF
:10050000B6010E94B211B12CA12C87FF0AC06DE286
:100510008DE593E00E9402015C01F7FAF094F7F890
:10052000F0942AE037ED43EA5BE3C701B6010E948D
:1005300046112B013C010E9429126B017C010E9493
:1005400058129B01AC01C301B2010E9445112B015D
:100550003C014AE0C701B6010E94CC017C01EA0CD3
:10056000FB1C6EE28DE593E00E940201E80EF91E8D
:1005700020E030E040E251E4C301B2010E940F13D9
:100580002B013C010E9429124B01B12CA12C4AE005
:10059000C501B4010E94CC01E80EF91EC501B401E9
:1005A0000E9458129B01AC01C301B2010E94451187
:1005B00020E030E040E251E40E940F130E94291233
:1005C00090E080E04AE00E94CC01E80EF91E4FCF97
:1005D000CF93DF93EC016881798190E080E04AE07D
:1005E0000E94CC016CE28DE593E00E9402016A81D9
:1005F0007B8190E080E04AE00E94CC016CE28DE5D6
:1006000093E00E9402016C817D8190E080E04AE0ED
:100610000E94CC018AE791E0DF91CF910C94BF0159
:100620007C018B01EA010E940D06C7010E941002A5
:1006300089E891E00E94BF01BE0190E080E04AE0BD
:100640000E94CC018AE791E00E94BF0180E991E01D
:100650000E94BF01C8010E94E802FFCF7C01FC019B
:10066000C080D180A280B380C8EED3E0CC19DD0970
:100670000E9403068C179D0770F40E940D0660E02F
:1006800081E090E00E9443070E946A088111F0CF48
:100690000E94AC07EDCF0E940D068091350390912A
:1006A000360386010C0F1D1F8C179D07D0F40C1705
:1006B0001D0718F480179107B8F00E946A0881118D
:1006C00002C00E94AC07C5010E94AF010E94030650
:1006D000AC01803A9F4080F0B70187E991E00E9429
:1006E00010030C171D0730F760E09801281B390B29
:1006F000C9010E944307E1CFE801C601800F911FA5
:100700004817590740F2B7018FE991E0E8CF00E0C0
:1007100010E08091080381110CC080913803823071
:1007200010F00E94AC070115110599F30E94D30047
:10073000F0CF0FB6F8940F92E0910F03F0911003F1
:10074000C681D781CE0102960E941E0680910903C0
:10075000815080930903809108038150809308039E
:100760000F900FBE8F89988D0E94B00CCE010E9411
:10077000B00CCFCFCF93DF9300D000D000D0CDB757
:10078000DEB7E0916D03F0916E0382E08083E0912B
:100790006903F0916A031082E0916B03F0916C039E
:1007A0008FEC808310927503E0917103F0917203D6
:1007B00086E08083E0916F03F09170038081806117
:1007C0008083E0916F03F091700380818860808363
:1007D000E0916F03F0917003808180688083E091E5
:1007E0006F03F091700380818F7D80838CEB91E0AB
:1007F0000E94100280EE91E00E9410028AEF91E0C8
:100800000E9410028AE791E00E94BF018DE593E00B
:100810000E949B0097FFFACF87E192E00E94BF0100
:100820008DE593E00E949B009A83898397FDF8CF22
:1008300069818DE593E00E9402018AE791E00E94C0
:10084000BF0189819A81C1979A838983049728F08F
:100850008BE292E00E941002D9CFE981FA81EE0F7B
:10086000FF1FFA83E983E05AFE4F008111818981DD
:100870009A81885A9E4FFC010190F081E02DFE8301
:10088000ED8389E392E00E94BF018DE593E00E9431
:100890004F010E946F016B017C0144E6842E912C74
:1008A000A12CB12C0E946F016C197D098E099F0942
:1008B000683E734081059105A8F3F1E08F1A910815
:1008C000A108B10828EEC20E23E0D21EE11CF11CE3
:1008D00081149104A104B10429F70E946F012B0136
:1008E0003C0188EE93E00E94AF010E946F016B0112
:1008F0007C0160913C0170913D0190E080E00E949C
:10090000581220E030E04AE759E40E940F134B01EF
:100910005C01C701B60164197509860997090E942F
:1009200058129B01AC01C501B4010E94B7110E948D
:10093000291270933D0160933C010E946F016B018D
:100940007C0188EE93E00E94AF010E946F016C1958
:100950007D098E099F094AE00E94CC018AE791E057
:100960000E94BF018BE492E00E94100284E792E0B3
:100970000E9410026801B12CA12C412C512C320193
:100980008D819E81A816B9060CF040C0C6010E9458
:10099000E802F6016281738190E080E00E945812C3
:1009A00069837A838B839C83F6016081718190E0F7
:1009B00080E00E9458129B01AC0169817A818B8191
:1009C0009C810E94B7119B01AC01C301B2010E943E
:1009D00046112B013C01F12CE12CF601048196011A
:1009E00048EC50E070E060E08EE293E00E94980EE8
:1009F000F6E0CF0ED11C813029F088E892E00E9409
:100A00001002FFCF2FEFA21AB20ABACF8BE992E001
:100A10000E94BF0120E030E048EC52E4C301B20183
:100A20000E940F130E941E0287EA92E00E94BF01FB
:100A30008D819E81880F991F880F991F805C9E4F22
:100A4000FC0160817181828193810E941E020E945B
:100A5000051081EC92E00E941002FFCF1F920F92CE
:100A60000FB60F9211242F933F934F935F936F9381
:100A70007F938F939F93AF93BF93EF93FF938DE5F6
:100A800093E00E94E000FF91EF91BF91AF919F91A1
:100A90008F917F916F915F914F913F912F910F9027
:100AA0000FBE0F901F9018951F920F920FB60F92C6
:100AB00011242F938F939F93EF93FF93E0916D03F6
:100AC000F0916E038081E0917303F091740382FDD5
:100AD0001BC09081809176038F5F8F732091770385
:100AE000821741F0E0917603F0E0E35AFC4F958FD6
:100AF00080937603FF91EF919F918F912F910F90AB
:100B00000FBE0F901F9018958081F4CF1F920F9207
:100B10000FB60F9211242F933F938F939F93AF9310
:100B2000BF938091290390912A03A0912B03B09148
:100B30002C033091280323E0230F2D3758F501961D
:100B4000A11DB11D209328038093290390932A03AC
:100B5000A0932B03B0932C0380912D0390912E032F
:100B6000A0912F03B09130030196A11DB11D809378
:100B70002D0390932E03A0932F03B0933003BF91C6
:100B8000AF919F918F913F912F910F900FBE0F903A
:100B90001F90189526E8230F0296A11DB11DD2CFF4
:100BA000FC01DB010FB6F8940F9240913503509190
:100BB00036032D913C9111972F3F3207E1F081814F
:100BC0009281609137037081761719F048175907A1
:100BD000C0F4481B590B4217530788F4241B350BEC
:100BE0002D933C93809137038083809135039091BE
:100BF00036039283818380E00F900FBE08951D928B
:100C00001C9281E0F9CF0FB6F8940F9280913503D2
:100C1000909136030F900FBE0895809131038F5F3E
:100C20008093310308950FB6F8940F92FC01928DD2
:100C30000F900FBE81E0911180E00895CF93DF9374
:100C4000FC01A085B1858281938124813581EC01ED
:100C50003D832C83C481D5819B838A8311968D919A
:100C60009C9112978E179F0721F41296DC93CE93D6
:100C70001197118610868C9181508C938C91DF9105
:100C8000CF910895CF93DF939C01FB01DC01119676
:100C9000CD91DC91D383C2838C819D8195838483A4
:100CA0008C819D81DC0113967C936E9312977D83DA
:100CB0006C8331872087F90180818F5F8083DF918A
:100CC000CF9108950F931F93CF93DF93DC01159677
:100CD000ED91FC91C681D7818E01045F1F4FC80141
:100CE0000E941E0680913103811125C00A5011090E
:100CF000C8010E941E068E8990915C03981710F41B
:100D000080935C03B9E08B9FC0011124B801885C1B
:100D10009C4F0E944206E091D202F091D3029E893C
:100D20008689891760F481E08093FE02DF91CF917C
:100D30001F910F910895B8018FEF92E0EACF80E004
:100D4000F5CFEF92FF920F931F93CF93DF93EC01B8
:100D50000FB6F8940F921E8D7C0181E1E80EF11C14
:100D600001E01116D4F08FEF8E8F0F900FBE0FB6EB
:100D7000F8940F921D8D7E0188E0E80EF11C01E0D1
:100D80001116B4F08FEF8D8F0F900FBEDF91CF91C2
:100D90001F910F91FF90EF9008958989882319F38F
:100DA000C7010E94620681110093FE021150D9CF43
:100DB0008885882339F3C7010E9462068111009358
:100DC000FE021150DDCF0F931F93CF93DF938C0161
:100DD000FB0180819181D80113968F3F9807F1F430
:100DE000E801AF81B88512968D919C9113979383FA
:100DF0008283EC01FD83EC83B583A4831396FC937B
:100E0000EE93129711870087F80180818F5F8083AE
:100E1000DF91CF911F910F910895D90112962D91D5
:100E20003C911397E9014881598184179507A8F7E8
:100E3000DACFFC0173836283918780874617570757
:100E400090F0421B530B8485958548175907C8F4C9
:100E5000BF016E5F7F4F80912403909125030E9414
:100E6000E30680E008954217530718F462177307EA
:100E700040F4BF016E5F7F4F80912603909127035E
:100E8000EECF81E00895FF920F931F93CF93DF93EE
:100E9000EC01F62E00913503109136038091D202B9
:100EA0009091D30202960E941E06CF3FDC0789F480
:100EB000FF2079F06091D2027091D3026E5F7F4F74
:100EC00083E193E0DF91CF911F910F91FF900C94FC
:100ED0004206C00FD11FE091D202F091D302D3831A
:100EE000C2836091D2027091D302C017D10768F417
:100EF00080912003909121036E5F7F4FDF91CF910E
:100F00001F910F91FF900C94E30680911E03909126
:100F10001F036E5F7F4F0E94E30680911C03909138
:100F20001D03C817D90720F4D0931D03C0931C03D9
:100F3000DF91CF911F910F91FF900895FC010396CF
:100F4000928381832FEF3FEF3483238396838583BE
:100F500090878783108208950F920FB6F8940F92AE
:100F60001F9211242F923F924F925F926F927F9225
:100F70008F929F92AF92BF92CF92DF92EF92FF92A9
:100F80000F931F932F933F934F935F936F937F9391
:100F90008F939F93AF93BF93CF93DF93EF93FF9381
:100FA000A091D202B091D3020DB60D920EB60D9261
:100FB00080913103882321F081E08093FE025FC09D
:100FC0001092FE02A091D202B091D302E091D2021F
:100FD000F091D3022D913C918789908D82179307D0
:100FE000A8F08091D2029091D3028091D202909188
:100FF000D302259A2D9A2FEF87EA91E6215080405F
:101000009040E1F700C000001D9AF5CF20915C03ED
:1010100089E001C02150422F50E0849FF001859F5C
:10102000F00D1124E85CFC4F9081992399F3A18184
:10103000B28112960D90BC91A02DB283A183289FFE
:10104000C0011124855C9C4FA817B90729F412969A
:101050008D919C919283818389E0849FF001859F8B
:10106000F00D1124E85CFC4F0180F281E02D8681B7
:1010700097819093D3028093D20220935C03A09136
:10108000D202B091D302CD91CDBFDD91DEBFFF91F1
:10109000EF91DF91CF91BF91AF919F918F917F9110
:1010A0006F915F914F913F912F911F910F91FF9001
:1010B000EF90DF90CF90BF90AF909F908F907F90F8
:1010C0006F905F904F903F902F901F900F900FBEAA
:1010D0000F9008958F929F92AF92BF92CF92DF921E
:1010E000EF92FF920F931F93CF93DF930FB6F89475
:1010F0000F928091310381508093310380913103AD
:10110000882381F080E00F900FBEDF91CF911F9177
:101110000F91FF90EF90DF90CF90BF90AF909F9096
:101120008F90089580910903882361F3D0E0C0E097
:1011300029E0F22EEE24E39429C0E0910403F0911B
:101140000503C681D781CE010C960E941E068E0132
:101150000E5F1F4FC8010E941E068E8990915C038E
:10116000981710F480935C038F9DC0011124B8017F
:10117000885C9C4F0E944206E091D202F091D3021B
:101180009E898689981710F0E092FE028091FF02F6
:101190008111D3CFCD2B11F00E949401E090FD027C
:1011A000EE2009F451C089E0982E88248394CC2441
:1011B000CA94DC2C8091310381119DC0C09135030C
:1011C000D09136032196D0933603C09335032097F0
:1011D000B9F480911E0390911F0320912003309158
:1011E000210330931F0320931E03909321038093C8
:1011F0002003809137038F5F809337030E9494010F
:1012000080911C0390911D03F12CC817D90708F099
:1012100066C0E091D202F091D302E6899E9EF00171
:101220001124E85CFC4F8081823010F0FF24F3949D
:101230008091FE02811101C0F1108092FE02EA94B9
:10124000E110B8CF1092FD028091FE02882309F4CC
:1012500059CF0E94AC0781E056CFE0911E03F09178
:101260001F030580F681E02D06811781D8011296B3
:101270008D919C91C817D90728F490931D038093F2
:101280001C03C7CF5801B2E0AB0EB11CC5010E94D0
:101290001E06F80184899589892B21F0C8010C96D6
:1012A0000E941E06D80156968C9190915C03981767
:1012B00010F480935C03899DC0011124B501885C02
:1012C0009C4F0E944206E091D202F091D302D801D5
:1012D00056969C918689981710F0FF24F394E0911C
:1012E0001E03F0911F0380818111B7CFD0921D039F
:1012F000C0921C038ECF8091FD028F5F8093FD0210
:10130000F12C96CFAF92BF92CF92DF92EF92FF92E5
:101310000F931F93CF93DF9300D000D01F92CDB7D0
:10132000DEB78C017B011D821C8280E0680128E011
:10133000C20ED11C0FB6F8940F92F801228D938D36
:10134000291708F078C0D28C448D41115AC0808191
:101350009181892B11F080E009C0E480F580E114CF
:10136000F10421F580E0F80115821482D394F8018C
:10137000D28E9189992321F0C80141960E9462067C
:1013800081110E94AC070F900FBE81E00F900F906B
:101390000F900F900F90DF91CF911F910F91FF90C1
:1013A000EF90DF90CF90BF90AF900895F70182A1AA
:1013B000815082A3268991A12917A1F28111D2CF50
:1013C0005701F2E0AF0EB11CC5010E941E06F701E5
:1013D00081A1868B24E030E0281B310935872487E2
:1013E00090915C03981710F480935C03F9E08F9F51
:1013F000C0011124B501885C9C4F0E94420681E027
:10140000B2CF50E0B701828193810E94CE14F801DF
:10141000848D22813381820F932F911D9383828348
:10142000248135818217930708F495CF80819181BB
:101430009383828390CF2C813D81232B21F40F90C5
:101440000FBE80E0A3CF811109C08091370389834B
:1014500080913503909136039B838A830F900FBE52
:101460000E940D060FB6F8940F92F801858D8F3FFC
:1014700009F4158EF801868D8F3F09F4168E0F90B2
:101480000FBEBE016C5F7F4FCE0101960E94D0055A
:1014900081112AC00FB6F8940F92F801928D838DB6
:1014A0000F900FBE98131AC0AC80BD806091D2021D
:1014B0007091D302645F7F4FC6010E94E30661E032
:1014C000C5010E944307C8010E94A1060E946A0844
:1014D000811102C00E94AC0781E02CCFC8010E949C
:1014E000A1060E946A08F8CFC8010E94A1060E94C6
:1014F0006A08A7CFCF93DF9300D000D01F92CDB75B
:10150000DEB79C0180913303909134030097B9F0CA
:1015100019827B836A833D832C8320913203BE0131
:101520006F5F7F4F2111209131030E9482090F903C
:101530000F900F900F900F90DF91CF91089580E062
:10154000F6CFEF92FF920F931F93CF93DF93E0912B
:101550002603F09127038081811113C08091240319
:10156000909125039093270380932603F0932503FE
:10157000E0932403DF91CF911F910F91FF90EF90A3
:1015800008950580F681E02D00811181C681D78103
:101590007E0182E0E80EF11CC7010E941E06E88968
:1015A000F989CE0109958A8982FFD1CF8C859D85E5
:1015B000800F911F0817190760F49B838A83D987CE
:1015C000C887B70180912603909127030E94E30604
:1015D000BECFB801CE010E947A0AB9CF0F920FB6E2
:1015E000F8940F921F9211242F923F924F925F9284
:1015F0006F927F928F929F92AF92BF92CF92DF9223
:10160000EF92FF920F931F932F933F934F935F930C
:101610006F937F938F939F93AF93BF93CF93DF93FA
:10162000EF93FF93A091D202B091D3020DB60D9229
:101630000EB60D9213BE809131038111F2C08091DC
:1016400035039091360301969093360380933503CA
:10165000009799F520911E0330911F0340912003BC
:101660005091210350931F0340931E033093210395
:1016700020932003209137032F5F20933703E091BD
:101680001E03F0911F032081211107C02FEF3FEFB0
:1016900030931D0320931C0310C0E0911E03F091B2
:1016A0001F030580F681E02D0680F781E02D228161
:1016B000338130931D0320931C0320911C03309130
:1016C0001D038217930710F420E09BC020E019E06F
:1016D000E0911E03F0911F033081311107C08FEF9D
:1016E0009FEF90931D0380931C038BC0E0911E031A
:1016F000F0911F030580F681E02D0680F781E02D33
:10170000428153818417950728F450931D03409319
:101710001C0377C0AF014E5F5F4FA285B385648124
:101720007581E680F780EB01FD82EC82C681D7816E
:101730007B836A8311966D917C91129746175707A8
:1017400021F41296DC93CE931197138612863C9166
:1017500031503C933C91A489B5891097F9F0668586
:101760007785E088F188EB01FD82EC82C089D18920
:101770007B836A831196ED90FC901297BF01645FA2
:101780007F4FE616F70621F41296DC93CE9311975D
:10179000158A148A3C9131503C933C91A689309132
:1017A0005C033A1710F4A0935C031A9FD001112434
:1017B000BD01685C7C4F7B01DB011196CD91DC9112
:1017C000D583C4836C817D81778366836C817D81C1
:1017D000DB0113965C934E9312975D834C83F386E3
:1017E000E286E70138813F5F3883A091D202B09151
:1017F000D302468956963C91431708F469CF21E0FD
:1018000067CFE091D202F091D302E689D9E0ED9F53
:10181000F0011124E85CFC4F8081823040F021E02F
:1018200006C08091FD028F5F8093FD0220E08091D1
:10183000FE02811103C0222309F467C080913103A5
:10184000882321F081E08093FE025FC01092FE02A7
:10185000A091D202B091D302E091D202F091D302D2
:101860002D913C918789908D82179307A8F08091E4
:10187000D2029091D3028091D2029091D302259A04
:101880002D9A2FEF67EA71E6215060407040E1F732
:1018900000C000001D9AF5CF20915C0389E001C0D3
:1018A0002150422F50E0849FF001859FF00D1124BC
:1018B000E85CFC4F9081992399F3A181B281129643
:1018C0000D90BC91A02DB283A183289FC00111244B
:1018D000855C9C4FA817B90729F412968D919C91AD
:1018E0009283818389E0849FF001859FF00D11240C
:1018F000E85CFC4F0180F281E02D86819781909316
:10190000D3028093D20220935C03A091D202B091C3
:10191000D302CD91CDBFDD91DEBFFF91EF91DF917D
:10192000CF91BF91AF919F918F917F916F915F9177
:101930004F913F912F911F910F91FF90EF90DF906A
:10194000CF90BF90AF909F908F907F906F905F905F
:101950004F903F902F901F900F900FBE0F900895C3
:10196000CF93DF93009751F0EC010E940D06CE015A
:101970000E944514DF91CF910C946A08DF91CF91BA
:101980000895CF93DF93CDB7DEB72A970FB6F894BB
:10199000DEBF0FBECDBFE0912603F0912703F0809C
:1019A00010E000E0FF2029F00580F681E02D0081A5
:1019B00011810E940D060E9403066C018091220392
:1019C00090912303C816D90608F07CC00E94A10A92
:1019D000D0922303C09222030E946A08009133032D
:1019E000109134031A86198680E06801B1E1CB0EAC
:1019F000D11C0FB6F8940F92F801F28CFF2009F475
:101A000018C1448D4423C1F050E086819781840F32
:101A1000951F97838683248135818217930720F051
:101A20008081918197838683D80116966D917C91F0
:101A3000CE0101960E94CE14FA94F801F28E8085B0
:101A4000882339F0C80108960E94620681110E941D
:101A5000AC070F900FBED980D7FCC0CF0C811D8181
:101A6000D8011A968D919C91892B21F0C80102967C
:101A70000E941E060E9403067C0180912203909121
:101A80002303E816F90610F40E94A10AF09223033A
:101A9000E0922203B9E0BD1508F4A0CFED2DDD0CD6
:101AA000FF0BE85AF24FD80152968C910C94A31375
:101AB000DC0DDC0DDC0D140EFF0D0E0EDC0DDC0D4F
:101AC000140EFF0DD0922303C0922203FF2099F140
:101AD000C016D106C0F10E946A08E0912603F09179
:101AE00027030580F681E02DE680F780C701029686
:101AF0000E941E06D70152968C91529782FF17C002
:101B00001C966D917C91600F711F9801A601C70111
:101B10000E941907882321F0B801C7010E947A0AA0
:101B2000D7015096ED91FC91C701099557CF8E7F53
:101B3000F701828BF5CFE0912403F091250380819A
:101B4000BB24B3948111B12CE0903303F0903403A3
:101B50000FB6F8940F92F701858D8F3F09F4158E1B
:101B6000D7015E968C915E978F3F11F45E961C9222
:101B70000F900FBEF701828D811114C06091D202C7
:101B80007091D302645F7F4FC70141960E94420665
:101B9000C8018C199D09BB2011F08FEF9FEF6B2DB1
:101BA0000E944307C7010E94A1060E946A08811192
:101BB00015CF0E94AC0712CF8160F801828BCA80DA
:101BC000DB80648575856C0D7D1D9601A701C801BC
:101BD0000E941907882309F401CFD8015096ED918E
:101BE000FC91C8010995F801828982FFF7CE6485CE
:101BF00075856C0D7D1DC8010E947A0AEFCE81604B
:101C0000F801828B6A817B81758764876E0D7F1DE9
:101C10009701A701C8010E941907E0CE81FD04C009
:101C2000C8010E94B00CDACE8E7FD80152968C93F8
:101C3000D5CE29853A85232B19F40F900FBEABCE54
:101C4000811109C0809137038E8380913503909173
:101C5000360398878F830F900FBE0E940D060FB634
:101C6000F8940F92D8015D968C915D978F3F11F497
:101C70005D961C92F801868D8F3F09F4168E0F90A9
:101C80000FBEBE01675F7F4FCE0106960E94D00552
:101C9000811125C0C8010E9413068823D1F0E98470
:101CA000FA846091D2027091D302645F7F4FC601C3
:101CB0000E94E30661E0C7010E944307C8010E9439
:101CC000A1060E946A08811102C00E94AC0781E04F
:101CD00090CEC8010E94A1060E946A08F8CFC801F0
:101CE0000E94A1060E946A08C8010E941306882368
:101CF00071F351CECF93DF93EC010E940D06CE011C
:101D00000E94A913EC010E946A08209769F4259AA1
:101D10002D9A2FEF80E792E0215080409040E1F72C
:101D200000C000001D9AF5CFCE01DF91CF9108953C
:101D30005F926F927F928F929F92AF92BF92CF925B
:101D4000DF92EF92FF920F931F93CF93DF93582E62
:101D5000692E6B015A01722E132FCA010E947A0E4E
:101D60004C01892BF1F088E290E00E947A0EEC01A0
:101D7000892BA1F0988E8F8AA50165EA70E0C401D5
:101D80000E94D71421E0A21AB108EF89F88DEA0D5C
:101D9000FB1DC114D104B1F4198E2AC0C4010E94E4
:101DA000B00C8FEFDF91CF911F910F91FF90EF90CB
:101DB000DF90CF90BF90AF909F908F907F906F906B
:101DC0005F900895CE0149969601285F3F4FD60156
:101DD0004D916D01DC014D93CD01A601415051099A
:101DE000DA014C91442319F0C216D30681F718A2E8
:101DF000043008F003E00E8B09A31AA21B861A8692
:101E00001D8A1C8AD987C88784E090E0801B9109CD
:101E10009D878C87DB8BCA8B1BA21CA21DA21EA2D6
:101E20001FA291E19083DF01119782E28C931197B9
:101E300023E32C9311975C9211976C9211971C924B
:101E4000119720E82C9311971C92119722E02C9364
:101E5000119723E02C93119724E02C93119725E000
:101E60002C93119726E02C93119727E02C93119730
:101E700028E02C93119729E02C93119720E12C93C3
:101E800011979C93119792E19C93119793E19C93E6
:101E9000119794E19C93119795E19C93119796E18A
:101EA0009C93119797E19C93119798E19C931197BC
:101EB00099E19C93119790E29C93119791E29C93E6
:101EC00011978C93119783E28C9311977C921197C1
:101ED0001C93119786E28C93119787E28C9311974C
:101EE00088E28C93119789E28C93119780E38C930D
:101EF000119781E38C93B697F983E883E114F10499
:101F000019F0F701D183C0830FB6F8940F92809136
:101F100009038F5F809309038091D2029091D302CD
:101F2000892B09F061C0D093D302C093D202809173
:101F30000903813081F588E393E00E949E0781E4E4
:101F400093E00E949E078AE493E00E949E0783E547
:101F500093E00E949E078DED92E00E949E0784ED23
:101F600092E00E949E078FEF92E00E949E078AE017
:101F700093E00E949E0783E193E00E949E078DED0F
:101F800092E090931F0380931E0384ED92E0909360
:101F90002103809320038091E6028F5F8093E60205
:101FA0008E8990915C03981710F480935C03F9E09C
:101FB0008F9FC0011124BE016E5F7F4F885C9C4FD4
:101FC0000E9442060F900FBE80913203882351F089
:101FD000E091D202F091D30296898E89981710F47D
:101FE0000E94AC0781E0DECE809132038111D3CF15
:101FF000E091D202F091D30296898E89891758F226
:10200000D093D302C093D202C6CFEF92FF920F9328
:10201000CF93DF939BEFE92E92E0F92E00E030E0C2
:1020200020E040EC50E06FEA71E087E893E00E9426
:10203000980E813009F0B7C00FB6F8940F928091D6
:10204000330390913403892B09F04FC080EF92E065
:102050000E949E0787EE92E00E949E0780EF92E02A
:10206000909327038093260387EE92E090932503B5
:102070008093240381E590E00E947A0EEC010097A2
:1020800081F14F96998388838AE08B8F85E08C8FCE
:102090000FB6F8940F92888199812B8D4C8DBC01DD
:1020A000249F600D711D11247D836C831A8E9B8388
:1020B0008A832150330B429FB001439F700D11243E
:1020C000860F971F9F838E838FEF8D8F8E8FCE010C
:1020D00008960E949E07CE0141960E949E070F908F
:1020E0000FBED0933403C09333030F900FBE809183
:1020F000330390913403892B09F455C089EFE82EFE
:1021000082E0F82E03E030E020E045E550E064EBAB
:1021100071E081EC9CE00E94980E813009F043C090
:10212000F8942FEF3FEF30931D0320931C0380930F
:1021300032031092360310923503A89588E190EC93
:102140000FB6F894A895809360000FBE909360003E
:10215000A091D202B091D302CD91CDBFDD91DEBF6F
:10216000FF91EF91DF91CF91BF91AF919F918F91AF
:102170007F916F915F914F913F912F911F910F919F
:10218000FF90EF90DF90CF90BF90AF909F908F9097
:102190007F906F905F904F903F902F901F900F9087
:1021A0000FBE0F900895DF91CF910F91FF90EF90A8
:1021B00008950E94EE0A1895789484B5826084BDD3
:1021C00084B5816084BD85B5826085BD85B581603B
:1021D00085BDEEE6F0E0808181608083E1E8F0E09B
:1021E0001082808182608083808181608083E0E8CA
:1021F000F0E0808181608083E1EBF0E080818460A9
:102200008083E0EBF0E0808181608083EAE7F0E0AA
:10221000808184608083808182608083808181600E
:1022200080838081806880831092C1000E94BA03FD
:10223000EDE5F3E01382128288EE93E0A0E0B0E0D7
:1022400084839583A683B7838CE691E09183808312
:1022500085EC90E09587848784EC90E0978786876B
:1022600080EC90E0918B808B81EC90E0938B828B63
:1022700082EC90E0958B848B86EC90E0978B868B3C
:10228000118E128E138E148E08955058BB27AA27D4
:102290000E945D110C94D0120E94C21238F00E946C
:1022A000C91220F039F49F3F19F426F40C94BF12A0
:1022B0000EF4E095E7FB0C94B912E92F0E94E112AD
:1022C00058F3BA17620773078407950720F079F46B
:1022D000A6F50C9403130EF4E0950B2EBA2FA02D47
:1022E0000B01B90190010C01CA01A0011124FF27C3
:1022F000591B99F0593F50F4503E68F11A16F040BE
:10230000A22F232F342F4427585FF3CF46953795BC
:102310002795A795F0405395C9F77EF41F16BA0B81
:10232000620B730B840BBAF09150A1F0FF0FBB1F2F
:10233000661F771F881FC2F70EC0BA0F621F731F78
:10234000841F48F4879577956795B795F7959E3FD5
:1023500008F0B0CF9395880F08F09927EE0F979566
:10236000879508950E94951208F481E008950E94CF
:10237000CB110C94D0120E94C91258F00E94C212C4
:1023800040F029F45F3F29F00C94B91251110C94DC
:1023900004130C94BF120E94E11268F39923B1F365
:1023A000552391F3951B550BBB27AA27621773077B
:1023B000840738F09F5F5F4F220F331F441FAA1F0F
:1023C000A9F335D00E2E3AF0E0E832D091505040CB
:1023D000E695001CCAF72BD0FE2F29D0660F771F79
:1023E000881FBB1F261737074807AB07B0E809F05F
:1023F000BB0B802DBF01FF2793585F4F3AF09E3FE4
:10240000510578F00C94B9120C9404135F3FE4F377
:10241000983ED4F3869577956795B795F7959F5F26
:10242000C9F7880F911D9695879597F90895E1E072
:10243000660F771F881FBB1F621773078407BA07D1
:1024400020F0621B730B840BBA0BEE1F88F7E0952C
:1024500008950E94E91288F09F5798F0B92F9927A4
:10246000B751B0F0E1F0660F771F881F991F1AF07F
:10247000BA95C9F714C0B13091F00E940313B1E0CE
:1024800008950C940313672F782F8827B85F39F0CD
:10249000B93FCCF3869577956795B395D9F73EF418
:1024A00090958095709561957F4F8F4F9F4F0895C0
:1024B000E89409C097FB3EF49095809570956195DE
:1024C0007F4F8F4F9F4F9923A9F0F92F96E9BB2794
:1024D0009395F695879577956795B795F111F8CF10
:1024E000FAF4BB0F11F460FF1BC06F5F7F4F8F4F7B
:1024F0009F4F16C0882311F096E911C0772321F071
:102500009EE8872F762F05C0662371F096E8862F08
:1025100070E060E02AF09A95660F771F881FDAF75F
:10252000880F9695879597F90895990F0008550F8C
:10253000AA0BE0E8FEEF16161706E807F907C0F049
:1025400012161306E407F50798F0621B730B840B51
:10255000950B39F40A2661F0232B242B252B21F42B
:1025600008950A2609F4A140A6958FEF811D811DCB
:10257000089597F99F6780E870E060E008959FEF05
:1025800080EC089500240A9416161706180609060A
:10259000089500240A9412161306140605060895D9
:1025A000092E0394000C11F4882352F0BB0F40F461
:1025B000BF2B11F460FF04C06F5F7F4F8F4F9F4FA1
:1025C000089557FD9058440F551F59F05F3F71F023
:1025D0004795880F97FB991F61F09F3F79F087958A
:1025E0000895121613061406551FF2CF4695F1DF13
:1025F00008C0161617061806991FF1CF86957105A3
:10260000610508940895E894BB2766277727CB01D6
:1026100097F908950E94951208F48FEF08950E948B
:1026200022130C94D0120E94C21238F00E94C912D8
:1026300020F0952311F00C94B9120C94BF121124C0
:102640000C9404130E94E11270F3959FC1F3950F4F
:1026500050E0551F629FF001729FBB27F00DB11D26
:10266000639FAA27F00DB11DAA1F649F6627B00DB6
:10267000A11D661F829F2227B00DA11D621F739F9F
:10268000B00DA11D621F839FA00D611D221F749FAD
:102690003327A00D611D231F849F600D211D822FF4
:1026A000762F6A2F11249F5750409AF0F1F088231B
:1026B0004AF0EE0FFF1FBB1F661F771F881F915048
:1026C0005040A9F79E3F510580F00C94B9120C942C
:1026D00004135F3FE4F3983ED4F3869577956795AE
:1026E000B795F795E7959F5FC1F7FE2B880F911D72
:1026F0009695879597F908950E949512880B990BE6
:102700000895A1E21A2EAA1BBB1BFD010DC0AA1F32
:10271000BB1FEE1FFF1FA217B307E407F50720F04A
:10272000A21BB30BE40BF50B661F771F881F991FC5
:102730001A9469F760957095809590959B01AC010E
:10274000BD01CF010895EE0FFF1F0590F491E02D1C
:1027500009940F931F93CF93DF938230910510F468
:1027600082E090E0E091FC03F091FD0330E020E096
:10277000B0E0A0E0309799F42115310509F44AC082
:10278000281B390B24303105D8F58A819B816115CE
:10279000710589F1FB0193838283FE0111C04081A1
:1027A00051810281138148175907E0F048175907F2
:1027B00099F4109761F012960C93129713961C934C
:1027C0003296CF01DF91CF911F910F910895009321
:1027D000FC031093FD03F4CF2115310551F042178E
:1027E000530738F0A901DB019A01BD01DF01F801AF
:1027F000C1CFEF01F9CF9093FD038093FC03CDCFC0
:10280000FE01E20FF31F8193919322503109398326
:102810002883D7CF2091FA033091FB03232B41F477
:1028200020914001309141013093FB032093FA0342
:1028300020913E0130913F012115310541F42DB722
:102840003EB74091420150914301241B350BE0916A
:10285000FA03F091FB03E217F307A0F42E1B3F0BE2
:102860002817390778F0AC014E5F5F4F2417350702
:1028700048F04E0F5F1F5093FB034093FA03819380
:1028800091939FCFF0E0E0E09CCFCF93DF93009750
:10289000E9F0FC01329713821282A091FC03B091FF
:1028A000FD03ED0130E020E01097A1F4208131819B
:1028B000820F931F2091FA033091FB0328173907E9
:1028C00009F061C0F093FB03E093FA03DF91CF912D
:1028D0000895EA01CE17DF07E8F54A815B819E0182
:1028E00041155105B1F7E901FB83EA8349915991FB
:1028F000C40FD51FEC17FD0761F48081918102960A
:10290000840F951FE90199838883828193819B833A
:102910008A83F0E0E0E012968D919C9113970097E6
:10292000B9F52D913C911197CD010296820F931F1D
:102930002091FA033091FB032817390739F63097B5
:1029400051F51092FD031092FC03B093FB03A0938A
:10295000FA03BCCFD383C28340815181840F951F7A
:10296000C817D90761F44E5F5F4F88819981480F7E
:10297000591F518340838A819B81938382832115D0
:10298000310509F0B0CFF093FD03E093FC039ECF37
:10299000FD01DC01C0CF13821282D7CFFB01DC0125
:1029A00002C001900D9241505040D8F70895DC01CB
:1029B00001C06D9341505040E0F70895F894FFCF67
:1029C0000A00030003000D000400020011000200D1
:1029D00001000A00030003000D00040002001100C2
:1029E000040001000A00050002000F0004000100BD
:1029F0000A00050002000F0006000100B80B0000ED
:102A0000FE0380000000C84278AFA542E0F39B427D
:102A10009E5D9742C7B29442020002000300030089
:102A200030012401120100010000000002015F00DA
:102A30008C004F01BD009B00AF000D0A006E616E5F
:102A400000696E66006F7666005469636B3A200019
:102A50005461736B3A200053756363657373004D63
:102A6000697373656420446561646C696E650049CF
:102A7000444C4500546D7220537663005261746576
:102A8000204D6F6E6F746F6E696320536368656469
:102A9000756C696E67204578616D706C65732E008A
:102AA0004361736573203120616E64203320736845
:102AB0006F756C64206661696C0043617365732097
:102AC0003220616E6420342073686F756C642073EB
:102AD00075636365656400456E746572206E756D1F
:102AE000626572205B312D345D2000496E76616C29
:102AF000696420696E7075740063616C69627261EB
:102B000074696E67204350553A20005374617274A3
:102B1000696E67207461736B73202D207065726914
:102B20006F6420616E642043505520696E20746983
:102B3000636B7300506572696F642C4350552C5061
:102B400072696F72697479007461736B2063726566
:102B5000617465206661696C656400435055207539
:102B6000736520253A20004C697520616E64204C05
:102B700061796C616E6420626F756E6420253A2005
:102B8000005363686564756C6572206661696C6585
:022B90006400DF
:00000001FF
